:020000040800F2
:1000000000800120FD6D0008850D0008870D0008A7
:10001000890D00088B0D00088D0D00080000000000
:100020000000000000000000000000008F0D00082C
:10003000910D000800000000930D0008950D0008C8
:100040004D6E00084D6E00084D6E00084D6E0008A4
:100050004D6E00084D6E00084D6E00084D6E000894
:100060004D6E00084D6E00084D6E00084D6E000884
:100070004D6E00089D0D00084D6E00084D6E000885
:100080004D6E00084D6E00084D6E00084D6E000864
:100090004D6E00084D6E00084D6E00084D6E000854
:1000A0004D6E00084D6E00084D6E00084D6E000844
:1000B0004D6E00084D6E00084D6E00084D6E000834
:1000C0004D6E00084D6E00084D6E00084D6E000824
:1000D0004D6E00084D6E00084D6E00084D6E000814
:1000E0004D6E00084D6E00084D6E00084D6E000804
:1000F0004D6E00084D6E00084D6E00084D6E0008F4
:100100004D6E00084D6E00084D6E00084D6E0008E3
:100110004D6E00084D6E00084D6E00084D6E0008D3
:100120004D6E00084D6E00084D6E00084D6E0008C3
:100130004D6E00084D6E00084D6E00084D6E0008B3
:100140004D6E00084D6E00084D6E0008AD0D0008A4
:100150004D6E00084D6E00084D6E00084D6E000893
:100160004D6E00084D6E00084D6E00084D6E000883
:100170004D6E00084D6E00084D6E00080000000036
:080180004D6E00084D6E0008F1
:1001900010B5054C237833B9044B13B10448AFF3C1
:1001A00000800123237010BD4002002000000000E9
:1001B000947A000808B5034B1BB103490348AFF319
:1001C000008008BD0000000044020020947A00086E
:1001D000034613F8012B002AFBD1181A0138704787
:1001E00001F0FF01102A2BDB10F0070F08D010F8E8
:1001F000013B013A8B422DD010F0070F42B3F6D1EC
:10020000F0B441EA012141EA014122F007047FF004
:1002100000070023F0E80256083C85EA010586EA5B
:10022000010685FA47F5A3FA87F586FA47F6A5FA97
:1002300087F68EB9EED1F0BC01F0FF0102F00702A3
:1002400032B110F8013B013A83EA010313B1F8D14E
:100250000020704701387047002D06BF354603382F
:10026000073815F0010F07D1013015F4807F02BF68
:10027000013015F4C03F0130F0BC0138704700BFB9
:1002800081F0004102E000BF83F0004330B54FEA47
:1002900041044FEA430594EA050F08BF90EA020FB4
:1002A0001FBF54EA000C55EA020C7FEA645C7FEA47
:1002B000655C00F0E2804FEA5454D4EB5555B8BF6A
:1002C0006D420CDD2C4480EA020281EA030382EADB
:1002D000000083EA010180EA020281EA0303362D6D
:1002E00088BF30BD11F0004F4FEA01314FF4801C40
:1002F0004CEA113102D0404261EB410113F0004F52
:100300004FEA03334CEA133302D0524263EB430308
:1003100094EA050F00F0A780A4F10104D5F1200EA6
:100320000DDB02FA0EFC22FA05F2801841F1000101
:1003300003FA0EF2801843FA05F359410EE0A5F1D5
:1003400020050EF1200E012A03FA0EFC28BF4CF006
:10035000020C43FA05F3C01851EBE37101F00045BC
:1003600007D54FF0000EDCF1000C7EEB00006EEBC9
:100370000101B1F5801F1BD3B1F5001F0CD3490853
:100380005FEA30004FEA3C0C04F101044FEA4452AA
:1003900012F5800F80F09A80BCF1004F08BF5FEA31
:1003A000500C50F1000041EB045141EA050130BD11
:1003B0005FEA4C0C404141EB010111F4801FA4F1B4
:1003C0000104E9D191F0000F04BF01460020B1FA09
:1003D00081F308BF2033A3F10B03B3F120020CDA41
:1003E0000C3208DD02F1140CC2F10C0201FA0CF01F
:1003F00021FA02F10CE002F11402D8BFC2F1200C84
:1004000001FA02F120FA0CFCDCBF41EA0C01904039
:10041000E41AA2BF01EB0451294330BD6FEA040482
:100420001F3C1CDA0C340EDC04F11404C4F120026D
:1004300020FA04F001FA02F340EA030021FA04F37F
:1004400045EA030130BDC4F10C04C4F1200220FAD6
:1004500002F001FA04F340EA0300294630BD21FA14
:1004600004F0294630BD94F0000F83F4801306BFDA
:1004700081F480110134013D4EE77FEA645C18BFCE
:100480007FEA655C29D094EA050F08BF90EA020F65
:1004900005D054EA000C04BF1946104630BD91EA5D
:1004A000030F1EBF0021002030BD5FEA545C05D160
:1004B0004000494128BF41F0004130BD14F580049F
:1004C0003CBF01F5801130BD01F0004545F0FE4113
:1004D00041F470014FF0000030BD7FEA645C1ABF48
:1004E000194610467FEA655C1CBF0B46024650EA7F
:1004F000013406BF52EA033591EA030F41F40021AB
:1005000030BD00BF90F0000F04BF0021704730B530
:100510004FF4806404F132044FF000054FF0000105
:1005200050E700BF90F0000F04BF0021704730B5C6
:100530004FF4806404F1320410F0004548BF40429B
:100540004FF000013EE700BF42004FEAE2014FEAF0
:1005500031014FEA02701FBF12F07F4393F07F4FCB
:1005600081F06051704732F07F4208BF704793F0CE
:100570007F4F04BF41F40021704730B54FF46074E1
:1005800001F0004521F000411CE700BF50EA0102E4
:1005900008BF704730B54FF000050AE050EA01028D
:1005A00008BF704730B511F0004502D5404261EBFD
:1005B00041014FF4806404F132045FEA915C3FF43E
:1005C000D8AE4FF003025FEADC0C18BF03325FEADB
:1005D000DC0C18BF033202EBDC02C2F1200300FA8C
:1005E00003FC20FA02F001FA03FE40EA0E0021FAB1
:1005F00002F11444BDE600BF70B54FF0FF0C4CF49F
:10060000E06C1CEA11541DBF1CEA135594EA0C0F50
:1006100095EA0C0F00F0DEF82C4481EA030621EA8B
:100620004C5123EA4C5350EA013518BF52EA0335C6
:1006300041F4801143F4801338D0A0FB02CE4FF078
:100640000005E1FB02E506F00042E0FB03E54FF0A8
:100650000006E1FB03569CF0000F18BF4EF0010EA0
:10066000A4F1FF04B6F5007F64F5407404D25FEA9C
:100670004E0E6D4146EB060642EAC62141EA55514F
:100680004FEAC52040EA5E504FEACE2EB4F1FD0C91
:1006900088BFBCF5E06F1ED8BEF1004F08BF5FEA0F
:1006A000500E50F1000041EB045170BD06F00046C1
:1006B00046EA010140EA020081EA0301B4EB5C046E
:1006C000C2BFD4EB0C0541EA045170BD41F4801166
:1006D0004FF0000E013C00F3AB8014F1360FDEBF8B
:1006E000002001F0004170BDC4F10004203C35DA67
:1006F0000C341BDC04F11404C4F1200500FA05F3EA
:1007000020FA04F001FA05F240EA020001F000428A
:1007100021F0004110EBD37021FA04F642EB060100
:100720005EEA430E08BF20EAD37070BDC4F10C042A
:10073000C4F1200500FA04F320FA05F001FA04F2EE
:1007400040EA020001F0004110EBD37041F10001DA
:100750005EEA430E08BF20EAD37070BDC4F12005E5
:1007600000FA05F24EEA020E20FA04F301FA05F24D
:1007700043EA020321FA04F001F0004121FA04F2F5
:1007800020EA020000EBD3705EEA430E08BF20EAC5
:10079000D37070BD94F0000F0FD101F000464000FF
:1007A00041EB010111F4801F08BF013CF7D041EA81
:1007B000060195F0000F18BF704703F00046520085
:1007C00043EB030313F4801F08BF013DF7D043EA56
:1007D0000603704794EA0C0F0CEA135518BF95EA0C
:1007E0000C0F0CD050EA410618BF52EA4306D1D193
:1007F00081EA030101F000414FF0000070BD50EAB2
:10080000410606BF1046194652EA430619D094EA3B
:100810000C0F02D150EA013613D195EA0C0F05D125
:1008200052EA03361CBF104619460AD181EA030179
:1008300001F0004141F0FE4141F470014FF0000031
:1008400070BD41F0FE4141F4780170BD70B54FF0CC
:10085000FF0C4CF4E06C1CEA11541DBF1CEA13554C
:1008600094EA0C0F95EA0C0F00F0A7F8A4EB05042E
:1008700081EA030E52EA03354FEA013100F0888025
:100880004FEA03334FF0805545EA131343EA1263EE
:100890004FEA022245EA111545EA10654FEA0026A3
:1008A0000EF000419D4208BF964244F1FD0404F55C
:1008B000407402D25B084FEA3202B61A65EB0305B8
:1008C0005B084FEA32024FF480104FF4002CB6EB75
:1008D000020E75EB030E22BFB61A754640EA0C00F5
:1008E0005B084FEA3202B6EB020E75EB030E22BF35
:1008F000B61A754640EA5C005B084FEA3202B6EB76
:10090000020E75EB030E22BFB61A754640EA9C0034
:100910005B084FEA3202B6EB020E75EB030E22BF04
:10092000B61A754640EADC0055EA060E18D04FEAC2
:10093000051545EA16754FEA06164FEAC30343EA62
:1009400052734FEAC2025FEA1C1CC0D111F4801F2F
:100950000BD141EA00014FF000004FF0004CB6E728
:1009600011F4801F04BF01430020B4F1FD0C88BFC7
:10097000BCF5E06F3FF6AFAEB5EB030C04BFB6EBD2
:10098000020C5FEA500C50F1000041EB045170BDC5
:100990000EF0004E4EEA113114EB5C04C2BFD4EBF2
:1009A0000C0541EA045170BD41F480114FF0000E76
:1009B000013C90E645EA060E8DE60CEA135594EAF2
:1009C0000C0F08BF95EA0C0F3FF43BAF94EA0C0FF5
:1009D0000AD150EA01347FF434AF95EA0C0F7FF46A
:1009E00025AF104619462CE795EA0C0F06D152EABE
:1009F00003353FF4FDAE1046194622E750EA4106A2
:100A000018BF52EA43067FF4C5AE50EA41047FF4B2
:100A10000DAF52EA43057FF4EBAE12E74FF0FF3C17
:100A200006E000BF4FF0010C02E000BF4FF0010CE8
:100A30004DF804CD4FEA410C7FEA6C5C4FEA430C61
:100A400018BF7FEA6C5C1BD001B050EA410C0CBFB0
:100A500052EA430C91EA030F02BF90EA020F002012
:100A6000704710F1000F91EA030F58BF994208BF79
:100A700090422CBFD8176FEAE37040F00100704736
:100A80004FEA410C7FEA6C5C02D150EA013C07D18D
:100A90004FEA430C7FEA6C5CD6D152EA033CD3D0D8
:100AA0005DF8040B704700BF8446104662468C46D2
:100AB0001946634600E000BF01B5FFF7B7FF002805
:100AC00048BF10F1000F01BD4DF808EDFFF7F4FF2E
:100AD0000CBF012000205DF808FB00BF4DF808EDB9
:100AE000FFF7EAFF34BF012000205DF808FB00BFDC
:100AF0004DF808EDFFF7E0FF94BF012000205DF8FE
:100B000008FB00BF4DF808EDFFF7CEFF94BF0120B2
:100B100000205DF808FB00BF4DF808EDFFF7C4FFAB
:100B200034BF012000205DF808FB00BF4FEA410CF4
:100B30007FEA6C5C02D150EA013C0AD14FEA430CD7
:100B40007FEA6C5C02D152EA033C02D14FF0000014
:100B500070474FF0010070474FEA410212F5001252
:100B600015D211D56FF47873B3EB625212D94FEAF4
:100B7000C12343F0004343EA505311F0004F23FADE
:100B800002F018BF404270474FF00000704750EA33
:100B9000013005D111F0004008BF6FF000407047F0
:100BA0004FF00000704700BF4A0011D212F500124A
:100BB00011D20DD56FF47873B3EB62520ED44FEAB5
:100BC000C12343F0004343EA505323FA02F0704735
:100BD0004FF00000704750EA013002D14FF0FF3073
:100BE00070474FF000007047F0B5B9B024220021E3
:100BF00028A806F051F900242294239424942594E3
:100C0000269488222146684606F046F91023279349
:100C100001262D9660232F93022531953296339627
:100C200028233493072735973695379527A800F062
:100C300073FD0F2322930323239324942594269456
:100C4000042122A801F084F846F2C0030093149412
:100C500015944FF080531E934FF080631B930196C1
:100C60000296182303930497059506954FF0887311
:100C70000793684601F07CFA4FF4007001F070FEB3
:100C800039B0F0BD08B500F0B7FBFFF7ADFF00F0DD
:100C90000FF805F035FB01F041FF01F0D3FF01F043
:100CA000FDFF05F0A5FB03F08BFBFEE7704700009E
:100CB000F0B589B000240394049405940694079435
:100CC0002D4BDA6C42F00102DA64DA6C02F00102B8
:100CD0000092009ADA6C42F00202DA64DA6C02F0F6
:100CE00002020192019ADA6C42F00402DA64DB6CCF
:100CF00003F004030293029B224620214FF0904010
:100D000001F042FD1D4F22460421384601F03CFD12
:100D10001B4E22464021304601F036FD0122802143
:100D2000304601F031FD20230393012504950595FC
:100D3000069403A94FF0904001F042FC0423039372
:100D400004950594069403A9384601F039FC4FF444
:100D5000404303930494059403A9384601F030FC02
:100D6000C023039304950594069403A9304601F02B
:100D700027FC09B0F0BD00BF00100240000400488D
:100D8000000800487047FEE7FEE7FEE7FEE7704711
:100D90007047704708B500F03FFB08BD08B5024832
:100DA00001F074FD08BD00BF8468002008B502484A
:100DB00003F02EFF08BD00BFCC08002082B00A4B14
:100DC0001A6E42F001021A661A6E02F001020092D7
:100DD000009A9A6D42F080529A659B6D03F08053A1
:100DE0000193019B02B070470010024030B4036AC7
:100DF00023F001030362036A4468826922F48032AB
:100E000022F073020D682A4323F002038D682B43FE
:100E10001C4DA8420FD005F50065A8420BD005F582
:100E20004065A84207D005F58065A84203D005F5C6
:100E30008065A84205D123F00803CD682B4323F039
:100E40000403104DA8420FD005F50065A8420BD051
:100E500005F54065A84207D005F58065A84203D096
:100E600005F58065A84205D124F440754C692C43F2
:100E70008D692C43446082614A684263036230BCDE
:100E8000704700BF002C014030B4036A23F4807324
:100E90000362036A4468C26922F4803222F073025A
:100EA0000D682A4323F400738D6843EA0523184D27
:100EB000A84203D005F50065A84206D123F40063DB
:100EC000CD6843EA052323F48063114DA8420FD077
:100ED00005F50065A8420BD005F54065A84207D08E
:100EE00005F58065A84203D005F58065A84207D1C5
:100EF00024F440544D6944EA05148D6944EA05140C
:100F00004460C2614A68C263036230BC704700BF7C
:100F1000002C014030B4036A23F480530362036A57
:100F20004468C26922F0807222F4E6420D6842EA07
:100F3000052223F400538D6843EA05330F4DA84280
:100F40000FD005F50065A8420BD005F54065A84215
:100F500007D005F58065A84203D005F58065A84255
:100F600004D124F480444D6944EA85144460C2618C
:100F70004A680264036230BC704700BF002C014025
:100F800030B4036A23F480330362036A4468426D19
:100F900022F4803222F070020D682A4323F40033D9
:100FA0008D6843EA05430F4DA8420FD005F5006553
:100FB000A8420BD005F54065A84207D005F580652D
:100FC000A84203D005F58065A84204D124F48034FA
:100FD0004D6944EA0524446042654A6882650362BB
:100FE00030BC7047002C014030B4036A23F48013F6
:100FF0000362036A4468426D22F0807222F4E04288
:101000000D6842EA052223F400138D6843EA055374
:101010000F4DA8420FD005F50065A8420BD005F58D
:101020004065A84207D005F58065A84203D005F5C4
:101030008065A84204D124F480244D6944EA8524C3
:10104000446042654A68C265036230BC704700BFB5
:10105000002C01400368304A904212D0B0F1804F1A
:101060000FD0A2F5943290420BD002F580629042EC
:1010700007D002F58062904203D002F5943290428C
:1010800003D123F070034A681343234A90421ED0D1
:10109000B0F1804F1BD0A2F59432904217D002F5E8
:1010A0008062904213D002F5806290420FD002F528
:1010B000943290420BD002F54062904207D002F584
:1010C0008062904203D002F58062904203D123F403
:1010D0004073CA68134323F080034A6913430360D3
:1010E0008B68C3620B6883620B4B98420FD003F589
:1010F000006398420BD003F54063984207D003F594
:101100008063984203D003F58063984201D10B6954
:101110000363012343617047002C0140A8B110B55F
:10112000044690F83D305BB1022384F83D30211D28
:101130002068FFF78FFF012384F83D30002010BDA9
:1011400080F83C3005F0F6F8EEE70120704700002B
:1011500030B4036A23F010030362036A44688269AF
:1011600022F0807222F4E6420D6842EA052223F062
:1011700020038D6843EA0513174DA84203D005F5F7
:101180000065A84206D123F08003CD6843EA051329
:1011900023F04003104DA8420FD005F50065A8428A
:1011A0000BD005F54065A84207D005F58065A8423B
:1011B00003D005F58065A84207D124F440644D6949
:1011C00044EA85048D6944EA8504446082614A6882
:1011D0008263036230BC7047002C014038B590F840
:1011E0003C30012B00F092800D460446012380F82C
:1011F0003C30022380F83D30142A1ED8DFE802F08C
:101200000B1D1D1D241D1D1D381D1D1D4B1D1D1DD0
:101210005F1D1D1D72000068FFF7E8FD22689369DD
:1012200043F0080393612268936923F004039361F8
:101230002268936929690B439361012384F83D3047
:10124000002084F83C0038BD0068FFF781FF226869
:10125000936943F4006393612268936923F4806384
:10126000936122689369296943EA01239361E4E762
:101270000068FFF709FE2268D36943F00803D361D1
:101280002268D36923F00403D3612268D3692969F2
:101290000B43D361D1E70068FFF73CFE2268D369B6
:1012A00043F40063D3612268D36923F48063D3617C
:1012B0002268D369296943EA0123D361BDE7006845
:1012C000FFF75EFE2268536D43F008035365226802
:1012D000536D23F0040353652268536D29690B4352
:1012E0005365AAE70068FFF77FFE2268536D43F459
:1012F000006353652268536D23F48063536522684D
:10130000536D296943EA0123536596E702209AE762
:1013100090F83C30012B42D030B4012380F83C30AF
:10132000022380F83D300268536895681D4CA24244
:1013300003D004F50064A24203D123F470034C6887
:10134000234323F070030C68234353600368154A5A
:10135000934216D0B3F1804F13D0A2F5943293424A
:101360000FD002F5806293420BD002F58062934267
:1013700007D002F59432934203D002F540629342C3
:1013800004D125F080058A6815439D60012380F80B
:101390003D30002380F83C30184630BC70470220B6
:1013A000704700BF002C0140104B1B680BB9012097
:1013B000704710B504464FF47A70B0FBF3F30C4A53
:1013C0001068B0FBF3F001F06FFB68B90F2C01D986
:1013D00001200AE0002221464FF0FF3001F022FBFD
:1013E000044B1C60002000E0012010BD0000002024
:1013F000080000200400002010B5032001F000FBCD
:101400000020FFF7D1FF10B10124204610BD044693
:10141000FFF7D4FCF9E70000034A136803490968A1
:101420000B441360704700BF080500200000002037
:10143000014B1868704700BF0805002038B5044606
:10144000FFF7F6FF0546B4F1FF3F02D0044B1B68DF
:101450001C44FFF7EDFF401BA042FAD338BD00BF8C
:1014600000000020002859D010B5044690F8413003
:10147000002B43D0242384F841302268136823F0E2
:10148000010313606368226823F0706313612268AC
:10149000936823F400439360E368012B33D0A3687F
:1014A000226843F404439360E368022B31D022683E
:1014B000536843F0007343F4004353602268D368D9
:1014C00023F40043D360236962691343A16922684E
:1014D00043EA0123D360E369216A22680B43136066
:1014E0002268136843F00103136000206064202326
:1014F00084F84130206384F8420010BD80F8403009
:1015000001F0F8FBB6E7A368226843F40043936058
:10151000CAE723684FF400625A60C8E701207047A9
:1015200090F84130DBB2202B24D190F84030012BD1
:1015300022D0012380F84030242380F84130026813
:10154000136823F0010313600268136823F48053C7
:10155000136002681368194311600268136843F04E
:1015600001031360202380F84130002380F84030CD
:1015700018467047022070470220704790F84130AB
:10158000DBB2202B22D190F84030012B20D0012358
:1015900080F84030242380F841300268136823F03B
:1015A000010313600268136823F4706343EA0121A6
:1015B00011600268136843F001031360202380F870
:1015C0004130002380F840301846704702207047B1
:1015D0000220704730B583B00546204B9B6D13F059
:1015E000805F0BD001F0B4F9B0F5007F17D0802DEB
:1015F0001FD82DD0702D2DD000211BE0174CA36DCE
:1016000043F08053A365A36D03F080530193019BC6
:1016100001F09EF9A36D23F08053A365E4E7802DCC
:1016200003D9A02D03D9022104E0002102E0012109
:1016300000E003210A4A136823F007030B431360F9
:10164000136803F007038B4206D0012003B030BDBE
:101650000221EFE70121EDE70020F7E7001002404B
:1016600000200240284A9368D26802F0030213F077
:101670000C030AD00C2B06D0042B1FD0082B20D033
:101680000020024610E0012AF6D11F4A126812F02B
:10169000080F0CD11C4AD2F89420C2F303221B4934
:1016A00051F8222043B100200C2B0DD07047164A70
:1016B0001268C2F30312F2E71046F5E7144800225D
:1016C000F2E714480022EFE70F4BDB6803F0030357
:1016D000022B15D0032B15D00B4BD868C0F302108A
:1016E0000130D968C1F3062102FB01F2B2FBF0F22E
:1016F000D868C0F3416001304000B2FBF0F0D5E79C
:10170000034AE9E7034AE7E700100240C07A00080D
:101710000024F40000127A00002800F00083F0B5E5
:1017200083B00446AF4B9D6805F00C05DE6806F0FB
:101730000306036813F0100F5BD0E5B10C2D18D031
:10174000A369002B00F0BC80A64A136843F0010394
:101750001360FFF76DFE0746A24B1B6813F0020FE4
:1017600040F09B80FFF764FEC01B0228F4D90323DE
:10177000E1E2012EE4D19B4B1B6813F0020F03D072
:10178000A369002B00F0CE82206A964B1B6813F0F1
:10179000080F5CD0934B1B6803F0F00398425DD8B0
:1017A000904B1A6842F008021A601A6822F0F002A0
:1017B000216A0A431A605A6822F47F42E16942EAC8
:1017C00001225A60002D61D0FFF74CFF854B9B68CA
:1017D000C3F30313844AD35C03F01F03D840834B45
:1017E0001860834B1868FFF7DFFD0346002840F0C0
:1017F000A282236813F0010F00F08180082D75D0BC
:101800000C2D71D06368B3F5803F00F09780B3F57D
:10181000A02F00F09980734B1A6822F480321A606E
:101820001A6822F480221A606368002B00F0998005
:10183000FFF7FEFD07466B4B1B6813F4003F5ED1BC
:10184000FFF7F6FDC01B6428F5D9032373E2654B4F
:10185000D3F894301B0903F0F0039FE7FFF7BAFEBB
:10186000002840F061825F4B1A6842F008021A605B
:101870001A6822F0F002216A0A431A605A6822F4B8
:101880007F42E16942EA01225A609DE7206AFFF740
:10189000A1FE002898D001234DE2524B1A6842F075
:1018A00008021A601A6822F0F002216A0A431A60DC
:1018B0005A6822F47F42E16942EA01225A6098E7BD
:1018C000484A136823F001031360FFF7B1FD074690
:1018D000444B1B6813F0020F8BD0FFF7A9FDC01B10
:1018E0000228F5D9032326E2032E8BD13D4B1B683A
:1018F00013F4003F03D06368002B00F017822368C5
:1019000013F0020F4FD0042D3CD00C2D38D0E368DB
:10191000002B78D0334A136843F480731360FFF7C9
:1019200087FD06462F4B1B6813F4806F62D1FFF7CB
:101930007FFD801B0228F5D90323FCE1294A1368A7
:1019400043F4803313606FE703F18043A3F53C3326
:101950001A6842F480221A601A6842F480321A60CF
:1019600062E7FFF765FD07461E4B1B6813F4003F57
:10197000C5D0FFF75DFDC01B6428F5D90323DAE16C
:10198000022EC4D1174B1B6813F4806F03D0E36899
:10199000002B00F0CD81134A536823F0F8532169DE
:1019A00043EA01635360236813F0080F56D063695C
:1019B000002B3CD00B4AD2F8943043F00103C2F81C
:1019C0009430FFF735FD0646064BD3F8943013F0FC
:1019D000020F43D1FFF72CFD801B0228F4D903230B
:1019E000A9E100BF00100240B07A00080800002002
:1019F00004000020B84A536823F0F853216943EAF1
:101A000001635360CFE7B44A136823F48073136013
:101A1000FFF70EFD0646B04B1B6813F4806FC2D073
:101A2000FFF706FD801B0228F5D9032383E1AA4AAC
:101A3000D2F8943023F00103C2F89430FFF7F8FC99
:101A40000646A54BD3F8943013F0020F06D0FFF7EB
:101A5000EFFC801B0228F4D903236CE1236813F008
:101A6000040F7AD09C4B9B6D13F0805F0BD19A4B87
:101A70009A6D42F080529A659B6D03F080530193FA
:101A8000019B012600E00026944B1B6813F4807F25
:101A900026D0A368012B37D0052B3DD08E4BD3F831
:101AA000902022F00102C3F89020D3F8902022F079
:101AB0000402C3F89020A368002B3BD0FFF7B8FCCA
:101AC0000746854BD3F8903013F0020F44D1FFF74F
:101AD000AFFCC01B41F288339842F2D903232AE1BC
:101AE0007E4A136843F480731360FFF7A1FC074636
:101AF0007A4B1B6813F4807FCBD1FFF799FCC01B96
:101B00000228F5D9032316E1734AD2F8903043F046
:101B10000103C2F89030CEE76F4BD3F8902042F02B
:101B20000402C3F89020D3F8902042F00102C3F8D9
:101B30009020C0E7FFF77CFC0746674BD3F8903056
:101B400013F0020F08D0FFF773FCC01B41F288337B
:101B50009842F2D90323EEE06EBBA36A002B00F09B
:101B6000E980022B2DD00C2D00F0EE805A4B1A6824
:101B700022F080721A601B6813F0205F04D1564A6D
:101B8000D36823F00303D360534AD36823F08873E8
:101B900023F48033D360FFF74BFC04464E4B1B68A5
:101BA00013F0007F00F0B980FFF742FC001B022811
:101BB000F4D90323BFE0484A936D23F08053936523
:101BC000CBE7454BDB6803F00301E26A91420FD09B
:101BD0000C2D00F0B380404B1B6813F0806F40F079
:101BE000AF803D4B1B6813F0805F2DD00123A2E036
:101BF00003F07002216B0139B2EB011FE8D103F44D
:101C0000FE42616BB2EB012FE2D103F40031A26B13
:101C1000073A18BF01229142DAD103F4C001E26B06
:101C20005208013AB1EB425FD2D103F0C063226C9B
:101C30005208013AB3EB426FCAD1274B1B6813F02D
:101C4000007F51D0002376E0234A136823F080738D
:101C50001360FFF7EDFB05461F4B1B6813F0007F79
:101C600006D0FFF7E5FB401B0228F5D9032362E00D
:101C7000194AD3681A491940E36A206B013843EACC
:101C80000013606B43EA0023E06B4008013843EA2D
:101C90004053206C4008013843EA4063A06B0009C0
:101CA00043EA40430B43D360136843F080731360EF
:101CB000D36843F08073D360FFF7BAFB0446064B4A
:101CC0001B6813F0007F0DD1FFF7B2FB001B022849
:101CD000F5D903232FE000BF001002400070004040
:101CE0008C809DF9002326E0184B1A6842F0807220
:101CF0001A60DA6842F08072DA60FFF799FB0446F6
:101D000004E0FFF795FB001B02281BD80F4B1B6854
:101D100013F0007FF5D000230DE000230BE001233A
:101D200018467047012306E0012304E0012302E086
:101D3000012300E00023184603B0F0BD0123FAE7B9
:101D40000123F8E70323F6E70123F4E7001002403C
:101D5000002800F09B8070B504464E4B1B6803F0D2
:101D600007038B420CD24B4A136823F007030B4343
:101D70001360136803F007038B4201D0012070BD8C
:101D80000D46236813F0010F39D06368032B09D087
:101D9000022B26D063BB404A126812F0020F06D114
:101DA0000120ECE73C4A126812F0007F70D03A49FB
:101DB0008A6822F0030213438B60FFF739FB064663
:101DC000354B9B6803F00C036268B3EB820F16D0AF
:101DD000FFF72EFB801B41F288339842F0D9032095
:101DE000CDE72D4A126812F4003FE0D10120C6E78A
:101DF000294A126812F4806FD9D10120BFE7236805
:101E000013F0020F06D0244A936823F0F003A16870
:101E10000B4393601F4B1B6803F00703AB420CD9C5
:101E20001C4A136823F007032B431360136803F065
:101E30000703AB4201D00120A1E7236813F0040F90
:101E400006D0154A936823F4E063E1680B4393607E
:101E5000236813F0080F07D00F4A936823F46053E8
:101E6000216943EAC1039360FFF7FCFB0A4B9B68BF
:101E7000C3F30313094AD35C03F01F03D840084B94
:101E80001860084B1868FFF78FFA78E70120704751
:101E9000012074E70020024000100240B07A0008E0
:101EA0000800002004000020014B1868704700BFA4
:101EB00008000020F8B55A4BDB6813F0030F18D068
:101EC000574BDB6803F003030268934202D00125FD
:101ED0002846F8BD002A00F0A080514BDB68C3F310
:101EE000021301334268934201D00125F0E7002537
:101EF0001AE00368022B59D0032B5ED0012B01D0CE
:101F000001250FE0464A126812F0020F61D0444DDD
:101F1000EA6822F073024468013C43EA0413134365
:101F2000EB600025002DD3D10F4604463C4A1368D0
:101F300023F080631360FFF77BFA0646384B1B687B
:101F400013F0006F05D0FFF773FA801B0228F5D954
:101F50000325002DBCD1002F3DD131490B6923F45D
:101F60001F3323F44073A068E2681209520442EA66
:101F7000002213430B612A4A136843F08063136005
:101F8000FFF756FA0646264B1B6813F0006F05D183
:101F9000FFF74EFA801B0228F5D90325002D97D1B3
:101FA0001F4A1369A1690B43136191E71C4A126828
:101FB00012F4806FABD10125B4E7194A126812F40C
:101FC000003FA4D1164A126812F4802F9FD1012538
:101FD000A8E70125A6E7012F0FD01148026922F0DA
:101FE000C06222F4FE42A16863695B08013B5B06A4
:101FF00043EA012313430361BDE70948026922F460
:10200000C00222F4FE42A16823695B08013B5B0524
:1020100043EA012313430361ADE7012558E700BFFD
:1020200000100240F8B5514BDB6813F0030F18D0D5
:102030004E4BDB6803F003030268934202D0012594
:102040002846F8BD002A00F08E80484BDB68C3F3B9
:10205000021301334268934201D00125F0E70025C5
:102060001AE00368022B59D0032B5ED0012B01D05C
:1020700001250FE03D4A126812F0020F61D03B4D7E
:10208000EA6822F073024468013C43EA04131343F4
:10209000EB600025002DD3D10F460446334A136868
:1020A00023F080531360FFF7C3F906462F4B1B68DC
:1020B00013F0005F05D0FFF7BBF9801B0228F5D9AC
:1020C0000325002DBCD1002F3DD128494B6923F4B5
:1020D0001F3323F44073A068E2681209520442EAF5
:1020E000002213434B61214A136843F0805313606D
:1020F000FFF79EF906461D4B1B6813F0005F05D1E4
:10210000FFF796F9801B0228F5D90325002D97D1FA
:10211000164A536961690B43536191E7134A126888
:1021200012F4806FABD10125B4E7104A126812F4A3
:10213000003FA4D10D4A126812F4802F9FD10125CF
:10214000A8E70125A6E70948426922F0C06222F407
:10215000FE42A16823695B08013B5B0643EA012359
:1021600013434361BFE701256AE700BF0010024047
:102170002DE9F04182B00446036813F4006F2FD0BC
:10218000436EB3F5800F25D008D9B3F5000F10D0FA
:10219000B3F5400F40F09980002610E0002B40F08E
:1021A000948000210430FFF785FE06463EB1374695
:1021B00018E05E4AD36843F48033D36000265B4A5C
:1021C000D2F8883023F44003616E0B43C2F88830A4
:1021D000002707E000212030FFF724FF0646E5E74F
:1021E00000273E46236813F4805F15D0A36EB3F139
:1021F000807F7AD06CD9B3F1007F70D0B3F1407F8B
:102200007AD1002E7BD1494AD2F8883023F040732E
:10221000A16E0B43C2F88830236813F4003F00F02E
:102220008E80424B9B6D13F0805F6AD13F4B9A6D5D
:1022300042F080529A659B6D03F080530193019B9D
:102240004FF001083A4A136843F480731360FFF7B4
:10225000EFF80546364B1B6813F4807F05D1FFF776
:10226000E7F8401B0228F5D90326002E62D12F4B38
:10227000D3F8903013F4407316D0D4F884209A42E7
:1022800012D02A4AD2F8903023F44073D2F890103A
:1022900041F48031C2F89010D2F8901021F48031CE
:1022A000C2F89010C2F8903013F0010F2CD1002E1C
:1022B00040F043811D4AD2F8903023F44073D4F8A3
:1022C00084100B43C2F8903035E001273E4689E781
:1022D00093B90021201DFFF7EDFD064691E7134A53
:1022E000D36843F48033D3608BE7002104F12000EE
:1022F000FFF798FE064684E701273E468CE73746FF
:102300008AE74FF000089DE7FFF792F80546074B74
:10231000D3F8903013F0020FC9D1FFF789F8401BB2
:1023200041F288339842F2D90326C0E700100240F8
:10233000007000403746B8F1000F40F0008123687C
:1023400013F0010F08D09D4AD2F8883023F0030320
:10235000A16B0B43C2F88830236813F0020F08D03A
:10236000964AD2F8883023F00C03E16B0B43C2F895
:102370008830236813F0040F08D0904AD2F88830D0
:1023800023F03003216C0B43C2F88830236813F02C
:10239000080F08D0894AD2F8883023F0C003616C56
:1023A0000B43C2F88830236813F0100F08D0834A1B
:1023B000D2F8883023F44073A16C0B43C2F8883004
:1023C000236813F0200F08D07C4AD2F8883023F419
:1023D0004063E16C0B43C2F88830236813F4007F3C
:1023E00008D0764AD2F8883023F44023E16D0B43BD
:1023F000C2F88830236813F4806F08D06F4AD2F88F
:10240000883023F44013216E0B43C2F888302368D0
:1024100013F0400F08D0694AD2F8883023F44053B3
:10242000216D0B43C2F88830236813F0800F08D069
:10243000624AD2F8883023F44043616D0B43C2F8FE
:102440008830236813F4807F08D05C4AD2F8883043
:1024500023F44033A16D0B43C2F88830236813F492
:10246000005F0FD0554AD2F8883023F04063E16E08
:102470000B43C2F88830E36EB3F1006F65D0B3F15F
:10248000806F67D0236813F4002F0FD04B4AD2F827
:10249000883023F04063216F0B43C2F88830236FEC
:1024A000B3F1006F5ED0B3F1806F60D0236813F496
:1024B000802F0FD0414AD2F8883023F04063616FFB
:1024C0000B43C2F88830636FB3F1006F57D0B3F19C
:1024D000806F59D0236813F4804F0FD0374AD2F859
:1024E000883023F04053A16F0B43C2F88830A36FAC
:1024F000B3F1805F50D0B3F1005F55D0236813F47F
:10250000004F08D02D4AD2F8883023F08043E16F85
:102510000B43C2F88830236813F4803F09D0274A60
:10252000D2F8883023F00043D4F880100B43C2F86F
:102530008830384602B0BDE8F0813746FBE61F4AD6
:10254000936D23F080539365F9E6D36843F48013C9
:10255000D36097E70121201DFFF7ACFC002891D044
:1025600007468FE7D36843F48013D3609EE70121C9
:10257000201DFFF79FFC002898D0074696E7D368F8
:1025800043F48013D360A5E70121201DFFF792FCDF
:1025900000289FD007469DE70221201DFFF78AFCF7
:1025A0000028ABD00746A9E7022104F12000FFF77D
:1025B00039FD0028A2D00746A0E700BF0010024066
:1025C000F0B583B000233FE0C66A26EA0406C5F3EF
:1025D000C0049C403443C4625FE0062400E0002451
:1025E000B4403C430235644E46F82540634C2568B0
:1025F000D44304EA05064F6817F4803F01D042EA4D
:1026000005065E4D2E606D6804EA05064F6817F4F6
:10261000003F01D042EA0506584D6E60AD6804EAFD
:1026200005064F6817F4801F01D042EA0506534D96
:10263000AE60ED682C404E6816F4001F01D042EAEF
:1026400005044E4AD46001330A6832FA03F400F0FC
:10265000918001249C402240F5D04D686E1E012ED1
:1026600003D9112D01D0122D12D186685F000325E8
:10267000BD4026EA0506CD68BD4035438560466805
:1026800026EA04064D68C5F300159D4035434560B4
:102690004D6805F00306032E96D0C5685F0003243D
:1026A000BC40E44325408E68BE402E43C6604D6862
:1026B000022D01D0122D13D1DE08083650F826E085
:1026C00003F007054FEA850C0F2505FA0CF52EEAF5
:1026D000050E0D6905FA0CF545EA0E0540F8265081
:1026E00005682C404D6805F00305BD402C4304608F
:1026F0004C6814F0805FA6D0214C256E45F0010592
:102700002566246E04F001040194019C9D08AE1C12
:10271000194C54F8267003F00304A6000F24B440AB
:1027200027EA0407B0F1904F3FF459AF154CA0428F
:1027300016D004F58064A04214D004F58064A04251
:1027400012D004F58064A04210D004F58064A04249
:102750000ED004F58064A0423FF43FAF07243FE76A
:1027600001243DE702243BE7032439E7042437E74B
:10277000052435E703B0F0BD00000140000401402E
:1027800000100240000400480AB98162704781616C
:1027900070470000002869D010B403460168344A2D
:1027A000914245D8334A0A443349A1FB0212120927
:1027B00092004264314A0264022283F8252018689C
:1027C000016821F4FF4121F070019A68DC6822431E
:1027D0001C6922435C6922439C692243DC692243D1
:1027E0001C6A22430A4302609A68B2F5804F15D0F2
:1027F000196C224A914226D0214A1168586C00F087
:102800001C040F20A04021EA0001116011685868E3
:102810005C6C04F01C04A040014311600020D863EC
:10282000012283F8252083F824005DF8044B7047CB
:10283000144A0A441049A1FB021212099200426490
:10284000114A0264B8E7A8321168586C00F01C0401
:102850000F20A04021EA00011160116858685C6CEB
:1028600004F01C04A04001431160D7E70120704729
:1028700007040240F8FFFDBFCDCCCCCC00000240E5
:10288000A8040240F8FBFDBF0004024038B5036C09
:10289000196804682568436C03F01C0304229A40FD
:1028A0000A4215D015F0040F12D0236813F0200F40
:1028B00003D1236823F004032360436C03F01C025C
:1028C000016C042393404B60036B03B1984738BD00
:1028D00002229A400A421CD015F0020F19D0236838
:1028E00013F0200F06D1236823F00A03236001238D
:1028F00080F82530436C03F01C02016C02239340E6
:102900004B60002380F82430C36A002BDFD0984747
:10291000DDE7082202FA03F30B42D8D015F0080FC6
:10292000D5D0236823F00E032360436C03F01C030F
:10293000016C012202FA03F34B60C26380F8252088
:10294000002380F82430436B002BC0D09847BEE7AB
:10295000024B186800F4C060704700BF0070004070
:10296000B0F5007F0FD01F4B1B6803F4C063B3F5B5
:10297000806F34D01B4A136823F4C06343F4806330
:10298000136000207047174B1B6803F4C063B3F556
:10299000007F22D0134A136823F4C06343F400730A
:1029A0001360114B1A68322303FB02F30F4AA2FB98
:1029B00003239B0C013300E0013B0A4A526912F4E5
:1029C000806F01D0002BF7D1064B5B6913F4806F49
:1029D00001D100207047032070470020704700207D
:1029E000704700BF007000400800002083DE1B43DA
:1029F000024A536843F4806353607047007000409C
:102A0000074AD36823F4E0631B041B0C000200F4A4
:102A1000E060184340F0BF6040F40030D060704781
:102A200000ED00E030B4174BDB68C3F30223C3F1C1
:102A30000704042C28BF04241D1D062D18D9033BB0
:102A40004FF0FF3505FA04F421EA0401994005FA34
:102A500003F322EA0303194300280BDB0901C9B27F
:102A600000F1604000F5614080F8001330BC704711
:102A70000023E5E700F00F000901C9B2024B195429
:102A8000F4E700BF00ED00E014ED00E0002807DBF4
:102A900000F01F02400901239340024A42F820300F
:102AA000704700BF00E100E00138B0F1807F0AD23A
:102AB000064B5860064AF02182F8231000209860E7
:102AC00007221A6070470120704700BF10E000E045
:102AD00000ED00E00F49D1F8883043F47003C1F8ED
:102AE00088300D4B1A6842F001021A60002098608D
:102AF0001A6822F0A85222F410221A604FF4805271
:102B0000DA601A6822F480221A6098614FF000633C
:102B10008B60704700ED00E00010024000B58BB004
:102B2000002307930893099301930293039304935B
:102B3000059306931E481F4A026043608360C3608A
:102B4000036104224261037643760122C26180F868
:102B5000203042628362C36280F83030436380F881
:102B6000383000F027F9D0B90AA9002341F80C3D0C
:102B70000F4800F08DFEA8B90F4B01930623029376
:102B8000032303937F22049205930023069301A954
:102B9000074800F0A5FA40B90BB05DF804FBFEF75A
:102BA00085F8E1E7FEF782F8E6E7FEF77FF8F3E75E
:102BB0000C050020000004500008302E10B588B02D
:102BC00000230393049305930693079302681B4B1A
:102BD0009A4201D008B010BD03F17043A3F5F83359
:102BE000DA6C42F40052DA64DA6C02F400520092B9
:102BF000009ADA6C42F00102DA64DA6C02F0010247
:102C00000192019ADA6C42F00202DA64DB6C03F0A2
:102C100002030293029B402303930B24049403A911
:102C20004FF09040FFF7CCFC012303930494002362
:102C3000059303A90248FFF7C3FCCBE7000004504B
:102C40000004004808B51248124B0360124B436061
:102C5000002383600122C260036143618361C36119
:102C60000362FEF7FFFB50B900210948FEF758FC4C
:102C700040B900210648FEF781FC30B908BDFEF7D7
:102C800015F8F1E7FEF712F8F3E7FEF70FF8F5E7AE
:102C90007005002000540040EC9C901008B51248CC
:102CA000124B0360124B4360002383600122C26019
:102CB000036143618361C3610362FEF7D3FB50B9D3
:102CC00000210948FEF72CFC40B900210648FEF718
:102CD00055FC30B908BDFDF7E9FFF1E7FDF7E6FF68
:102CE000F3E7FDF7E3FFF5E7BC05002000580040DF
:102CF000EC9C901010B58AB00023059306930793BF
:102D0000089309930368274A934204D0264A9342C2
:102D100024D00AB010BD254CE36C43F00203E364F9
:102D2000E36C03F002030193019B4FF4407305939E
:102D30001223069301230793032308930423099383
:102D400005A91B48FFF73CFCA36D43F40013A365E2
:102D5000A36D03F400130293029BDAE7134CE36CB8
:102D600043F00203E364E36C03F002030393039B69
:102D70004FF4205305931223069301230793032353
:102D800008930423099305A90948FFF719FCA36DCB
:102D900043F48003A365A36D03F480030493049BB1
:102DA000B7E700BF00540040005800400010024048
:102DB0000004004830B583B000230193002800F0E0
:102DC000F5800446436D03B323689A6812F0005FF0
:102DD00005D09A6822F0204222F03F029A602268D1
:102DE000936813F0805F1DD1936823F0104323F0A4
:102DF0003F0343F0805393606D4B1B689B096D4A02
:102E0000A2FB03239B09019309E0FFF7D7FE0023F0
:102E1000A36584F85030D7E7019B013B0193019BE8
:102E2000002BF9D123689A6812F0805F40F0898006
:102E3000626D42F010026265A26D42F00102A2656D
:102E400001209A6812F0040F7DD00121626D12F00A
:102E5000100F40F0A480002940F0A180626D22F4A0
:102E6000817242F0020262659B6813F0010F1BD170
:102E7000514B9B6813F0010F67D001214F4A9268B4
:102E800012F0010F63D001230B434D4A926812F0F8
:102E9000010F5ED00122134306D1636849498A6855
:102EA00022F47C1213438B60627E636B43EA4233ED
:102EB000E2681343A268134394F8202043EA0243D4
:102EC000012A48D0A26A22B102F47072E16A0A4370
:102ED00013432168CD683C4A2A401343CB602368E2
:102EE0009A6812F0040F3BD001219A6812F0080F83
:102EF00038D00122B1B9AAB9217E94F8302052000D
:102F000042EA8131DA6822F4804222F002020A4366
:102F1000DA6094F83830012B26D02268136923F048
:102F2000010313612369012B30D02268136B23F056
:102F30000F031363636D23F0030343F00103636521
:102F400032E000207DE7002180E7002196E70023A2
:102F50009AE700229FE7626A013A43EA4243B1E7F7
:102F60000021C2E70022C5E721680B6923F4FF6353
:102F700023F00403E26B256C2A43656C2A43A56C9D
:102F80002A43134343F001030B61CBE721680B6B2A
:102F900023F00F03E269013A13430B63CAE7636D41
:102FA00043F010036365012003B030BD0120FBE74F
:102FB00008000020632D3E0500000450000104506D
:102FC000000204500003045007C0F0FF2DE9F04157
:102FD0003F4B9F6807F01F074369082B3BD057B151
:102FE000052F08D0092F06D0394B9B6813F4604F8A
:102FF0002BD1042605E00368DB6813F0010F1DD117
:1030000004260D460446FEF713FA804623681A6824
:10301000324222D1B5F1FF3FF8D0FEF709FAA0EB1A
:103020000800A84201D8002DF0D1636D43F00403DD
:103030006365002384F85030032004E0436D43F0BF
:10304000200343650120BDE8F081436D43F0200378
:1030500043650120F7E70826D3E7626D42F400726A
:103060006265DA6812F4406F11D1627E7AB91A682B
:1030700012F0080F0BD0626D22F480726265626DEF
:1030800012F4805F03D1626D42F001026265114A61
:10309000934209D01A46934209D047B1052F06D072
:1030A000092F04D0D26803E0A2F58072F3E7DA6852
:1030B000082E06D012F4804F07D10C221A6000208F
:1030C000C1E708221A600020BDE70020BBE700BF6F
:1030D00000030450000104500368186C704700009E
:1030E000F0B482B00022019290F85020012A00F042
:1030F00018820346012280F850200268926812F07C
:10310000040F0AD0426D42F02002426501200022E5
:1031100083F8502002B0F0BC70474A68052A09D8ED
:10312000023A032A00F28E80DFE802F002828588EC
:103130000C224A601E684D680C6830362A0A9200DC
:1031400002F00C02B05805F01F051F27AF4020EA1F
:103150000700C4F38464AC402043B0501A68906800
:1031600010F0040F71D00120946814F0080F6ED095
:10317000012450BB4CBB0E688D681432700E800069
:1031800000F004001458C6F304560727B74024EA99
:103190000704B5402C4314504C691868C268C2F348
:1031A000C102520004FA02F20D69042D51D00E68DA
:1031B000603050F82570B84C3C4006F0F846324379
:1031C000144344F0004440F825401868826812F027
:1031D000010F16D10A68CD68D0F8B040C2F31206CC
:1031E00024EA060405F01806AC4DF5402A40C2F367
:1031F00012022243C0F8B020C868A94A904200F0E9
:1032000083800A68A7490A4200F08781A649896835
:1032100001F0E074A548824200F01481A448824283
:1032200000F05081A348824200F0648100206EE7E4
:1032300012224A607EE718224A607BE74FF48072D0
:103240004A6077E706224A6074E700208CE7002492
:103250008FE7026E046EC4F384640A68C2F3120539
:103260007DBBC2F38462944230D01C68626E606E93
:10327000C0F384600A68C2F3120565BBC2F38462BE
:1032800090422DD01C68A26EA06EC0F384600A68C4
:10329000C2F312054DBBC2F3846290422AD01C686F
:1032A000E26EE06EC0F384600A68C2F3120535BBBB
:1032B000C2F38462904288D1E26E22F00042E2665C
:1032C00083E792FAA2F2B2FA82F2CCE7026E22F01F
:1032D00000420266C9E792FAA2F2B2FA82F2CFE79E
:1032E000626E22F000426266CCE792FAA2F2B2FA73
:1032F00082F2D2E7A26E22F00042A266CFE792FAF3
:10330000A2F2B2FA82F2D5E71D680A68C2F3120689
:1033100096BB900E013000F01F0009288CBF0020E2
:103320000120002852D09EBB940E0134A40604F064
:10333000F844B6BB900E013000F01F070120B840E2
:103340000443C6BB920E013202F01F0202EB42029E
:10335000120522438C681435500E800000F00400E2
:103360002E58C2F304520727974026EA070604FAAC
:1033700002F232432A5044E792FAA2F0B0FA80F007
:10338000013000F01F0009288CBF00200120C8E791
:1033900092FAA2F4B4FA84F40134A40604F0F844D6
:1033A000C7E792FAA2F0B0FA80F0013000F01F07F0
:1033B0000120B840C4E792FAA2F2B2FA82F20132D6
:1033C00002F01F0202EB42021205C2E7CEB9940ED0
:1033D0000134A40604F0F844E6B9900E013000F080
:1033E0001F070120B8400443F6B9900E013000F0E9
:1033F0001F0000EB40021E3A120542F00072224309
:10340000A8E792FAA2F4B4FA84F40134A40604F012
:10341000F844E1E792FAA2F0B0FA80F0013000F04F
:103420001F070120B840DEE792FAA2F0B0FA80F060
:10343000013000F01F0000EB40021E3A120542F07E
:103440000072DCE711F4000F7FF4E8AE1A681A4945
:103450008A4205D001F500718A4201D0002056E66B
:1034600044F4000410498A6822F0E07214438C602E
:10347000124A126892091249A1FB0212920902EB48
:1034800042029100019102E0019A013A0192019AEF
:10349000002AF9D100203AE600F0FF03FFFF070001
:1034A00000007F400000088000030450000052C765
:1034B000000084CB010000800000045008000020C0
:1034C000632D3E0511F0807F7FF4ACAE1A6816497B
:1034D0008A4205D001F500718A4201D0002016E62B
:1034E00044F080721148816821F0E0710A438260E3
:1034F00000200CE611F4800F11D119680A4A91429C
:1035000001D0002003E644F480020848816821F0DD
:10351000E0710A4382600020F9E50020F7E5002011
:10352000F5E50220F6E500BF00000450000304505A
:1035300070B5044603689A6812F0040F52D0012057
:103540009A6812F0080F4FD0012208B9002A6BD0F8
:10355000DA6812F0007F04D0208B40F20112904212
:103560004ED0022910D023689A6812F0040F0BD0B5
:103570009A6812F0020F07D19A6822F0004222F0F6
:103580003F0242F010029A60012910D023689A6825
:1035900012F0080F0BD09A6812F0020F07D19A6848
:1035A00022F0004222F03F0242F020029A600229FB
:1035B00036D0032932D10C25FDF73AFF06462368A1
:1035C0009B682B422ED0FDF733FF801B0528F6D9D0
:1035D000636D43F010036365A36D43F00103A365BE
:1035E000012020E00020ABE70022AEE7636D43F04E
:1035F00010036365A36D43F00103A365012012E08E
:103600000022196811F0400F04D108498A42EDD810
:103610000132F6E740221A600121A4E70425CBE736
:103620000825C9E7002070BD0020FCE7FFFF3FA38D
:1036300038B503689A6812F0010F3DD199681F4AA6
:10364000114209D0436D43F010034365836D43F08D
:1036500001038365012030E004469A6822F00042AD
:1036600022F03F0242F001029A60FDF7E1FE0546BA
:1036700004E0FDF7DDFE401B022811D823681A681C
:1036800012F0010F16D19A6812F0010FF1D19A6869
:1036900022F0004222F03F0242F001029A60E8E785
:1036A000636D43F010036365A36D43F00103A365ED
:1036B000012002E0002000E0002038BD3F00008033
:1036C00038B53B4B9D6803689B6813F0040F6AD1C3
:1036D00005F01F0590F85030012B67D004460123F8
:1036E00080F85030FFF7A4FF0346002857D1626DE1
:1036F00022F4706222F0010242F480726265226854
:103700002C498A422FD011468A4200D01DB9616DE2
:1037100021F480116165616D11F4805F26D0A16D87
:1037200021F00601A1651C211160002284F85020BF
:103730002168204A91421CD00A4691421CD0DDB13A
:10374000052D19D0092D17D0616D41F480116165E7
:10375000D26812F0007F27D0626D22F4405242F40A
:103760008052626520E0A1F58071CDE70021A1655E
:10377000D9E7A2F58072E0E7CA6812F0007F05D0B1
:10378000626D22F4405242F4805262658A6822F0EF
:10379000004222F03F0242F004028A6004E000226C
:1037A00084F8502000E00223184638BD0223FBE7CE
:1037B000000304500001045038B503689A6812F001
:1037C000020F15D001219A6812F0010F37D000299D
:1037D00037D19A6802F00D02012A0BD0436D43F0F5
:1037E00010034365836D43F001038365012027E0E7
:1037F0000021E8E704469A6822F0004222F03F02E6
:1038000042F002029A60036803221A60FDF710FE7C
:10381000054623689B6813F0010F0ED0FDF708FEE4
:10382000401B0228F5D9636D43F010036365A36D57
:1038300043F00103A365012002E0002000E0002026
:1038400038BD0020FCE790F85030012B1DD010B59A
:103850000446012380F850300321FFF769FE034638
:1038600020B1002284F85020184610BD2046FFF7F2
:10387000A3FF03460028F4D1626D22F4885222F09F
:10388000010242F001026265EBE70223184670472D
:1038900090F85020012A00F0958030B49AB0034689
:1038A000012280F850200268474882423FD0002021
:1038B0000190019800283ED0806810F0040F43D09A
:1038C0000120926812F0040F6DD100286BD10A68B4
:1038D000002A41D03D4CA26822F46042486893F827
:1038E000305040EA45300243A260374A926812F0F5
:1038F000010F2BD00120364A926812F0010F27D019
:10390000012202433348806810F0010F22D00120C9
:10391000024353D12D4CA26822F4716222F00F02AF
:103920000868896801430A43A260002040E000F56E
:1039300080700190BDE75A6D42F020025A65002266
:1039400083F85020012036E00020BAE70020D2E7BB
:103950000022D6E70020DBE71C48816821F46041A3
:1039600081601949896811F0010F18D001201849A8
:10397000896811F0010F14D00121014315488068B6
:1039800010F0010F00D001220A4319D10F498A68B3
:1039900022F4716222F00F028A60002008E01046D3
:1039A000E5E71146E9E75A6D42F020025A65012029
:1039B000002283F850201AB030BC70470020F7E78F
:1039C0000020F5E702207047000004500003045077
:1039D0000001045000020450002301330C4A9342BA
:1039E00011D80269002AF8DA036943F00103036180
:1039F00000230133064A934207D8026912F0010FEF
:103A0000F7D100207047032070470320704700BFA4
:103A1000400D030084B010B5044603A880E80E00F2
:103A2000089B012B1CD1A36B23F48033A363E368B1
:103A300023F4840323F04003E360E36823F440139A
:103A4000E3600F9B012B06D02046FFF7C5FFBDE8C2
:103A5000104004B07047E36843F48013E360F3E779
:103A6000E36843F04003E3602046FFF7B5FF0C9B9B
:103A700023B1A36B23F48033A363E8E7A36B43F480
:103A80008033A363E3E70000022A0AD00921C26859
:103A900022F47052C260C36843EA8123C3600020ED
:103AA00070472A4B0B442A4A93423FD9294B0B4477
:103AB000294A93423CD9A1F57403A3F51053274A30
:103AC000934237D9A1F18373A3F5E74302F5C332DB
:103AD000A032934230D9224B0B44224A93422DD933
:103AE000214B0B4402F5922202F57872934227D9BA
:103AF0001E4B0B4402F5C32202F52072934221D9DA
:103B0000A1F1B773A3F5585302F5B71202F5587235
:103B1000934219D9164B0B4402F5122202F5F862B2
:103B2000934201D90621B2E70721B0E70F21AEE7A2
:103B30000E21ACE70D21AAE70C21A8E70B21A6E78F
:103B40000A21A4E70921A2E70821A0E7405327FFA3
:103B5000FF340C00401E1BFF3F420F007F4F12003E
:103B600060B6E5FE5FE3160000D3CEFEC05BB3FE99
:103B7000E05459FE836843F00103836000207047DE
:103B8000836823F0010383600020704708B5C36891
:103B900023F0C043C360012909D069B9C36843F069
:103BA0008043C3603220FDF749FC002008BDC36894
:103BB00043F00053C360F5E70120F7E7890141F0C6
:103BC0002001016100230133054A934205D80269AF
:103BD00012F0200FF7D1002070470320704700BF7C
:103BE000400D03001023036100230133054A934273
:103BF00005D8026912F0100FF7D10020704703209A
:103C0000704700BF400D0300D0F800381943C0F8DA
:103C1000001800207047000084B02DE9F0410446F0
:103C200007A880E80E002546002306E003F14002C5
:103C300004EB82020021516001330E2BF6D9119B57
:103C40008BBBD4F8043843F00203C4F80438A36BE8
:103C500023F40013A363236843F040032360236825
:103C600043F0800323600023C4F8003E04F500669F
:103C7000D4F80038C4F8003803212046FFF7C4FF09
:103C800010212046FFF79AFF804608B14FF0010847
:103C90002046FFF7A7FF08B14FF00108002333616A
:103CA0007361F3610FE0A36B43F40013A363DAE7DE
:103CB000C3B94FF00060C2F8000900220A614FF654
:103CC0007F328A6001330799994210D905EB43127C
:103CD00002F51061D2F800090028E9DB0020C2F8E3
:103CE0000009EAE74FF09040C2F80009E5E7002339
:103CF0000AE0BBB14FF09047C2F8007B002202619E
:103D00004FF67F3282600133994210D905EB43129E
:103D100002F53060D2F8007B002FEADB0027C2F802
:103D2000007BEBE74FF00067C2F8007BE6E7336902
:103D300023F4807333610023A3616FF080436361D8
:103D4000A36943F01003A361A2690C4B1343A36161
:103D50000D9B1BB1A36943F00803A361119B012BC9
:103D600004D04046BDE8F04104B07047A36943F079
:103D7000804343F00403A361F3E700BF00383C80B5
:103D8000D0F8083803F00603022B05D0062B01D02B
:103D90000F207047022070470220704770B40B78E4
:103DA0004A78012A22D0D0F81C2803F00F060124FB
:103DB000B44042EA0442C0F81C2800EB4310D0F89B
:103DC000003B13F4004F0ED1D0F8003B8A68C2F3D9
:103DD0000A02C97842EA8142134343F0805343F414
:103DE0000043C0F8003B002070BC7047D0F81C486E
:103DF00003F00F06B24092B22243C0F81C2800EB39
:103E00004310D0F8002912F4004FECD1D0F800296B
:103E10008C68C4F30A04C97844EA814444EA8353B1
:103E2000134343F0805343F40043C0F80039DAE70A
:103E300030B40B784A78012A24D000EB4313D3F82E
:103E4000002B002A50DBD0F83C580A7802F00F0211
:103E5000012404FA02F225EA0242C0F83C28D0F814
:103E60001C28097801F00F018C4022EA0444C0F8B4
:103E70001C48D3F8001B234A0A40C3F8002B00203B
:103E800030BC704700EB4313D3F80029002A1EDB37
:103E9000D0F83C580A7802F00F02012404FA02F22A
:103EA00092B225EA0202C0F83C28D0F81C28097812
:103EB00001F00F018C40A4B222EA0404C0F81C48AF
:103EC000D3F80019104A0A40C3F80029D7E7D3F8FD
:103ED000002942F00062C3F80029D3F8002942F01B
:103EE0008042C3F80029D3E7D3F8002B42F00062E8
:103EF000C3F8002BD3F8002B42F08042C3F8002B0C
:103F0000A1E700BF0078F3EF007833EC0B784A7834
:103F1000012A23D000EB431000F530631A69D20C5C
:103F2000D2041A611A6922F0FF5222F4C0121A61F7
:103F30004A690AB18A684A611A6942F400221A6120
:103F40001A698968C1F312010A431A61D0F8003B6B
:103F500043F00443C0F8003B0020704730B44A6986
:103F600062BB00EB4312D2F8104924F0FF5424F452
:103F7000C014C2F81049D2F8104944F40024C2F821
:103F80001049D2F81049E40CE404C2F8104900EBDF
:103F90004313D3F8002942F00442C3F800294B69C7
:103FA0004BB1D0F834380A7802F00F0101228A4070
:103FB0001343C0F83438002030BC704700EB431284
:103FC00002F510621469E40CE4041461146924F02D
:103FD000FF5424F4C01414614D698C68A54200D9C3
:103FE0004C61146944F40024146114694D69C5F3EB
:103FF00012052C431461CAE770B403339B080025F3
:1040000007E000EB023404F5805451F8046B26609D
:1040100001359D42F5D3002070BC704770B50B7818
:104020004A78012A27D000EB431303F53062146964
:10403000E40CE4041461146924F0FF5424F4C01463
:1040400014614C69002C40F0938014698D68C5F3AD
:1040500012052C431461146944F400241461CA78D5
:10406000012A00F09A80D3F8002B42F00442C3F8F2
:10407000002B002070BD4A6972BB00EB4312D2F8DE
:10408000104924F0FF5424F4C014C2F81049D2F8A7
:10409000104944F40024C2F81049D2F81049E40C45
:1040A000E404C2F8104900EB4313D3F8002942F0AE
:1040B0000442C3F80029CA78012A41D04B69002B79
:1040C000D7D0D0F834380A7802F00F0101228A40A4
:1040D0001343C0F83438CCE700EB4312D2F8104950
:1040E000E40CE404C2F81049D2F8104924F0FF545B
:1040F00024F4C014C2F81049D2F810594C698E68E3
:104100003444013CB4FBF6F42D4E06EAC4442C437F
:10411000C2F81049D2F810494D69C5F312052C4375
:10412000C2F8104902F51062CC78012CBBD1146999
:1041300024F0C0441461146944F000541461B2E7DF
:10414000D0F8082812F4807F0BD1D3F8002942F070
:104150000052C3F800298B8A0A78C968FFF74CFF20
:1041600087E7D3F8002942F08052C3F80029F2E72C
:104170008D682C44013CB4FBF5F41569104E06EA39
:10418000C4463543156116698D68A4B205FB04F475
:10419000C4F312043443146161E7D0F8082812F420
:1041A000807F06D1D3F8002B42F00052C3F8002BD9
:1041B00059E7D3F8002B42F08052C3F8002B52E7A6
:1041C0000000F81F03329208002393420CD210B46F
:1041D00000F58054246841F8044B01339342F7D32F
:1041E00008465DF8044B7047084670470B784A78DC
:1041F000012A14D000EB4310D0F8002B002A06DB74
:104200002BB1D0F8003B23F08043C0F8003BD0F83E
:10421000003B43F40013C0F8003B0020704700EB64
:104220004310D0F80029002A06DB2BB1D0F8003962
:1042300023F08043C0F80039D0F8003943F400136C
:10424000C0F80039E9E70B784A78012A0ED000EB74
:104250004310D0F8003B23F40013C0F8003BCB78A8
:10426000023BDBB2012B15D90020704700EB431055
:10427000D0F8003923F40013C0F80039CB78023BA2
:10428000DBB2012BF0D8D0F8003943F08053C0F8EE
:104290000039E9E7D0F8003B43F08053C0F8003B19
:1042A000E2E7D0F8003823F4FE63C0F80038D0F815
:1042B0000038090101F4FE610B43C0F8003800200A
:1042C000704708B5D0F8043823F00203C0F804386A
:1042D0000320FDF7B3F8002008BD08B5D0F8043876
:1042E00043F00203C0F804380320FDF7A7F80020CC
:1042F00008BD4269806910407047D0F8183800F551
:104300000060C0691840000C7047D0F8183800F5FC
:104310000060C069184080B2704700EB4111D1F8CD
:10432000082B00F5006040691040704710B4D0F8C9
:104330001048D0F8343801F00F02D340DB01DBB273
:10434000234300EB411000F51060806818405DF8D1
:10435000044B7047406900F001007047D0F8003905
:1043600023F4FF6323F00703C0F80039D0F80438C2
:1043700043F48073C0F8043800207047026C0F4B80
:104380009A4203D9D0F8003B002B14DB0023C0F87D
:10439000103BD0F8103B43F40023C0F8103BD0F89A
:1043A000103B43F01803C0F8103BD0F8103B43F02B
:1043B000C043C0F8103B0020704700BF0A30544F84
:1043C00008B500220F49104801F002F870B90F49F2
:1043D0000D4801F014F860B90D490B4801F056FE84
:1043E00050B9094801F012F848B908BDFCF75EFC65
:1043F000EDE7FCF75BFCEFE7FCF758FCF1E7FCF7B7
:1044000055FCF2E70C000020080600207C0000208C
:104410006C00002008B5FCF7E7FB08BD10B588B0BC
:104420000023039304930593069307930368B3F162
:10443000A04F01D008B010BD1F4CE36C43F0010346
:10444000E364E36C03F001030093009B4FF4C0535B
:10445000039302230493032306930A23079303A9D8
:104460004FF09040FEF7ACF8E36C43F48053E36404
:10447000E36C03F480530193019BA36D13F0805F01
:1044800017D1A36D43F08053A365A36D03F0805350
:104490000293029BFEF7ACFAA36D23F08053A36551
:1044A000002211464320FEF7BDFA4320FEF7EEFA44
:1044B000C0E7FEF79DFAF3E70010024008B500F5EB
:1044C0007171D0F8040400F0BAFF08BD08B5C1EB63
:1044D000C10293000344D3F80822D0F8040400F08A
:1044E000DBFF08BD08B5C1EBC102930003449A6C21
:1044F000D0F8040401F019F808BD08B5D0F8040498
:1045000001F0BBF808BD10B50446C368022B01D00A
:10451000FCF7CCFB0121D4F8040401F097F8D4F89F
:10452000040401F06BF810BD10B504460268D2F81F
:10453000003E43F00103C2F8003ED0F8040401F04D
:1045400088F8236A23B1034A136943F00603136111
:1045500010BD00BF00ED00E010B504460268D2F8BF
:10456000003E23F00103C2F8003E036A23B9D4F8E9
:10457000040401F077F810BD034A136923F0060321
:104580001361FFF747FFF2E700ED00E008B5D0F850
:10459000040401F082F808BD08B5D0F8040401F065
:1045A0007AF808BD08B5D0F8040401F078F808BD21
:1045B00008B5D0F8040401F074F808BD03780BB115
:1045C0000020704710B503461548C0F80434C3F8FE
:1045D000C0024FF0A0430360062343600223C36080
:1045E00083610023C3610362436283620363C36226
:1045F00000F01EFA80B90A4C8021204600F0D1FE5E
:1046000040220021204600F0A8FE80220121204601
:1046100000F0A3FE002010BDFCF748FBEBE700BF55
:10462000CC08002008B5D0F8C00200F099FA18B103
:10463000022803D0022008BD0020FCE70120FAE791
:1046400010B51C4613462246D0F8C00200F04CFDBF
:1046500018B1022803D0022010BD0020FCE7012081
:10466000FAE708B5D0F8C00200F07FFD18B10228C3
:1046700003D0022008BD0020FCE70120FAE708B5BE
:10468000D0F8C00200F0F2FD18B1022803D00220D9
:1046900008BD0020FCE70120FAE708B5D0F8C00209
:1046A00000F024FE18B1022803D0022008BD00202B
:1046B000FCE70120FAE7D0F8C03211F0800F08D1F2
:1046C00001F07F01C1EBC1018A00134493F8FE01A0
:1046D000704701F07F01C1EBC1018A00134493F8D8
:1046E0003E00704708B5D0F8C00200F0E9FC18B1F0
:1046F000022803D0022008BD0020FCE70120FAE7D1
:1047000008B5D0F8C00200F092FD18B1022803D01D
:10471000022008BD0020FCE70120FAE708B5D0F828
:10472000C00200F059FD18B1022803D0022008BDD4
:104730000020FCE70120FAE708B5D0F8C00200F03D
:104740006DFD08BD10B5044611B1012916D010BD8C
:10475000036A5BB92268D2F8003E23F00103C2F875
:10476000003ED4F8040400F07DFFF0E7FFF752FEAE
:104770000C4A136923F006031361EBE70268D2F8D1
:10478000003E43F00103C2F8003ED0F8040400F0FC
:1047900060FF236A002BDAD0024A136943F0060354
:1047A0001361D4E700ED00E0004870475C02002090
:1047B0007047000012230B8000487047380000202B
:1047C00004230B80004870474C0000200C230B8012
:1047D000004870472C0000200023934216D230B4CA
:1047E0000BE0373401F8134000015C000134002570
:1047F0000D550133DBB2934206D2040F092CF0D8D9
:10480000303401F81340EFE730BC704770470000C8
:1048100038B50A4B186804331C6804331B68C01889
:1048200000D138BD064D0822A91CFFF7D5FF042290
:1048300005F112012046FFF7CFFFF2E79075FF1F49
:104840005000002008B51A230B80FFF7E1FF014854
:1048500008BD00BF5000002008B50A4628B1054930
:10486000054801F067FA034808BD0249024801F013
:1048700061FAF8E7D40C0020187B000810B5044C4E
:104880000A462146034801F055FA204610BD00BFF4
:10489000D40C00200C7B000808B50A4628B1054955
:1048A000054801F047FA034808BD0249024801F0F3
:1048B00041FAF8E7D40C0020F07A000808B50A465F
:1048C00028B10549054801F035FA034808BD0249F9
:1048D000024801F02FFAF8E7D40C0020FC7A000817
:1048E000002070470020704770B504460E46074D03
:1048F0000146284601F0D9FB284601F0F6FB316855
:10490000204601F06FFC002070BD00BF08060020AB
:1049100010B5064C00220649204601F0BEFB0549B1
:10492000204601F0C2FB002010BD00BF0806002099
:10493000D4160020D40E0020094BD3F8B832D3F897
:1049400014320BB10120704710B50A460146044CE1
:10495000204601F0A2FB204601F0ADFB10BD00BFD8
:10496000080600202DE9F0470768CA00521A930094
:1049700003445A6D1B6D9A4255D8B8469B1AC1EB39
:10498000C104A2000244526C9A4200D31A460C465B
:10499000064602F1030A4FEA9A0A14E009F1030AF3
:1049A0004FEA9A0AE3001B1B9D0035441FFA89F366
:1049B000E2B2A96C3846FFF71FFBAB6C4B44AB640B
:1049C0006B6D4B446B6508EB441303F510639B69F7
:1049D0009BB2534513D3E3001B1B9A003244516D25
:1049E000136D99420BD253B15B1AC4EBC4018A0018
:1049F0003244D2F844909945D0D39946CEE7E300AB
:104A00001B1B98000644326D736D9A420ED804F059
:104A10000F040121A140D7F8344824EA0104C7F863
:104A20003448002000E00120BDE8F0870020FBE7CB
:104A3000F0B58BB0002800F091800446056890F82E
:104A4000BD3323B3032384F8BD33EB6B13F4807FB2
:104A500001D1002323612068FFF792F8254655F81D
:104A6000107B6E460FCD0FC60FCD0FC695E8030025
:104A700086E80300231D0ECB3846FEF7CBFF58B166
:104A8000022384F8BD33012528460BB0F0BD80F821
:104A9000BC33FFF7C3FCD5E700212068FFF776F8A9
:104AA000002315E0D900C81A82002244012082F8B0
:104AB0003D0082F83C30A2F84230002082F83F00EE
:104AC00050649064CA1A9100214408650133DBB236
:104AD0006568AB42E6D3002315E0D800C11A8A000E
:104AE0002244002182F8FD1182F8FC3182F8FF1186
:104AF000C2F80412C2F80812C21A90002044C0F88A
:104B000010120133DBB29D42E7D8254655F8107BE1
:104B10006E460FCD0FC60FCD0FC695E8030086E891
:104B20000300231D0ECB3846FFF776F8054660B923
:104B3000002384F83830012384F8BD33636A012BE5
:104B400008D02068FFF7C9FB9EE7022384F8BD3335
:104B5000012599E7204600F028FCF2E7012593E7BC
:104B6000026890F8BC33012B16D010B5012380F8F1
:104B7000BC33836A012B0AD004460068FFF7A1FB0F
:104B80002068FEF7F7FF002084F8BC0310BD936B8C
:104B900043F480339363EFE70220704738B503682E
:104BA0001C6C03EB411303F530639D680B4A944280
:104BB0000FD115F4004F08D115F0200F01D020229D
:104BC0009A60C9B2FFF782FC06E04FF400429A6097
:104BD00002E0C9B2FFF77AFC002038BD0A31544F19
:104BE00010B503681A6C03EB4111D1F8084B074B61
:104BF0009A4207D901F5306114F4004F02D04FF406
:104C000000438B60FFF75AFC002010BD0A30544F60
:104C10002DE9F84F044605682846FFF79BFB08B1CD
:104C2000BDE8F88F2F4606462068FFF762FB002894
:104C3000F6D02068FFF75DFB10F0020F04D0226869
:104C4000536903F0020353612068FFF752FB10F031
:104C5000100F15D02268936923F010039361D5F8E3
:104C6000208008F00F09C8F34343022B00F0858031
:104C7000062B00F0A5802268936943F0100393612E
:104C80002068FFF736FB10F4002F40F0AD8020685D
:104C9000FFF72FFB10F4802F40F0F1802068FFF722
:104CA00028FB0028C0F243812068FFF722FB10F4A4
:104CB000006F0AD0D5F8083813F0010F40F0518189
:104CC0002268536903F4006353612068FFF711FB06
:104CD00010F0006F15D02268536903F00063536130
:104CE00094F8F433002B40F04081012184F8F41350
:104CF00023685B6DC3F38303C4F8F8332046FFF7E2
:104D000021FD2068FFF7F5FA10F4805F40F0318153
:104D10002068FFF7EEFA10F4005F40F08F81206802
:104D2000FFF7E7FA10F0080F40F0A0812068FFF7C6
:104D3000E0FA10F4801F40F0A2812068FFF7D9FA52
:104D400010F4001F40F0A5812068FFF7D2FA10F0A0
:104D5000804F40F0A8812068FFF7CBFA10F0040FD5
:104D60003FF45EAF23685D6815F0040F40F0A48146
:104D7000226853682B43536052E747F6F07318EAF2
:104D8000030F3FF478AF4FEAC90BABEB09034FEACF
:104D9000830AA2444FEA1818C8F30A02DAF8081284
:104DA0002846FFF70FFAC8F30A08DAF80832434436
:104DB000CAF80832DAF814324344CAF814325AE70F
:104DC000082204F571712846FFF7FCF9C8F30A18A8
:104DD0004FEAC903A3EB09018A002244D2F8143236
:104DE0004344C2F8143246E72068FFF786FA80464B
:104DF000B14617E007EB49130122C3F8082B4946D7
:104E00002046FFF7CBFE1DE007EB49130822C3F84D
:104E1000082B49462046FFF7E3FE16E009F1010999
:104E20004FEA5808B8F1000F3FF431AF18F0010F06
:104E3000F4D05FFA89F12068FFF76FFA824610F02C
:104E4000010FD7D11AF0080FDED11AF0100F04D0DD
:104E500007EB49131022C3F8082B1AF0200F04D0D7
:104E600007EB49132022C3F8082B1AF4005FD5D0B2
:104E700007EB49134FF40052C3F8082BCEE7206824
:104E8000FFF743FA8046B1461AE009F00F0301210B
:104E900001FA03F2D7F8343823EA0203C7F83438AA
:104EA00007EB4913C3F8081959462046FFF71AFBC8
:104EB00017E01AF0800F35D109F101094FEA5808BF
:104EC000B8F1000F3FF4EAAE18F0010FF4D05FFA2A
:104ED00089FB59462068FFF729FA824610F0010F36
:104EE000D3D11AF0080F04D007EB49130822C3F8F6
:104EF00008291AF0100F04D007EB49131022C3F849
:104F000008291AF0400F04D007EB49134022C3F8D8
:104F100008291AF0020FCCD007EB49130222C3F87C
:104F20000829C6E749462046FFF71CFDC4E7D5F827
:104F3000043823F00103C5F8043894F8F433012B46
:104F400008D02046FFF708FB2268536903F00043AE
:104F50005361A9E6002184F8F4132046FFF7F2FB21
:104F6000F2E72046FFF7E0FAAAE62046FFF7DCFA70
:104F7000C7E605F50068D8F8043023F00103C8F847
:104F8000043010212068FEF719FE20E007EB4613DD
:104F90004FF67F31C3F80819D3F8002922F4001224
:104FA000C3F80029D3F8002942F00062C3F80029B1
:104FB000C3F8081BD3F8002B22F40012C3F8002B0F
:104FC000D3F8002B42F00062C3F8002B013663686F
:104FD000B342DBD8D8F81C3043F00113C8F81C30BA
:104FE000236BE3B1D8F8843043F00B03C8F8843066
:104FF000D8F8443043F00B03C8F84430D5F80038F3
:1050000023F4FE63C5F8003804F571712068FFF7DA
:10501000B5F92268536903F48053536178E6D8F8F0
:10502000143043F4005343F02B03C8F81430D8F87D
:10503000103043F00B03C8F81030DFE72068FFF7AB
:105040008DF92068FEF79CFEE0602568FCF72CFFD8
:10505000227B01462846FEF717FD2046FFF753FA4C
:105060002268536903F40053536158E62046FFF762
:1050700044FA2268536903F00803536156E600219D
:105080002046FFF789FA2268536903F480135361BD
:1050900053E600212046FFF779FA2268536903F4AA
:1050A0000013536150E62046FFF77CFA22685369EB
:1050B00003F0804353614EE62046FFF779FA57E646
:1050C00090F8BC33012B0DD010B50446012380F8B5
:1050D000BC3380F838100068FFF7E3F8002084F84C
:1050E000BC0310BD02207047F8B511F0800F28D125
:1050F00001F00F06F500AF1BBC00274604F5FC7459
:10510000044404343E460644002586F8FD5101F06F
:105110000F012170A260E370627802B1E180022B7E
:105120001ED090F8BC33012B1DD00546012380F81A
:10513000BC3321460068FEF731FE002085F8BC0331
:10514000F8BD01F00F06F500AF1BBC002746383450
:10515000044404343E460644012586F83D50D6E713
:1051600000232371DDE70220EAE738B511F0800F54
:1051700021D101F00F05EA00541BA3001C4603F5E2
:10518000FC730344043325460544002285F8FD21C1
:1051900001F00F01197090F8BC23012A1AD00446BF
:1051A000012280F8BC2319460068FEF741FE00206A
:1051B00084F8BC0338BD01F00F04E200151BAB00FE
:1051C0001D463833034404332C460444012284F83A
:1051D0003D20DDE70220EDE7F8B501F00F05EE0018
:1051E000711B8C0004F5FC740444211D771BBC006A
:1051F0000444C4F80822C4F810320023C4F814325E
:1052000084F8FD3184F8FC5125B10068FEF706FFF3
:105210000020F8BD0068FEF779FEF9E701F00F0104
:10522000C1EBC1018B001844D0F814027047F8B5E7
:1052300001F00F05EE00711B8C0038340444211D71
:10524000771BBC000444A26423650023636501232B
:1052500084F83D3084F83C5025B10068FEF7DEFE4E
:105260000020F8BD0068FEF751FEF9E738B501F0FF
:105270000F0543689D4235D811F0800F20D1CA0038
:10528000541AA3001C4603F5FC730344043322465E
:105290000244002182F8FD1101229A701D7090F8DD
:1052A000BC23012A20D00446012280F8BC231946E1
:1052B0000068FEF79BFF7DB1002084F8BC0312E07C
:1052C000EA00511B8B001946383303440433014470
:1052D000012281F83D20DFE704F571712068FFF7B6
:1052E0004DF8E9E7012038BD0220FCE710B501F0D8
:1052F0000F0443689C422CD811F0800F1DD1E300AD
:105300001A1B91000A4601F5FC7101440431024464
:10531000002382F8FD3100238B700C7090F8BC33B1
:10532000012B18D00446012380F8BC330068FEF737
:105330008AFF002084F8BC030CE0E3001A1B9100F4
:105340000A463831014404310244012382F83D30D9
:10535000E1E7012010BD0220FCE730B40468606A78
:1053600029B10D46A36A00EB134000230CE040EA8C
:105370000240A06212E003F1400104EB81014968A0
:1053800000EB11400133DBB2691E8B42F3D340EADC
:10539000024005F13F0104EB81014860002030BC70
:1053A0007047036859620020704703460268012174
:1053B000C0F8FC13002083F8F403936943F0006302
:1053C0009361536D43F0805343F00303536570477B
:1053D00098B108B50346D0F8B40210B10020C3F864
:1053E000B40209B1C3F8B0121846012380F89C3208
:1053F0000270FFF7E3F8002008BD0220704719B1E2
:10540000C0F8B412002070470220704708B5FFF7BB
:1054100009F9002008BD08B5D0F8B43233B11B68D3
:10542000984708B9002008BD0220FCE70220FAE7EF
:1054300008B5D0F8B4325B689847002008BD38B58D
:10544000044600F52A75284600F04AF90123C4F8FD
:105450009432B4F8AE32C4F8983294F8A81201F03D
:105460001F03012B0ED03BB1022B10D001F08001A5
:105470002046FFF704F903E02946204600F0EFFA42
:10548000002038BD2946204600F01DFBF8E72946DC
:10549000204600F048FBF3E738B50446A1BB1046B0
:1054A000D4F89432032B03D0052B24D0002037E00E
:1054B000D4F86031D4F8642193420DD99B1AC4F812
:1054C00060319A4206D99AB20146204600F072FC39
:1054D000002025E092B2F7E7D4F8B4321B692BB173
:1054E00094F89C22032A01D120469847204600F0D8
:1054F00069FC002014E00025C4F894522946204697
:10550000FFF7BDF828460BE00A46D0F8B4329B6995
:105510003BB190F89C12032905D111469847002011
:1055200038BD0220FCE70220FAE710B50446002946
:1055300053D11046D4F89432022B0CD0042B00D057
:105540001BB980212046FFF79AF894F8A032012B6E
:105550003FD000204DE0236A626A93421DD8E16982
:10556000B1FBF2F302FB13132BB98A4203D8D4F830
:10557000983299421FD3D4F8B432DB682BB194F837
:105580009C22032A01D12046984780212046FFF71C
:1055900076F8204600F021FCD7E79A1A226292B2F0
:1055A0000146204600F0EFFB00231A46194620462C
:1055B000FFF7B4F8C9E700221146204600F0E3FBEC
:1055C0000021C4F898120B460A462046FFF7A6F8B9
:1055D000BBE7002084F8A0020BE00A46D0F8B43202
:1055E0005B693BB190F89C12032905D1114698479D
:1055F000002010BD0220FCE70220FAE770B5044647
:10560000402300221146FFF71BF80125C4F858512A
:105610004026C4F864613346002280212046FFF70B
:105620000FF8A561666284F89C520023C4F8943296
:105630006360C4F8A432D4F8B8322BB1D4F8B432D1
:105640005B68002120469847002070BD017400204F
:10565000704790F89C3280F89D32042380F89C3289
:105660000020704790F89C32042B01D00020704736
:1056700090F89D3280F89C32F8E708B590F89C329B
:10568000032B01D0002008BDD0F8B432DB69002B19
:10569000F8D09847F6E700207047002070470020B8
:1056A000704708B5012280F89C22D0F8B4225268D5
:1056B00001799047002008BD002302E00133DBB2EE
:1056C00001300278002AF9D11846704708B54B8896
:1056D000012B00D008BDC0F8A43200F073FBF9E73D
:1056E0000B7803704B7843708B78CA7803EB0223F6
:1056F00043800B794A7903EB022383808B79CA7943
:1057000003EB0223C380704710B504468021FEF7E7
:10571000B6FF00212046FEF7B2FF10BD30B583B0C2
:1057200005460C460023ADF806304A88130A013BB3
:105730000E2B00F2B580DFE803F015293DB3B397D7
:10574000A4B3B3B3B3B3B3B30800D0F8B032DB69DA
:1057500023B10DF10601007C98470AE02146FFF7CE
:10576000D3FF11E0D0F8B0321B680DF10601007CC8
:105770009847BDF806201AB1E388002B40F09480CA
:10578000E388002B00F09A8003B030BD037C43B95E
:10579000D0F8B4329B6A0DF106009847022343709B
:1057A000E7E7D0F8B432DB6A0DF106009847022330
:1057B0004370DEE7D2B2052A52D8DFE802F00310C8
:1057C0001D2A3744D0F8B0325B6823B10DF10601D1
:1057D000007C9847CDE72146FFF796FFD4E7D0F845
:1057E000B0329B6823B10DF10601007C9847C0E7F9
:1057F0002146FFF789FFC7E7D0F8B032DB6823B155
:105800000DF10601007C9847B3E72146FFF77CFFC6
:10581000BAE7D0F8B0321B6923B10DF10601007C64
:105820009847A6E72146FFF76FFFADE7D0F8B03203
:105830005B6923B10DF10601007C984799E7214689
:10584000FFF762FFA0E7D0F8B0329B6923B10DF1FA
:105850000601007C98478CE72146FFF755FF93E748
:105860002146FFF751FF8FE7037C33B9D0F8B432FC
:105870005B6B0DF1060098477BE72146FFF744FF7D
:1058800082E7037C43B9D0F8B4321B6B0DF10600FC
:105890009847072343706CE72146FFF735FF73E70E
:1058A0002146FFF731FF6FE79A4228BF1A46ADF84D
:1058B00006200146284600F059FA61E7284600F024
:1058C00081FA61E738B504468B88F3B9CB88E3B930
:1058D0004B887F2B19D803F07F0590F89C32032B5F
:1058E0000CD080F89E522946FEF7FCFE204600F0C0
:1058F00069FA35B1022384F89C3209E0FFF704FF0E
:1059000006E0012384F89C3202E02046FFF7FCFE0B
:1059100038BD000038B504460D468978284B19700B
:1059200001290ED890F89C32022B0ED0032B21D0E7
:105930002946FFF7E9FE224B19782046FFF778FD4C
:1059400002E02946FFF7E0FE38BD81B14160032344
:1059500080F89C32FFF75FFD022803D0204600F05C
:1059600031FAF1E729462046FFF7CEFEECE700F0DA
:1059700029FAE9E789B1436899421DD0D9B2FFF706
:1059800057FD0F4B197861602046FFF744FD022850
:105990000DD0204600F016FAD6E7022380F89C329C
:1059A0004160FFF745FD204600F00CFACCE72946A0
:1059B0002046FFF7A9FEC7E700F004FAC4E700BFDE
:1059C0007C04002008B5CB88012B0BD190F89C32C9
:1059D0009BB1022B09D9032B0FD10122011D00F02D
:1059E000C5F901E0FFF790FE08BD0146002341F82C
:1059F000083F012200F0BAF9F6E7FFF785FEF3E76A
:105A000008B590F89C32013B022B12D8CB88022BB0
:105A10000CD10123C360D0F8A4320BB10323C360BF
:105A2000022200F10C0100F0A1F908BDFFF76CFEA5
:105A3000FBE7FFF769FEF8E708B590F89C32013BF9
:105A4000022B09D84B88012B00D008BD0023C0F8D9
:105A5000A43200F0B7F9F8E7FFF756FEF5E708B50E
:105A60000B7803F06003202B05D0402B03D043B10B
:105A7000FFF74AFE03E0D0F8B4329B689847002055
:105A800008BD4B78092B1BD8DFE803F011171A1457
:105A90001A08051A0E0BFFF741FEF0E7FFF712FF99
:105AA000EDE7FFF737FFEAE7FFF78CFFE7E7FFF7E0
:105AB000A7FFE4E7FFF70AFEE1E7FFF7BDFFDEE738
:105AC000FFF722FEDBE738B505460C460B7803F0FE
:105AD0006003202B06D0402B04D01BB1FFF714FE2F
