:020000040800F2
:1000000000800220812E0008810900088309000871
:100010008509000887090008890900080000000018
:100020000000000000000000000000008B09000834
:100030008D090008000000008F09000891090008E0
:10004000D12E0008D12E0008D12E0008D12E000894
:10005000D12E0008D12E0008D12E0008D12E000884
:10006000D12E0008D12E0008D12E0008D12E000874
:10007000D12E000899090008D12E0008D12E0008C1
:10008000D12E0008D12E0008D12E0008D12E000854
:10009000D12E0008D12E0008D12E0008D12E000844
:1000A000D12E0008D12E0008D12E0008D12E000834
:1000B000D12E0008D12E000800000000D12E00082B
:1000C000D12E0008D12E0008D12E0008D12E000814
:1000D000D12E0008D12E0008D12E0008D12E000804
:1000E000D12E0008D12E0008000000000000000002
:1000F0000000000000000000000000000000000000
:1001000000000000D12E000800000000D12E0008E1
:10011000D12E000800000000D12E000800000000D1
:10012000D12E0008D12E0008D12E0008D12E0008B3
:10013000D12E0008D12E0008D12E000800000000AA
:10014000D12E0008D12E0008D12E0008D12E000893
:10015000D12E0008D12E0008D12E0008D12E000883
:10016000D12E0008D12E0008D12E0008000000007A
:1001700000000000D12E0008000000000000000078
:10018000D12E0008D12E0008D12E0008D12E000853
:08019000D12E00080000000060
:1001980010B5054C237833B9044B13B10448AFF3B9
:1001A80000800123237010BD100000200000000013
:1001B8002C2F000808B5034B1BB103490348AFF3C4
:1001C800008008BD00000000140000202C2F00084B
:1001D80053B94AB9002908BF00281CBF4FF0FF31A6
:1001E8004FF0FF3000F072B9ADF1080C6DE904CEA4
:1001F80000F006F8DDF804E0DDE9022304B07047FA
:100208002DE9F047089E04468846002B4BD18A42C8
:10021800154667D9B2FA82F24AB1C2F1200701FA4B
:1002280002F320FA07F7954047EA030894404FEA9B
:10023800154E230CB8FBFEF71FFA85FC0EFB17883A
:1002480043EA084307FB0CF1994209D9EB1807F177
:10025800FF3080F01B81994240F21881023F2B4405
:100268005B1AA4B2B3FBFEF00EFB103344EA03445E
:1002780000FB0CFCA44509D92C1900F1FF3380F0D0
:100288000781A44540F2048102382C4440EA074023
:10029800A4EB0C0400271EB1D4400023C6E9004398
:1002A8003946BDE8F0878B4209D9002E00F0EB8073
:1002B8000027C6E9000138463946BDE8F087B3FA99
:1002C80083F7002F47D18B4202D3824200F2FA8093
:1002D800841A61EB030301209846002EE0D0C6E99A
:1002E8000048DDE702B9FFDEB2FA82F2002A40F0E8
:1002F8008F80491B4FEA154E1FFA85F80127B1FB7D
:10030800FEFC230C0EFB1C1143EA014308FB0CF115
:10031800994207D9EB180CF1FF3002D2994200F24A
:10032800CD808446591AA3B2B1FBFEF00EFB10141F
:1003380043EA044408FB00F8A04507D92C1900F14A
:10034800FF3302D2A04500F2B6801846A4EB080499
:1003580040EA0C409FE7C7F1200CBB4022FA0CFE94
:100368004EEA030E01FA07F420FA0CF521FA0CF311
:100378004FEA1E482543B3FBF8F92C0C08FB193348
:100388001FFA8EFA44EA034309FB0AF49C4202FA74
:1003980007F200FA07F10BD91EEB030309F1FF304E
:1003A80080F087809C4240F28480A9F1020973445E
:1003B8001B1BADB2B3FBF8F008FB103345EA03444E
:1003C80000FB0AFAA24508D91EEB040400F1FF332A
:1003D8006BD2A24569D90238744440EA0940A0FBAF
:1003E8000289A4EB0A044C45C2464B4654D351D06B
:1003F800002E69D0B1EB0A0564EB030404FA0CFC87
:10040800FD40FC404CEA0505C6E90054002747E7D3
:10041800C2F1200320FA03F7954001FA02F021FA0D
:1004280003F34FEA154E3843010CB3FBFEF71FFAEE
:1004380085F80EFB173341EA034107FB08F38B42AB
:1004480004FA02F407D9691807F1FF3C2FD28B424E
:100458002DD9023F2944CB1A81B2B3FBFEF00EFB23
:10046800103341EA034100FB08F38B4207D96918AE
:1004780000F1FF3C17D28B4215D902382944C91A1A
:1004880040EA07473BE73746304609E70746E7E6CD
:100498001846FBE64145ABD2B8EB020A69EB0E02FF
:1004A80001381346A4E76046E9E7184695E767462A
:1004B800D1E781467CE702382C4447E7ACF1020CCF
:1004C8002B442FE7384608E73746E9E6704700BF70
:1004D80030B5B1B02422002120A802F01BFD002471
:1004E8001A941B941C941D941E94682221466846F5
:1004F80002F010FD02251F954FF4807322934023CC
:10050800239329952A9501232B930A232C930723B8
:100518002D932E952F951FA800F092FF0F231A9365
:1005280003231B931C941D941E9404211AA801F004
:10053800CDFA00950994684601F054FC4FF4007018
:1005480002F026F831B030BD08B500F0AFFEFFF775
:10055800BFFF00F00DF800F05BF800F015F900F0AF
:1005680063F900F0B9F902F0F5FBFEE77047000007
:1005780010B58AB000240594069407940894099449
:10058800204BDA6C42F00402DA64DA6C02F00402FE
:100598000192019ADA6C42F08002DA64DA6C02F0B5
:1005A80080020292029ADA6C42F00102DA64DA6C92
:1005B80002F001020392039ADA6C42F00202DA6452
:1005C800DB6C03F002030493049B224620214FF0C6
:1005D800904001F09DFE4FF4005305930A4B06939B
:1005E800079405A9094801F0C9FD202305930123B3
:1005F80006930794089405A94FF0904001F0BEFDBA
:100608000AB010BD00100240000021100008004888
:1006180000B583B00A4B9A6C42F001029A649B6C55
:1006280003F001030193019B002211460D2002F003
:1006380009F80D2002F03AF803B05DF804FB00BF9A
:10064800001002400368B3F1804F00D0704782B0B9
:1006580003F504339A6D42F001029A659B6D03F02D
:1006680001030193019B02B0704700000268174B19
:100678009A4200D0704710B582B0044603F50333A0
:100688009A6D42F002029A659B6D03F00203019392
:10069800019B0F480F4B03600523436010238360C1
:1006A8000023C360802202614FF4007242618361BB
:1006B800C361036201F04AFE28B9054B2363236234
:1006C8009C6202B010BDFFF751FFF6E7000400403E
:1006D8006C0000203000024030B589B0002303933D
:1006E80004930593069307930368B3F1804F04D0EE
:1006F800224A93422DD009B030BD03F50433DA6C99
:1007080042F00102DA64DA6C02F001020092009A07
:10071800DA6C42F00202DA64DB6C03F00203019344
:10072800019B03230393022504950124079403A93D
:100738004FF0904001F022FD4FF48063039304953D
:10074800002305930693079403A90D4801F016FDAD
:10075800D1E70C4BDA6C42F00202DA64DB6C03F08E
:1007680002030293029B022303930493032206923B
:10077800079303A9024801F001FDBCE7000400400B
:10078800000400480010024000B58BB00023079316
:100798000893099300930193029303930493059399
:1007A800069320484FF08042026043608360C36034
:1007B8000361836100F0E3FA20BB002307930993E8
:1007C80007A9184800F00EFDF8B96023009300222D
:1007D8000192029204926946124800F025FBB8B9CA
:1007E800042269460F4800F01FFBA0B90822694699
:1007F8000C4800F019FB88B90A48FFF76DFF0BB0E9
:100808005DF804FBFFF7B2FED7E7FFF7AFFEDCE7C2
:10081800FFF7ACFEE4E7FFF7A9FEE7E7FFF7A6FE60
:10082800EAE700BFB400002000B58FB000230A93A8
:100838000B930C930D9307930893099300930193DB
:10084800029303930493059306932148214A026077
:1008580043608360C36003618023836100F076FA9C
:1008680030BB0EA94FF4805341F8103D184800F0F2
:1008780081FB00BB164800F082FAF8B90023079301
:10088800099307A9124800F0ADFCD0B96023009382
:1008980000230193029304930C2269460C4800F04C
:1008A800C3FA88B90A48FFF717FF0FB05DF804FBD1
:1008B800FFF75CFED5E7FFF759FEDBE7FFF756FECB
:1008C800DCE7FFF753FEE1E7FFF750FEEAE700BF7A
:1008D8002C0000200004004008B50B480B4B0360B7
:1008E8004FF4E133436000238360C36003610C224B
:1008F80042618361C3610362436202F0D6F900B9C1
:1009080008BDFFF733FEFBE7F40000200044004079
:1009180000B589B0002303930493059306930793C6
:100928000268144B9A4202D009B05DF804FB03F543
:10093800E6339A6D42F400329A659A6D02F40032F9
:100948000192019ADA6C42F00102DA64DB6C03F07E
:1009580001030293029B0C230393022304930323B2
:1009680006930723079303A94FF0904001F006FC74
:10097800DAE700BF004400407047FEE7FEE7FEE705
:10098800FEE770477047704708B500F0A5FC08BD42
:1009980008B5024801F091FD08BD00BF6C000020B9
:1009A80082B00A4B1A6E42F001021A661A6E02F001
:1009B80001020092009A9A6D42F080529A659B6DEE
:1009C80003F080530193019B02B07047001002406E
:1009D80030B4036A23F001030362036A446882693E
:1009E80022F4803222F073020D682A4323F00203B6
:1009F8008D682B43144DA84207D005F5A055A84291
:100A080003D005F58065A84205D123F00803CD6819
:100A18002B4323F004030C4DA84207D005F5A0553D
:100A2800A84203D005F58065A84205D124F4407595
:100A38004C692C438D692C43446082614A68426347
:100A4800036230BC704700BF002C014030B4036A19
:100A580023F480730362036A4268C46924F480340F
:100A680024F073040D682C4323F400738D6843EA63
:100A78000523124DA84219D0104DA84207D005F5FC
:100A8800A055A84203D005F58065A84207D122F4F5
:100A980040524D6942EA05128D6942EA05124260E8
:100AA800C4614A68C263036230BC704723F40063C0
:100AB800CD6843EA052323F48063DDE7002C014079
:100AC80030B4036A23F480530362026A4468C3693A
:100AD80023F0807323F4E6430D6843EA052322F4E8
:100AE80000528D6842EA05320B4DA84207D005F541
:100AF800A055A84203D005F58065A84204D124F486
:100B080080444D6944EA85144460C3614B680364BA
:100B1800026230BC704700BF002C014030B4036A49
:100B280023F480330362036A4468426D22F48032FE
:100B380022F070020D682A4323F400338D6843EADB
:100B480005430B4DA84207D005F5A055A84203D090
:100B580005F58065A84204D124F480344D6944EA3F
:100B68000524446042654A688265036230BC704768
:100B7800002C014030B4036A23F480130362026A34
:100B88004468436D23F0807323F4E0430D6843EA1F
:100B9800052322F400128D6842EA05520B4DA84243
:100BA80007D005F5A055A84203D005F58065A842F1
:100BB80004D124F480244D6944EA852444604365C3
:100BC8004B68C365026230BC704700BF002C01400F
:100BD80010B4036A046A24F001040462846924F0EE
:100BE800F00444EA021223F00A030B438261036211
:100BF8005DF8044B704710B4036A23F010030362D6
:100C08008469036A24F4704444EA023223F0A0039E
:100C180043EA0113826103625DF8044B70478368FD
:100C280023F07003194341F0070181607047704752
:100C380010B5846A012384F83D30636A83420BD07F
:100C4800A36A834210D0E36A834210D0236B8342A5
:100C580004D10823237701E0012323772046FFF7F7
:100C6800E6FF0023237710BD02232377F6E704234A
:100C78002377F3E7704710B5846A012384F83D3081
:100C8800636A83420BD0A36A834210D0E36A83422B
:100C980010D0236B834204D10823237701E001237A
:100CA80023772046FFF7E6FF0023237710BD0223B2
:100CB8002377F6E704232377F3E7704708B5806ABC
:100CC800012380F83D30FFF7F8FF08BD03681E4A8E
:100CD800904206D0B0F1804F03D0A2F594329042F2
:100CE80003D123F070034A681343174A90420ED089
:100CF800B0F1804F0BD0A2F59432904207D002F5A4
:100D08009E32904203D002F58062904203D123F4D0
:100D18004073CA68134323F080034A69134303608E
:100D28008B68C3620B688362074B984207D003F550
:100D3800A053984203D003F58063984201D10B6910
:100D48000363012343617047002C0140A8B110B52B
:100D5800044690F83D305BB1022384F83D30211DF4
:100D68002068FFF7B3FF012384F83D30002010BD51
:100D780080F83C30FFF77AFCEEE701207047A8B115
:100D880010B5044690F83D305BB1022384F83D303D
:100D9800211D2068FFF79AFF012384F83D300020C9
:100DA80010BD80F83C30FFF74DFCEEE7012070479E
:100DB80030B4036A23F010030362036A446882694B
:100DC80022F0807222F4E6420D6842EA052223F0FE
:100DD80020038D6843EA0513124DA84219D0114D1E
:100DE800A84207D005F5A055A84203D005F58065AF
:100DF800A84207D124F440644D6944EA85048D690A
:100E080044EA8504446082614A688263036230BCB4
:100E1800704723F08003CD6843EA051323F04003AD
:100E2800DDE700BF002C014038B590F83C30012BBD
:100E380000F092800D460446012380F83C300223DE
:100E480080F83D30142A1ED8DFE802F00B1D1D1D66
:100E5800241D1D1D381D1D1D4B1D1D1D5F1D1D1D28
:100E680072000068FFF7B4FD2268936943F0080335
:100E780093612268936923F004039361226893695C
:100E880029690B439361012384F83D30002084F8DD
:100E98003C0038BD0068FFF78BFF2268936943F474
:100EA800006393612268936923F4806393612268E5
:100EB8009369296943EA01239361E4E70068FFF72E
:100EC800C5FD2268D36943F00803D3612268D3695A
:100ED80023F00403D3612268D36929690B43D361E2
:100EE800D1E70068FFF7ECFD2268D36943F400639B
:100EF800D3612268D36923F48063D3612268D369FC
:100F0800296943EA0123D361BDE70068FFF706FEBC
:100F18002268536D43F0080353652268536D23F02C
:100F2800040353652268536D29690B435365AAE787
:100F38000068FFF71FFE2268536D43F40063536592
:100F48002268536D23F4806353652268536D2969C1
:100F580043EA0123536596E702209AE710B48468B0
:100F680024F47F4442EA03230B43234383605DF860
:100F7800044B704790F83C30012B64D010B5044600
:100F8800012380F83C30022380F83D3002689068E5
:100F98002E4B034093600B68402B4AD013D9602B2B
:100FA8003DD01ED9702B28D0B3F5005F30D1CB6867
:100FB8004A6889682068FFF7D1FF2268936843F47C
:100FC8008043936024E0102B06D004D9202B03D053
:100FD800302B01D01CE0DBB919462068FFF71FFE53
:100FE80016E0502B14D1CA6849682068FFF7F0FD55
:100FF80050212068FFF713FE0AE0CB684A68896829
:101008002068FFF7ABFF2268936843F0770393608B
:10101800012384F83D30002084F83C0010BDCA68E4
:1010280049682068FFF7E7FD60212068FFF7F7FDB2
:10103800EEE7CA6849682068FFF7CAFD40212068C2
:10104800FFF7EDFDE4E70220704700BF8800FEFFD0
:1010580010B401F01F01012303FA01F4036A23EA23
:1010680004030362036A8A40134303625DF8044B76
:101078007047000070B590F83D60F6B2022E00F09F
:10108800998090F83D60F6B2012E0DD016460D46B7
:1010980004460C2927D8DFE801F0102626264A2620
:1010A80026266126262677001AB1022480F83D40BC
:1010B800ECE7002BF9D0012038E0426A4449D162BC
:1010C800426A44491163426A4349516302683432AF
:1010D8003146406A01F0B6F900286DD12268D3681C
:1010E80043F40073D360012229462068FFF7B0FF5C
:1010F80023683A4A934207D002F5A052934203D09C
:1011080002F58062934203D15A6C42F400425A6459
:1011180022689168324B0B40062B55D0B3F5803FBF
:1011280054D0136843F001031360002070BD826A35
:101138002749D162826A27491163826A2649516325
:10114800026838323146806A01F07CF9002835D1CE
:101158002268D36843F48063D360C4E7C26A1C4939
:10116800D162C26A1B491163C26A1B495163026892
:101178003C323146C06A01F065F908BB2268D36881
:1011880043F40063D360AEE7026B1149D162026B8E
:1011980010491163026B10495163026840323146AD
:1011A800006B01F04FF968B92268D36843F48053A3
:1011B800D36098E70220B9E70120B7E70120B5E737
:1011C8000120B3E70120B1E70020AFE70020ADE739
:1011D800390C00087F0C0008C50C0008002C0140E1
:1011E8000700010090F83C30012B33D030B40123C4
:1011F80080F83C30022380F83D30026853689568D7
:10120800154CA24221D023F070030C68234353608D
:101218000368114A93420AD0B3F1804F07D0A2F570
:101228009432934203D002F59E32934204D125F0C2
:1012380080058A6815439D60012380F83D300023AE
:1012480080F83C30184630BC704723F470034C6873
:101258002343D8E702207047002C0140104B1B683D
:101268000BB90120704710B504464FF47A70B0FBF3
:10127800F3F30C4A1068B0FBF3F001F025FA68B9F3
:101288000F2C01D901200AE0002221464FF0FF303F
:1012980001F0D8F9044B1C60002000E0012010BDCB
:1012A80000000020080000200400002010B5094AB2
:1012B800136843F480731360032001F0B1F9002030
:1012C800FFF7CCFF10B10124204610BD0446FFF7FC
:1012D80067FBF9E700200240034A136803490968DD
:1012E8000B441360704700BF740100200000002009
:1012F800014B1868704700BF7401002030B583B0F7
:101308000546204B9B6D13F0805F0BD001F038F938
:10131800B0F5007F17D0802D1FD82DD0702D2DD07F
:1013280000211BE0174CA36D43F08053A365A36D08
:1013380003F080530193019B01F022F9A36D23F080
:101348008053A365E4E7802D03D9A02D03D902219A
:1013580004E0002102E0012100E003210A4A1368A9
:1013680023F007030B431360136803F007038B4252
:1013780006D0012003B030BD0221EFE70121EDE7DF
:101388000020F7E70010024000200240284A936836
:10139800D26802F0030213F00C030AD00C2B06D01B
:1013A800042B1FD0082B20D00020024610E0012A71
:1013B800F6D11F4A126812F0080F0CD11C4AD2F855
:1013C8009420C2F303221B4951F8222043B1002084
:1013D8000C2B0DD07047164A1268C2F30312F2E7BD
:1013E8001046F5E714480022F2E714480022EFE718
:1013F8000F4BDB6803F00303022B15D0032B15D02A
:101408000B4BD868C0F302100130D968C1F306212C
:1014180002FB01F2B2FBF0F2D868C0F34160013080
:101428004000B2FBF0F0D5E7034AE9E7034AE7E7F3
:1014380000100240602F00080024F40000127A0017
:10144800002800F02783F0B583B00446AF4B9D68B1
:1014580005F00C05DE6806F00306036813F0100FAC
:101468005BD0E5B10C2D18D0A369002B00F0BC802F
:10147800A64A136843F001031360FFF739FF0746D4
:10148800A24B1B6813F0020F40F09B80FFF730FF60
:10149800C01B0228F4D9032308E3012EE4D19B4B97
:1014A8001B6813F0020F03D0A369002B00F0F5822C
:1014B800206A964B1B6813F0080F5CD0934B1B688F
:1014C80003F0F00398425DD8904B1A6842F0080286
:1014D8001A601A6822F0F002216A0A431A605A68F0
:1014E80022F47F42E16942EA01225A60002D61D06C
:1014F800FFF74CFF854B9B68C3F30313844AD35C07
:1015080003F01F03D840834B1860834B1868FFF71C
:10151800A5FE0346002840F0C982236813F0010F96
:1015280000F08180082D75D00C2D71D06368B3F55B
:10153800803F00F09780B3F5A02F00F09980734B9F
:101548001A6822F480321A601A6822F480221A601B
:101558006368002B00F09980FFF7CAFE07466B4BC3
:101568001B6813F4003F5ED1FFF7C2FEC01B64285E
:10157800F5D903239AE2654BD3F894301B0903F09D
:10158800F0039FE7FFF7BAFE002840F088825F4B20
:101598001A6842F008021A601A6822F0F002216AFA
:1015A8000A431A605A6822F47F42E16942EA01223A
:1015B8005A609DE7206AFFF7A1FE002898D0012312
:1015C80074E2524B1A6842F008021A601A6822F054
:1015D800F002216A0A431A605A6822F47F42E169DC
:1015E80042EA01225A6098E7484A136823F0010347
:1015F8001360FFF77DFE0746444B1B6813F0020F8C
:101608008BD0FFF775FEC01B0228F5D903234DE2E6
:10161800032E8BD13D4B1B6813F4003F03D0636846
:10162800002B00F03E82236813F0020F4FD0042DE8
:101638003CD00C2D38D0E368002B78D0334A13689F
:1016480043F480731360FFF753FE06462F4B1B6865
:1016580013F4806F62D1FFF74BFE801B0228F5D987
:10166800032323E2294A136843F4803313606FE7A6
:1016780003F18043A3F53C331A6842F480221A60D0
:101688001A6842F480321A6062E7FFF731FE0746B3
:101698001E4B1B6813F4003FC5D0FFF729FEC01B83
:1016A8006428F5D9032301E2022EC4D1174B1B6825
:1016B80013F4806F03D0E368002B00F0F481134A21
:1016C800536823F0FE43216943EA016353602368AA
:1016D80013F0080F56D06369002B3CD00B4AD2F8A0
:1016E800943043F00103C2F89430FFF701FE064638
:1016F800064BD3F8943013F0020F43D1FFF7F8FDEF
:10170800801B0228F4D90323D0E100BF0010024057
:10171800482F00080800002004000020B04A536841
:1017280023F0FE43216943EA01635360CFE7AC4AE3
:10173800136823F480731360FFF7DAFD0646A84B9D
:101748001B6813F4806FC2D0FFF7D2FD801B0228FC
:10175800F5D90323AAE1A24AD2F8943023F0010371
:10176800C2F89430FFF7C4FD06469D4BD3F8943079
:1017780013F0020F06D0FFF7BBFD801B0228F4D937
:10178800032393E1236813F0040F7AD0944B9B6DE5
:1017980013F0805F0BD1924B9A6D42F080529A659C
:1017A8009B6D03F080530193019B012600E0002606
:1017B8008C4B1B6813F4807F26D0A368012B37D08D
:1017C800052B3DD0864BD3F8902022F00102C3F8B8
:1017D8009020D3F8902022F00402C3F89020A36848
:1017E800002B3BD0FFF784FD07467D4BD3F89030A4
:1017F80013F0020F44D1FFF77BFDC01B41F2883381
:101808009842F2D9032351E1764A136843F480736E
:101818001360FFF76DFD0746724B1B6813F4807F5A
:10182800CBD1FFF765FDC01B0228F5D903233DE1A5
:101838006B4AD2F8903043F00103C2F89030CEE7FB
:10184800674BD3F8902042F00402C3F89020D3F8F5
:10185800902042F00102C3F89020C0E7FFF748FD4E
:1018680007465F4BD3F8903013F0020F08D0FFF70C
:101878003FFDC01B41F288339842F2D9032315E19A
:10188800E6B9236813F0200F35D0636AE3B1544AF0
:10189800D2F8983043F00103C2F89830FFF728FDDA
:1018A80006464F4BD3F8983013F0020F23D1FFF7B9
:1018B8001FFD801B0228F4D90323F7E0484A936DE3
:1018C80023F080539365DCE7454AD2F8983023F03B
:1018D8000103C2F89830FFF70BFD0646404BD3F8DA
:1018E800983013F0020F06D0FFF702FD801B022884
:1018F800F4D90323DAE0A36A002B00F0D680022B88
:1019080027D00C2D00F0DB80354B1A6822F080724E
:101918001A601B6813F0006F04D1314AD36823F0B2
:101928000303D3602E4AD36823F0887323F48033EB
:10193800D360FFF7DDFC0446294B1B6813F0007FDA
:1019480000F0A680FFF7D4FC001B0228F4D903237B
:10195800ACE0234BDB6803F00301E26A914209D053
:101968000C2D00F0A6801E4B1B6813F0806F3BD037
:1019780001239BE003F07002216B0139B2EB011FD8
:10198800EED103F4FE42616BB2EB012FE8D103F014
:101998007842A16BB2EBC16FE2D103F4C001E26BF4
:1019A8005208013AB1EB425FDAD103F0C063226C0E
:1019B8005208013AB3EB426FD2D1094B1B6813F0BE
:1019C800007F78D1064B1A6842F080721A60DA6894
:1019D80042F08072DA60FFF78BFC044651E000BFEA
:1019E8000010024000700040364A136823F08073EC
:1019F8001360FFF77DFC0546324B1B6813F0007F30
:101A080006D0FFF775FC401B0228F5D903234DE0EB
:101A18002C4AD3682C491940E36A206B013843EA01
:101A28000013606B43EA0023E06B4008013843EA87
:101A38004053206C4008013843EA4063A06B43EAF6
:101A4800C0630B43D360136843F080731360D3689B
:101A580043F08073D360FFF74BFC0446194B1B68B7
:101A680013F0007F06D1FFF743FC001B0228F5D9CD
:101A780003231BE0002319E0FFF73AFC001B0228B0
:101A88001BD8104B1B6813F0007FF5D000230DE026
:101A980000230BE0012318467047012306E00123C9
:101AA80004E0012302E0012300E00023184603B00C
:101AB800F0BD0123FAE70023F8E70323F6E7012343
:101AC800F4E700BF001002408C809D01002800F060
:101AD8009B8070B504464E4B1B6803F007038B428E
:101AE8000CD24B4A136823F007030B4313601368A7
:101AF80003F007038B4201D0012070BD0D46236817
:101B080013F0010F39D06368032B09D0022B26D0BC
:101B180063BB404A126812F0020F06D10120ECE7BD
:101B28003C4A126812F0007F70D03A498A6822F065
:101B3800030213438B60FFF7DBFB0646354B9B68BC
:101B480003F00C036268B3EB820F16D0FFF7D0FBEB
:101B5800801B41F288339842F0D90320CDE72D4A03
:101B6800126812F4003FE0D10120C6E7294A126842
:101B780012F4806FD9D10120BFE7236813F0020F58
:101B880006D0244A936823F0F003A1680B439360BE
:101B98001F4B1B6803F00703AB420CD91C4A1368A0
:101BA80023F007032B431360136803F00703AB42CA
:101BB80001D00120A1E7236813F0040F06D0154ACD
:101BC800936823F4E063E1680B439360236813F0A0
:101BD800080F07D00F4A936823F46053216943EA3A
:101BE800C1039360FFF7D2FB0A4B9B68C3F303134F
:101BF800094AD35C03F01F03D840084B1860084B10
:101C08001868FFF72BFB78E701207047012074E77D
:101C18000020024000100240482F00080800002061
:101C280004000020014B1868704700BF080000201E
:101C380008B5FFF7F7FF054B9B68C3F30223044A77
:101C4800D35C03F01F03D84008BD00BF001002405A
:101C5800582F000808B5FFF7E5FF054B9B68C3F34D
:101C6800C223044AD35C03F01F03D84008BD00BF59
:101C780000100240582F0008F8B5594BDB6813F0E4
:101C8800030F18D0564BDB6803F003030268934236
:101C980002D001252846F8BD002A00F09F80504B4D
:101CA800DB68C3F3021301334268934201D0012574
:101CB800F0E700251AE00368022B58D0032B5DD00B
:101CC800012B01D001250FE0454A126812F0020FDE
:101CD80060D0434DEA6822F073024468013C43EA4D
:101CE80004131343EB600025002DD3D10F4604469F
:101CF8003B4A136823F080631360FFF7F9FA06463E
:101D0800374B1B6813F0006F05D0FFF7F1FA801B03
:101D18000228F5D90325002DBCD1002F3CD130492C
:101D28000B6923F0784323F4FE43A068E268D206E7
:101D380042EA002213430B61294A136843F0806387
:101D48001360FFF7D5FA0646254B1B6813F0006FA2
:101D580005D1FFF7CDFA801B0228F5D90325002D00
:101D680098D11F4A1369A1690B43136192E71C4A72
:101D7800126812F4806FACD10125B5E7184A1268D1
:101D880012F4003FA5D1164A126812F4802FA0D190
:101D98000125A9E70125A7E7012F0FD010480269FF
:101DA80022F0C06222F4FE42A16863695B08013B2D
:101DB8005B0643EA012313430361BDE70848026950
:101DC80022F4C00222F4FE42A16823695B08013BA9
:101DD8005B0543EA012313430361ADE7012559E796
:101DE800001002402DE9F04182B00446036813F464
:101DF800006F26D0C36CB3F5000F06D0B3F5400FC3
:101E08001DD09BB1012637461DE0BE4AD36843F476
:101E18008033D3600027BB4AD2F8883023F44003CC
:101E2800E16C0B43C2F8883000260CE00021043036
:101E3800FFF722FF07460028EDD0064603E00027FB
:101E4800E9E700263746236813F4003F6BD0AD4B13
:101E58009B6D13F0805F4CD1AA4B9A6D42F0805273
:101E68009A659B6D03F080530193019B4FF0010825
:101E7800A54A136843F480731360FFF739FA0546DF
:101E8800A14B1B6813F4807F05D1FFF731FA401B83
:101E98000228F5D90327002F40D19A4BD3F8903068
:101EA80013F4407315D0626E9A4212D0954AD2F854
:101EB800903023F44073D2F8901041F48031C2F886
:101EC8009010D2F8901021F48031C2F89010C2F826
:101ED800903013F0010F0FD1002F40F01181894A83
:101EE800D2F8903023F44073616E0B43C2F89030FF
:101EF80015E04FF00008BBE7FFF7FAF90546814BFC
:101F0800D3F8903013F0020FE6D1FFF7F1F9401B38
:101F180041F288339842F2D90327DDE73E46B8F10B
:101F2800000F40F0F380236813F0010F08D0754AC2
:101F3800D2F8883023F00303216A0B43C2F88830B3
:101F4800236813F0020F08D06E4AD2F8883023F0C5
:101F58000C03616A0B43C2F88830236813F0040F3E
:101F680008D0684AD2F8883023F03003A16A0B43BE
:101F7800C2F88830236813F0080F08D0614AD2F8F5
:101F8800883023F0C003E16A0B43C2F88830236825
:101F980013F0200F08D05B4AD2F8883023F440634E
:101FA800216B0B43C2F88830236813F4007F08D0F4
:101FB800544AD2F8883023F44023616C0B43C2F8AA
:101FC8008830236813F4806F08D04E4AD2F88830DE
:101FD80023F44013A16C0B43C2F88830236813F034
:101FE800400F08D0474AD2F8883023F44053616B39
:101FF8000B43C2F88830236813F0800F08D0414A99
:10200800D2F8883023F44043A16B0B43C2F88830E0
:10201800236813F4807F08D03A4AD2F8883023F432
:102028004033E16B0B43C2F88830236813F4801FF8
:1020380008D0344AD2F89C3023F00303216C0B43B8
:10204800C2F89C30236813F4005F0FD02D4AD2F8F1
:10205800883023F04063216D0B43C2F88830236D2C
:10206800B3F1006F58D0B3F1806F5AD0236813F4DE
:10207800002F0FD0234AD2F8883023F04063616DD7
:102088000B43C2F88830636DB3F1006F51D0B3F1E0
:10209800806F53D0236813F4802F0FD0194AD2F8D9
:1020A800883023F04063A16D0B43C2F88830A36DDC
:1020B800B3F1006F4AD0B3F1806F4CD0236813F4AA
:1020C800804F0CD00F4AD2F8883023F04053E16D8E
:1020D8000B43C2F88830E36DB3F1805F43D02368C7
:1020E80013F4803F08D0074AD2F8883023F0004321
:1020F800216E0B43C2F88830304602B0BDE8F0814B
:102108003E460CE700100240007000401A4A936DEA
:1021180023F08053936506E7D36843F48013D360B4
:10212800A4E70121201DFFF7A7FD00289ED0064641
:102138009CE7D36843F48013D360ABE70121201DEB
:10214800FFF79AFD0028A5D00646A3E7D36843F415
:102158008013D360B2E70121201DFFF78DFD002811
:10216800ACD00646AAE70221201DFFF785FD00280E
:10217800B5D00646B3E700BF00100240F0B583B003
:10218800002336E0042400E00024B4403C43023538
:102198005B4E46F825405B4C2568D44304EA0506A7
:1021A8004F6817F4803F01D042EA0506554D2E606E
:1021B8006D6804EA05064F6817F4003F01D042EA4B
:1021C8000506504D6E60AD6804EA05064F6817F4C1
:1021D800801F01D042EA05064A4DAE60ED682C40EA
:1021E8004E6816F4001F01D042EA0504454AD4603F
:1021F80001330A6832FA03F47FD001249C4022405C
:10220800F6D04D686E1E012E03D9112D01D0122D66
:1022180012D186685F000325BD4026EA0506CD6811
:10222800BD4035438560466826EA04064D68C5F317
:1022380000149C4034434460C5685F000324BC40DC
:10224800E44325408E68BE402E43C6604D68022D8B
:1022580001D0122D13D1DE08083650F826E003F01D
:1022680007054FEA850C0F2505FA0CF52EEA050E31
:102278000D6905FA0CF545EA0E0540F82650056883
:102288002C404D6805F00305BD402C4304604C68A4
:1022980014F0805FACD01C4C256E45F00105256616
:1022A800246E04F001040194019C9D08AE1C144C9A
:1022B80054F8267003F00304A6000F24B44027EA5C
:1022C8000407B0F1904F3FF45FAF104CA0420ED01E
:1022D80004F58064A0420CD004F58064A0420AD0C2
:1022E80004F58064A0423FF44DAF07244DE7012474
:1022F8004BE7022449E7032447E703B0F0BD00BFDA
:1023080000000140000401400010024000040048A1
:102318000AB9816270478161704770B4446C04F0F7
:102328001C05066C0124AC40746004686360836813
:10233800102B05D0036899600368DA6070BC704799
:1023480003689A600368D960F8E70000002869D03C
:1023580010B403460168344A914245D8334A0A44C6
:102368003349A1FB0212120992004264314A026405
:10237800022283F825201868016821F4FF4121F022
:1023880070019A68DC6822431C6922435C69224315
:102398009C692243DC6922431C6A22430A43026087
:1023A8009A68B2F5804F15D0196C224A914226D00E
:1023B800214A1168586C00F01C040F20A04021EA43
:1023C80000011160116858685C6C04F01C04A0409E
:1023D800014311600020D863012283F8252083F887
:1023E80024005DF8044B7047144A0A441049A1FBC5
:1023F8000212120992004264114A0264B8E7A83234
:102408001168586C00F01C040F20A04021EA00015C
:102418001160116858685C6C04F01C04A04001430A
:102428001160D7E70120704707040240F8FFFDBF9D
:10243800CDCCCCCC00000240A8040240F8FBFDBF84
:102448000004024038B590F82440012C33D0012410
:1024580080F8244090F82540E4B2012C04D00023F1
:1024680080F82430022038BD0446022084F8250074
:102478000020E0632568286820F0010028602046D5
:10248800FFF74BFF236B5BB12268136843F00E0321
:1024980013602268136843F0010313600020E2E729
:1024A8002268136823F0040313602268136843F05A
:1024B8000A031360EDE70220D5E738B5036C196805
:1024C80004682568436C03F01C0304229A400A42FE
:1024D80015D015F0040F12D0236813F0200F03D184
:1024E800236823F004032360436C03F01C02016C8F
:1024F800042393404B60036B03B1984738BD022215
:102508009A400A421CD015F0020F19D0236813F024
:10251800200F06D1236823F00A032360012380F8E3
:102528002530436C03F01C02016C022393404B607E
:10253800002380F82430C36A002BDFD09847DDE7FA
:10254800082202FA03F30B42D8D015F0080FD5D0B1
:10255800236823F00E032360436C03F01C03016C13
:10256800012202FA03F34B60C26380F8252000239E
:1025780080F82430436B002BC0D09847BEE700009A
:10258800024B186800F4C060704700BF007000403C
:10259800B0F5007F0FD01F4B1B6803F4C063B3F581
:1025A800806F34D01B4A136823F4C06343F48063FC
:1025B800136000207047174B1B6803F4C063B3F522
:1025C800007F22D0134A136823F4C06343F40073D6
:1025D8001360114B1A68322303FB02F30F4AA2FB64
:1025E80003239B0C013300E0013B0A4A526912F4B1
:1025F800806F01D0002BF7D1064B5B6913F4806F15
:1026080001D1002070470320704700207047002048
:10261800704700BF007000400800002083DE1B43A5
:10262800074AD36823F4E0631B041B0C000200F480
:10263800E060184340F0BF6040F40030D06070475D
:1026480000ED00E030B4174BDB68C3F30223C3F19D
:102658000704042C28BF04241D1D062D18D9033B8C
:102668004FF0FF3505FA04F421EA0401994005FA10
:1026780003F322EA0303194300280BDB0901C9B25B
:1026880000F1604000F5614080F8001330BC7047ED
:102698000023E5E700F00F000901C9B2024B195405
:1026A800F4E700BF00ED00E014ED00E0002807DBD0
:1026B80000F01F02400901239340024A42F82030EB
:1026C800704700BF00E100E00138B0F1807F0AD216
:1026D800064B5860064AF02182F8231000209860C3
:1026E80007221A6070470120704700BF10E000E021
:1026F80000ED00E02DE9F0480446016883680269AE
:10270800134342691343C269134308689F4A02404E
:1027180013430B602268536823F44053E1680B436A
:102728005360A16922689A4B9A4201D0236A1943DF
:10273800936823F430630B4393602368954A93426C
:1027480023D0954A934234D0944A93424AD0944A2B
:1027580093425DD08E4A934270D010258C4A9342A2
:1027680000F08F80E369B3F5004F00F00581082D74
:1027780000F2A281DFE815F0620178018201A00170
:102788008D01A001A001A001970102F55842D2F8DD
:10279800882002F00302032A09D8DFE802F00204C5
:1027A80068060125DAE70425D8E70825D6E71025C5
:1027B800D4E702F5E632D2F8882002F00C020C2A9F
:1027C8000ED8DFE802F0070D0D0D090D0D0D560DA1
:1027D8000D0D0B000025C1E70425BFE70825BDE75F
:1027E8001025BBE702F5E432D2F8882002F0300267
:1027F800102A09D005D9202A3DD0302A06D108252B
:10280800ACE71AB90025A9E70425A7E71025A5E72D
:1028180002F5E232D2F8882002F0C002402A09D03C
:1028280005D9802A29D0C02A06D1082596E71AB9E1
:10283800002593E7042591E710258FE702F5C832B4
:10284800D2F8882002F44062B2F5806F0BD007D925
:10285800B2F5006F13D0B2F5406F06D108257DE7B9
:102868001AB900257AE7042578E7102576E70225C6
:1028780074E7022572E7022570E702256EE7022554
:102888006CE7082D00F21B81DFE815F00C00190138
:1028980014001901110019011901190109004FF457
:1028A800004008E0FFF7C4F928B90020D7E0FEF798
:1028B8006DFDF9E73B48626802EB4203834200F290
:1028C8000081B0EB023F00F2FE80082D51D8DFE80E
:1028D80005F005502050305050504300FFF7A8F93C
:1028E8000025070E0602626850082B4616EB000BFF
:1028F80047F1000C58466146FDF76AFC0346284636
:10290800A3F54071284A914200F2DF802268D36023
:10291800A5E0560800252B46DFF890B04FF0000CD4
:102928001BEB06004CF10001FDF752FC034628465C
:10293800E6E7FEF72BFD0025070E06026268500841
:102948002B4616EB000B47F1000C58466146FDF785
:102958003FFC03462846D3E75008002700252B46AE
:1029680010F5000047F10001FDF732FC0346284648
:10297800C6E701200023C3E7082D5CD8DFE805F08F
:1029880018313C5B475B5B5B520000BFF369FFEFAC
:1029980000800040003801400044004000480040EA
:1029A800004C00400024F400FFFC0F00000024F459
:1029B800FFF73EF96268530803EB4003B3FBF2F3F9
:1029C8009BB20020A3F110014FF6EF7291427ED81E
:1029D8009AB222F00F02C3F3420313432268D36072
:1029E8003DE0FFF737F96268530803EB4003B3FB98
:1029F800F2F39BB20020E5E76268530803F1F47331
:102A080003F59043B3FBF2F39BB20020DAE7FEF73D
:102A1800BDFC6268530803EB4003B3FBF2F39BB2BF
:102A28000020CFE76268530803F58033B3FBF2F365
:102A38009BB20020C6E701200023C3E7FFF7F8F8A0
:102A4800636800EB5302B2FBF3F292B20020A2F1EA
:102A580010014FF6EF7399423BD82368DA600022E1
:102A680022666266BDE8F088FFF7F4F8636800EB59
:102A78005302B2FBF3F292B20020E8E763685A0807
:102A880002F5740202F51052B2FBF3F292B2002082
:102A9800DDE7FEF77BFC636800EB5302B2FBF3F261
:102AA80092B20020D3E763685A0802F50042B2FBED
:102AB800F3F292B20020CAE701200022C7E7012002
:102AC800CDE70120CBE70120C9E70120C7E70120B6
:102AD800C5E70120C3E700BF436A13F0010F06D022
:102AE8000268536823F40033816A0B435360436AD6
:102AF80013F0020F06D00268536823F48033C16ACA
:102B08000B435360436A13F0040F06D002685368FE
:102B180023F48023016B0B435360436A13F0080FBF
:102B280006D00268536823F40043416B0B4353609B
:102B3800436A13F0100F06D00268936823F4805399
:102B4800816B0B439360436A13F0200F06D0026831
:102B5800936823F40053C16B0B439360436A13F0EB
:102B6800400F0AD00268536823F48013016C0B43AA
:102B78005360036CB3F5801F0BD0436A13F0800FCA
:102B880006D00268536823F40023816C0B4353601A
:102B980070470268536823F4C003416C0B435360C9
:102BA800EBE72DE9F04104460F4616469846069D88
:102BB8002368DB6937EA03030CBF01230023B34210
:102BC8003AD1B5F1FF3FF3D0FEF792FBA0EB080036
:102BD800A8421FD8F5B123681A6812F0040FE7D08D
:102BE800DA6912F4006FE3D04FF400621A622268C7
:102BF800136823F4D07313602268936823F00103E9
:102C0800936020236367A367E367002384F8703029
:102C1800032012E02268136823F4D073136022683B
:102C2800936823F00103936020236367A36700235D
:102C380084F87030032000E00020BDE8F08130B552
:102C480083B004460023C367FEF752FB054623689A
:102C58001B6813F0080F0CD123681B6813F0040FCE
:102C680015D120236367A367002084F8700003B0A0
:102C780030BD6FF07E430093034600224FF40011ED
:102C88002046FFF78EFF0028E6D00320EFE76FF01D
:102C98007E4300932B4600224FF480012046FFF725
:102CA80080FF0028DDD00320E1E768B310B50446B3
:102CB800436F03B3242363672268136823F0010377
:102CC80013602046FFF716FD012813D0636ABBB9CD
:102CD8002268536823F4904353602268936823F072
:102CE8002A0393602268136843F0010313602046A7
:102CF800FFF7A5FF10BD80F87030FDF709FED9E792
:102D08002046FFF7E9FEE3E7012070470F49D1F8B5
:102D1800883043F47003C1F888300D4B1A6842F0CC
:102D280001021A60002098601A6822F0A85222F462
:102D380010221A604FF48052DA601A6822F4802256
:102D48001A6098614FF000638B60704700ED00E0F7
:102D58000010024000B58FB0FEF718FB404AA2FBF6
:102D680000239B0C013B3F4A1360FEF70FFB3E4AD2
:102D7800A2FB00239B09013B3C4A13603C4B022207
:102D88009A621F22DA6201225A610C218DF804101E
:102D98008DF805108DF806108DF807108DF80810BD
:102DA8008DF809108DF80A108DF80B1016238DF880
:102DB8000C308DF80D308DF80E308DF80F308DF801
:102DC80010308DF811308DF812308DF813308DF8E1
:102DD80014108DF815108DF816108DF817108DF841
:102DE80018108DF819108DF81A108DF81B108DF821
:102DF8001C108DF81D108DF81E108DF81F108DF801
:102E080020108DF821108DF822108DF823108DF8E0
:102E180024308DF825308DF826308DF827308DF840
:102E280028308DF829308DF82A308DF82B308DF820
:102E38002C108DF82D108DF82E108DF82F108DF880
:102E480030108DF831108DF832108DF833100023C2
:102E58008DF83430312301AA0648FEF70BF9FEE756
:102E680083DE1B4378010020D34D62107C010020D3
:102E7800000400402C000020DFF834D0002103E0DB
:102E88000C4B5B58435004310B480C4B42189A4288
:102E9800F6D30B4A02E0002342F8043B094B9A425E
:102EA800F9D3FFF733FF00F011F8FDF74DFBFEE70C
:102EB80000800220A82F0008000000201000002039
:102EC8001000002080010020FEE7000070B50D4EC4
:102ED8000D4CA41BA4100025A54209D10B4E0C4C87
:102EE80000F020F8A41BA4100025A54205D170BD50
:102EF80056F8253098470135EEE756F825309847BB
:102F08000135F2E7982F0008982F0008982F00083D
:102F18009C2F000802440346934200D1704703F8EF
:102F2800011BF9E7F8B500BFF8BC08BC9E4670471E
:102F3800F8B500BFF8BC08BC9E467047000000000A
:102F48000000000000000000010203040607080951
:102F58000000000001020304A0860100400D0300E8
:102F6800801A060000350C0040420F0080841E00C5
:102F780000093D0000127A000024F40000366E01BA
:082F88000048E801006CDC02C6
:082F900078D2FF7F0100000070
:082F9800BD010008000000006B
:082FA000990100080000000087
:102FA800010000001000000000093D0000000000C2
:0400000508002E8140
:00000001FF
