:020000040800F2
:1000000000800020B102000801030008010300087D
:1000100001030008010300080103000800000000BC
:1000200000000000000000000000000001030008C4
:10003000010300080000000001030008010300089C
:100040000103000801030008010300080103000880
:100050000103000801030008010300080103000870
:100060000103000801030008010300080103000860
:100070000103000801030008010300080103000850
:100080000103000801030008010300080103000840
:100090000103000801030008010300080103000830
:1000A0000103000801030008010300080103000820
:1000B0000103000801030008010300080103000810
:1000C0000103000801030008010300080103000800
:1000D00001030008010300080103000801030008F0
:1000E00001030008010300080103000801030008E0
:1000F00001030008010300080103000801030008D0
:1001000000000000000000000000000001030008E3
:1001100001030008010300080103000801030008AF
:10012000010300080103000801030008010300089F
:1001300001030008010300080000000000000000A7
:10014000010300080103000801030008000000008B
:10015000000000000000000000000000000000009F
:100160000000000000000000010300080103000877
:100170000103000800000000000000000000000073
:0801800000000000010300086B
:10018800044B05481B1A062B02D9044B03B1184728
:10019800704700BF0300002000000020000000009E
:1001A80005490648091A891001EBD171491002D096
:1001B800034B03B1184770470000002000000020DF
:1001C8000000000010B5064C237843B9FFF7D8FFAC
:1001D800044B13B10448AFF300800123237010BD12
:1001E80000000020000000000403000808B5084BC8
:1001F8001BB108490848AFF300800848036813B9E1
:10020800BDE80840CCE7064B002BF9D09847F7E744
:100218000000000004000020040300080000002083
:100228000000000070B50F4E0F4D761BB61018BFBA
:10023800002405D0013455F8043B9847A642F9D16B
:100248000A4E0B4D761B00F059F8B61018BF002463
:1002580006D0013455F8043B9847A642F9D170BD41
:1002680070BD00BF1C0300081C0300082003000821
:100278001C03000880B400AFFEE7000080B400AFA4
:10028800084A084BD3F8883043F47003C2F8883022
:10029800044B4FF000629A6000BFBD465DF8047BD6
:1002A800704700BF00ED00E0DFF834D0002103E024
:1002B8000C4B5B58435004310B480C4B42189A4284
:1002C800F6D30B4A02E0002342F8043B094B9A425A
:1002D800F9D3FFF7D3FFFFF7A5FFFFF7CBFFFEE743
:1002E80000800020240300080000002000000020F7
:1002F800000000201C000020FEE70000F8B500BF49
:10030800F8BC08BC9E467047F8B500BFF8BC08BCEE
:040318009E46704746
:04031C00F5010008DF
:04032000CD01000803
:04000005080002B13C
:00000001FF
