:020000040800F2
:10000000008002202D940008911700089F17000817
:10001000A5170008AB170008B11700080000000082
:10002000000000000000000000000000B7170008FA
:10003000C517000800000000D3170008E1170008EA
:100040007D9400087D9400087D9400087D9400084C
:100050007D9400087D9400087D9400087D9400083C
:100060007D9400087D9400087D9400087D9400082C
:100070007D940008F11700087D9400087D94000825
:1000800005180008191800087D9400087D940008E0
:100090007D9400087D9400087D9400087D940008FC
:1000A0007D9400087D9400087D9400087D940008EC
:1000B0007D9400087D940008000000007D940008F5
:1000C0007D9400087D9400087D9400087D940008CC
:1000D0007D9400087D9400082D1800087D94000888
:1000E000451800087D940008000000000000000092
:1000F0000000000000000000000000000000000000
:10010000000000007D940008000000007D940008BD
:100110007D940008000000007D94000800000000AD
:100120007D9400087D9400087D9400087D9400086B
:100130007D9400087D9400087D9400080000000074
:100140007D9400087D9400087D9400087D9400084B
:100150007D9400087D9400087D9400087D9400083B
:100160007D9400087D9400087D9400080000000044
:10017000000000007D940008000000000000000066
:100180007D9400087D9400087D9400087D9400080B
:080190007D940008000000004E
:1001980010B5054C237833B9044B13B10448AFF3B9
:1001A80000800123237010BDC8000020000000005B
:1001B800389A000808B5034B1BB103490348AFF34D
:1001C800008008BD00000000CC000020389A00081C
:1001D80081F0004102E000BF83F0004330B54FEAF0
:1001E80041044FEA430594EA050F08BF90EA020F5D
:1001F8001FBF54EA000C55EA020C7FEA645C7FEAF0
:10020800655C00F0E2804FEA5454D4EB5555B8BF12
:100218006D420CDD2C4480EA020281EA030382EA83
:10022800000083EA010180EA020281EA0303362D15
:1002380088BF30BD11F0004F4FEA01314FF4801CE8
:100248004CEA113102D0404261EB410113F0004FFA
:100258004FEA03334CEA133302D0524263EB4303B1
:1002680094EA050F00F0A780A4F10104D5F1200E4F
:100278000DDB02FA0EFC22FA05F2801841F10001AA
:1002880003FA0EF2801843FA05F359410EE0A5F17E
:1002980020050EF1200E012A03FA0EFC28BF4CF0AF
:1002A800020C43FA05F3C01851EBE37101F0004565
:1002B80007D54FF0000EDCF1000C7EEB00006EEB72
:1002C8000101B1F5801F1BD3B1F5001F0CD34908FC
:1002D8005FEA30004FEA3C0C04F101044FEA445253
:1002E80012F5800F80F09A80BCF1004F08BF5FEADA
:1002F800500C50F1000041EB045141EA050130BDBA
:100308005FEA4C0C404141EB0101013C28BFB1F5CB
:10031800801FE9D291F0000F04BF01460020B1FA16
:1003280081F308BF2033A3F10B03B3F120020CDAE9
:100338000C3208DD02F1140CC2F10C0201FA0CF0C7
:1003480021FA02F10CE002F11402D8BFC2F1200C2C
:1003580001FA02F120FA0CFCDCBF41EA0C019040E2
:10036800E41AA2BF01EB0451294330BD6FEA04042B
:100378001F3C1CDA0C340EDC04F11404C4F1200216
:1003880020FA04F001FA02F340EA030021FA04F328
:1003980045EA030130BDC4F10C04C4F1200220FA7F
:1003A80002F001FA04F340EA0300294630BD21FABD
:1003B80004F0294630BD94F0000F83F4801306BF83
:1003C80081F480110134013D4EE77FEA645C18BF77
:1003D8007FEA655C29D094EA050F08BF90EA020F0E
:1003E80005D054EA000C04BF1946104630BD91EA06
:1003F800030F1EBF0021002030BD5FEA545C05D109
:100408004000494128BF41F0004130BD14F5800447
:100418003CBF01F5801130BD01F0004545F0FE41BB
:1004280041F470014FF0000030BD7FEA645C1ABFF0
:10043800194610467FEA655C1CBF0B46024650EA27
:10044800013406BF52EA033591EA030F41F4002153
:1004580030BD00BF90F0000F04BF0021704730B5D9
:100468004FF4806404F132044FF000054FF00001AE
:1004780050E700BF90F0000F04BF0021704730B56F
:100488004FF4806404F1320410F0004548BF404244
:100498004FF000013EE700BF42004FEAE2014FEA99
:1004A80031014FEA02701FBF12F07F4393F07F4F74
:1004B80081F06051704732F07F4208BF704793F077
:1004C8007F4F04BF41F40021704730B54FF460748A
:1004D80001F0004521F000411CE700BF50EA01028D
:1004E80008BF704730B54FF000050AE050EA010236
:1004F80008BF704730B511F0004502D5404261EBA6
:1005080041014FF4806404F132045FEA915C3FF4E6
:10051800D8AE4FF003025FEADC0C18BF03325FEA83
:10052800DC0C18BF033202EBDC02C2F1200300FA34
:1005380003FC20FA02F001FA03FE40EA0E0021FA59
:1005480002F11444BDE600BF70B54FF0FF0C4CF447
:10055800E06C1CEA11541DBF1CEA135594EA0C0FF9
:1005680095EA0C0F00F0DEF82C4481EA030621EA34
:100578004C5123EA4C5350EA013518BF52EA03356F
:1005880041F4801143F4801338D0A0FB02CE4FF021
:100598000005E1FB02E506F00042E0FB03E54FF051
:1005A8000006E1FB03569CF0000F18BF4EF0010E49
:1005B800A4F1FF04B6F5007F64F5407404D25FEA45
:1005C8004E0E6D4146EB060642EAC62141EA5551F8
:1005D8004FEAC52040EA5E504FEACE2EB4F1FD0C3A
:1005E80088BFBCF5E06F1ED8BEF1004F08BF5FEAB8
:1005F800500E50F1000041EB045170BD06F000466A
:1006080046EA010140EA020081EA0301B4EB5C0416
:10061800C2BFD4EB0C0541EA045170BD41F480110E
:100628004FF0000E013C00F3AB8014F1360FDEBF33
:10063800002001F0004170BDC4F10004203C35DA0F
:100648000C341BDC04F11404C4F1200500FA05F392
:1006580020FA04F001FA05F240EA020001F0004233
:1006680021F0004110EBD37021FA04F642EB0601A9
:100678005EEA430E08BF20EAD37070BDC4F10C04D3
:10068800C4F1200500FA04F320FA05F001FA04F297
:1006980040EA020001F0004110EBD37041F1000183
:1006A8005EEA430E08BF20EAD37070BDC4F120058E
:1006B80000FA05F24EEA020E20FA04F301FA05F2F6
:1006C80043EA020321FA04F001F0004121FA04F29E
:1006D80020EA020000EBD3705EEA430E08BF20EA6E
:1006E800D37070BD94F0000F0FD101F000464000A8
:1006F80041EB010111F4801F08BF013CF7D041EA2A
:10070800060195F0000F18BF704703F0004652002D
:1007180043EB030313F4801F08BF013DF7D043EAFE
:100728000603704794EA0C0F0CEA135518BF95EAB4
:100738000C0F0CD050EA410618BF52EA4306D1D13B
:1007480081EA030101F000414FF0000070BD50EA5A
:10075800410606BF1046194652EA430619D094EAE4
:100768000C0F02D150EA013613D195EA0C0F05D1CE
:1007780052EA03361CBF104619460AD181EA030122
:1007880001F0004141F0FE4141F470014FF00000DA
:1007980070BD41F0FE4141F4780170BD70B54FF075
:1007A800FF0C4CF4E06C1CEA11541DBF1CEA1355F5
:1007B80094EA0C0F95EA0C0F00F0A7F8A4EB0504D7
:1007C80081EA030E52EA03354FEA013100F08880CE
:1007D8004FEA03334FF0805545EA131343EA126397
:1007E8004FEA022245EA111545EA10654FEA00264C
:1007F8000EF000419D4208BF964244F1FD0404F505
:10080800407402D25B084FEA3202B61A65EB030560
:100818005B084FEA32024FF480104FF4002CB6EB1D
:10082800020E75EB030E22BFB61A754640EA0C009D
:100838005B084FEA3202B6EB020E75EB030E22BFDD
:10084800B61A754640EA5C005B084FEA3202B6EB1E
:10085800020E75EB030E22BFB61A754640EA9C00DD
:100868005B084FEA3202B6EB020E75EB030E22BFAD
:10087800B61A754640EADC0055EA060E18D04FEA6B
:10088800051545EA16754FEA06164FEAC30343EA0B
:1008980052734FEAC2025FEA1C1CC0D111F4801FD8
:1008A8000BD141EA00014FF000004FF0004CB6E7D1
:1008B80011F4801F04BF01430020B4F1FD0C88BF70
:1008C800BCF5E06F3FF6AFAEB5EB030C04BFB6EB7B
:1008D800020C5FEA500C50F1000041EB045170BD6E
:1008E8000EF0004E4EEA113114EB5C04C2BFD4EB9B
:1008F8000C0541EA045170BD41F480114FF0000E1F
:10090800013C90E645EA060E8DE60CEA135594EA9A
:100918000C0F08BF95EA0C0F3FF43BAF94EA0C0F9D
:100928000AD150EA01347FF434AF95EA0C0F7FF412
:1009380025AF104619462CE795EA0C0F06D152EA66
:1009480003353FF4FDAE1046194622E750EA41064A
:1009580018BF52EA43067FF4C5AE50EA41047FF45B
:100968000DAF52EA43057FF4EBAE12E74FF0FF3CC0
:1009780006E000BF4FF0010C02E000BF4FF0010C91
:100988004DF804CD4FEA410C7FEA6C5C4FEA430C0A
:1009980018BF7FEA6C5C1BD001B050EA410C0CBF59
:1009A80052EA430C91EA030F02BF90EA020F0020BB
:1009B800704710F1000F91EA030F58BF994208BF22
:1009C80090422CBFD8176FEAE37040F001007047DF
:1009D8004FEA410C7FEA6C5C02D150EA013C07D136
:1009E8004FEA430C7FEA6C5CD6D152EA033CD3D081
:1009F8005DF8040B704700BF8446104662468C467B
:100A08001946634600E000BF01B5FFF7B7FF0028AD
:100A180048BF10F1000F01BD4DF808EDFFF7F4FFD6
:100A28000CBF012000205DF808FB00BF4DF808ED61
:100A3800FFF7EAFF34BF012000205DF808FB00BF84
:100A48004DF808EDFFF7E0FF94BF012000205DF8A6
:100A580008FB00BF4DF808EDFFF7CEFF94BF01205B
:100A680000205DF808FB00BF4DF808EDFFF7C4FF54
:100A780034BF012000205DF808FB00BF4FEA410C9D
:100A88007FEA6C5C02D150EA013C0AD14FEA430C80
:100A98007FEA6C5C02D152EA033C02D14FF00000BD
:100AA80070474FF0010070474FEA410212F50012FB
:100AB80015D211D56FF47873B3EB625212D94FEA9D
:100AC800C12343F0004343EA505311F0004F23FA87
:100AD80002F018BF404270474FF00000704750EADC
:100AE800013005D111F0004008BF6FF00040704799
:100AF8004FF00000704700BF4A0011D212F50012F3
:100B080011D20DD56FF47873B3EB62520ED44FEA5D
:100B1800C12343F0004343EA505323FA02F07047DD
:100B28004FF00000704750EA013002D14FF0FF301B
:100B380070474FF00000704753B94AB9002908BF01
:100B480000281CBF4FF0FF314FF0FF3000F06EB9A6
:100B5800ADF1080C6DE904CE00F006F8DDF804E00C
:100B6800DDE9022304B070472DE9F047089D0446EB
:100B78008C46002B40F083808A42174647D9B2FA48
:100B880082F242B1C2F1200024FA00F0914097406D
:100B980040EA010C94404FEA1748230CBCFBF8F6D6
:100BA8001FFA87FE08FB16C143EA014306FB0EF154
:100BB800994209D9FB1806F1FF3080F01981994252
:100BC80040F21681023E3B445B1AA4B2B3FBF8F034
:100BD80008FB103344EA034400FB0EFEA64509D97E
:100BE8003C1900F1FF3380F00581A64540F20281EF
:100BF80002383C4440EA0640A4EB0E0400261DB12E
:100C0800D4400023C5E900433146BDE8F08702B966
:100C1800FFDEB2FA82F2002A50D1CB1B4FEA174E00
:100C28001FFA87F80126B3FBFEFC210C0EFB1C33D0
:100C380041EA034108FB0CF38B4207D979180CF100
:100C4800FF3002D28B4200F2E9808446C91AA3B26F
:100C5800B1FBFEF00EFB101143EA014408FB00F85B
:100C6800A04507D93C1900F1FF3302D2A04500F294
:100C7800D9801846A4EB080440EA0C40BFE78B4231
:100C880009D9002D00F0B1800026C5E900013046E1
:100C98003146BDE8F087B3FA83F6002E4AD18B427D
:100CA80002D3824200F2B880841A61EB030101206A
:100CB8008C46002DA8D0C5E9004CA5E7C2F1200359
:100CC80020FA03F6974001FA02F04FEA174ED9408E
:100CD8003043030CB1FBFEF61FFA87F80EFB161122
:100CE80043EA014306FB08F1994204FA02F409D9E0
:100CF800FB1806F1FF3C80F08D80994240F28A8013
:100D0800023E3B445B1A81B2B3FBFEF00EFB10338C
:100D180041EA034100FB08F38B4207D9791800F137
:100D2800FF3C73D28B4271D902383944CB1A40EA5E
:100D3800064678E7C6F1200C03FA06F422FA0CF30B
:100D48001C4320FA0CF701FA06F34FEA144E21FA75
:100D58000CF11F433B0CB1FBFEF91FFA84F80EFBA4
:100D6800191143EA014109FB08FA8A4502FA06F219
:100D780000FA06F308D9611809F1FF3048D28A450C
:100D880046D9A9F102092144A1EB0A01BFB2B1FB7E
:100D9800FEF00EFB101147EA014700FB08F8B845C2
:100DA80007D9E71900F1FF312ED2B8452CD90238FE
:100DB800274440EA0940A7EB0807A0FB02894F45F2
:100DC800C64649461AD317D05DB1B3EB0E0267EB9E
:100DD800010707FA0CFCF2404CEA0202F740C5E9A9
:100DE800002700263146BDE8F0872E4628460BE747
:100DF8000646E9E61846FDE64345E5D2B8EB020E9D
:100E080069EB04010138DFE70846D2E760468DE761
:100E18008146B9E7664675E730464AE7ACF1020C09
:100E2800394413E702383C4424E700BF704700BF49
:100E380080B500AF01F04AFF00F020F800F08AF812
:100E480000F018F900F044F900F0B0F900F066FB82
:100E580007F0B6FF08F09AF808F0D8F800F02EFB73
:100E680008F0B8F908F080FA07F08CFF06F098FD52
:100E780008F0D0FA06F070FEFEE7000080B596B0E4
:100E880000AF07F1140344220021184608F018FBAC
:100E98003B4600221A605A609A60DA601A614FF481
:100EA800007003F0F9FE0346002B01D000F04AF869
:100EB80003F0D4FE224BD3F89030214A23F01803D4
:100EC800C2F8903034237B610123FB610123BB63AB
:100ED8000123FB6200233B6360237B630223FB63E4
:100EE80001233B6401237B642823BB640723FB6441
:100EF80002233B6502237B6507F11403184602F0C1
:100F0800ABF80346002B01D000F01CF80F233B6020
:100F180003237B600023BB600023FB6000233B614D
:100F28003B460421184602F0A9FC0346002B01D0D9
:100F380000F008F803F032F900BF5837BD4680BD0D
:100F48000010024080B400AF00BFBD465DF8047BCE
:100F58007047000080B58AB000AF07F11403002283
:100F68001A605A609A60DA601A613F4BDB6C3E4A3D
:100F780043F00403D3643C4BDB6C03F004033B6194
:100F88003B69394BDB6C384A43F08003D364364BFA
:100F9800DB6C03F08003FB60FB68334BDB6C324A8D
:100FA80043F00103D364304BDB6C03F00103BB60F7
:100FB800BB682D4BDB6C2C4A43F00203D3642A4BED
:100FC800DB6C03F002037B607B6800227C212748EE
:100FD80003F078FB002220214FF0904003F072FBD1
:100FE8004FF400537B614FF44413BB610223FB6150
:100FF80007F1140319461D4803F0D2F97C237B61DD
:101008000123BB610023FB6100233B6207F114034A
:101018001946164803F0C4F920237B610123BB61FC
:101028000023FB6100233B6207F1140319464FF0CC
:10103800904003F0B5F9C0237B610023BB61002316
:10104800FB6107F114031946094803F0A9F90022C6
:101058000021282003F051FF282003F06AFF00BF79
:101068002837BD4680BD00BF001002400008004878
:101078000004004880B582B000AF144B9B6C134A43
:1010880043F001039364114B9B6C03F001037B60F5
:101098007B68002200210D2003F02FFF0D2003F0B4
:1010A80048FF00220021102003F027FF102003F042
:1010B80040FF00220021112003F01FFF112003F040
:1010C80038FF00BF0837BD4680BD00BF0010024092
:1010D80080B58AB000AF07F11C0300221A605A607D
:1010E8009A603B4600221A605A609A60DA601A6178
:1010F8005A619A612C4B4FF080421A602A4B0022A9
:101108005A60294B00229A60274B0022DA60264B4E
:1011180000221A61244B00229A61234800F013FC34
:101128000346002B01D0FFF70DFF0023FB610023CE
:101138007B6207F11C0319461B4801F059FD034661
:10114800002B01D0FFF7FEFE60233B6000237B608D
:101158000023BB6000233B613B460022194612482E
:1011680000F0CEFE0346002B01D0FFF7EBFE3B4616
:10117800042219460C4800F0C3FE0346002B01D098
:10118800FFF7E0FE3B4608221946074800F0B8FE84
:101198000346002B01D0FFF7D5FE034800F0F8F80E
:1011A80000BF2837BD4680BD4402002080B58EB000
:1011B80000AF07F1280300221A605A609A60DA60CB
:1011C80007F11C0300221A605A609A603B4600220D
:1011D8001A605A609A60DA601A615A619A61324BF1
:1011E800324A1A60304B00225A602F4B00229A6014
:1011F8002D4B0022DA602C4B00221A612A4B8022E8
:101208009A61294800F048FB0346002B01D0FFF7FC
:1012180099FE4FF48053BB6207F128031946224810
:1012280000F082FF0346002B01D0FFF78BFE1E481B
:1012380000F089FB0346002B01D0FFF783FE002353
:10124800FB6100237B6207F11C031946164801F075
:10125800CFFC0346002B01D0FFF774FE60233B60F0
:1012680000237B600023BB6000233B613B460422D4
:1012780019460D4800F044FE0346002B01D0FFF745
:1012880061FE3B460C221946074800F039FE03462A
:10129800002B01D0FFF756FE034800F079F800BF95
:1012A8003837BD4680BD00BFB001002000040040B3
:1012B80080B485B000AF78607B681B68B3F1804F5D
:1012C8000BD1094B9B6D084A43F001039365064B0C
:1012D8009B6D03F00103FB60FB6800BF1437BD463C
:1012E8005DF8047B704700BF0010024080B584B0F1
:1012F80000AF78607B681B68214A93423BD1214B41
:101308009B6D204A43F0020393651E4B9B6D03F0CF
:101318000203FB60FB681C4B1C4A1A601A4B05222F
:101328005A60194B10229A60174B0022DA60164B4C
:1013380080221A61144B4FF400725A61124B00223A
:101348009A61114B0022DA610F4B00221A620E4893
:1013580003F00EFA0346002B01D0FFF7F3FD7B687C
:10136800094A1A63084A7B6893627B68064A1A62CC
:10137800054A7B68936200BF1037BD4680BD00BF39
:101388000004004000100240FC0100203000024030
:1013980080B58CB000AF786007F11C0300221A609A
:1013A8005A609A60DA601A617B681B68B3F1804FF3
:1013B8003AD13E4BDB6C3D4A43F00103D3643B4BCF
:1013C800DB6C03F00103BB61BB69384BDB6C374A4C
:1013D80043F00203D364354BDB6C03F002037B61FB
:1013E8007B690323FB6102233B6200237B620023AA
:1013F800BB620123FB6207F11C0319464FF09040C2
:1014080002F0CEFF4FF48063FB6102233B620023AE
:101418007B620023BB620123FB6207F11C031946B0
:10142800234802F0BDFF3CE07B681B68214A9342D9
:1014380037D11E4BDB6C1D4A43F00203D3641B4BB0
:10144800DB6C03F002033B613B69184BDB6C174A0A
:1014580043F00403D364154BDB6C03F00403FB6017
:10146800FB680223FB6102233B6200237B620323A8
:10147800BB620223FB6207F11C0319460C4802F009
:101488008FFF8023FB6102233B6200237B620023E2
:10149800BB620223FB6207F11C031946064802F0EF
:1014A8007FFF00BF3037BD4680BD00BF001002403F
:1014B80000040048000400400008004880B500AF60
:1014C800144B154A1A60134B4FF4E1325A60114B12
:1014D80000229A600F4B0022DA600E4B00221A613C
:1014E8000C4B0C225A610B4B00229A61094B0022CB
:1014F800DA61084B00221A62064B00225A6205483C
:1015080003F031FD0346002B01D0FFF71BFD00BFA0
:1015180080BD00BF20030020004C004080B500AF14
:10152800144B154A1A60134B4FF4E1325A60114BB1
:1015380000229A600F4B0022DA600E4B00221A61DB
:101548000C4B0C225A610B4B00229A61094B00226A
:10155800DA61084B00221A62064B00225A620548DB
:1015680003F001FD0346002B01D0FFF7EBFC00BFA1
:1015780080BD00BFA40300200044004080B5A6B091
:1015880000AF786007F1840300221A605A609A60FD
:10159800DA601A6107F11C0368220021184607F077
:1015A8008FFF7B681B68704A93423CD10823FB611C
:1015B8000023BB6407F11C03184602F083FB0346B3
:1015C800002B01D0FFF7BEFC684B9B6D674A43F4C4
:1015D80000239365654B9B6D03F40023BB61BB69D6
:1015E800624BDB6C614A43F00403D3645F4BDB6CF2
:1015F80003F004037B617B694FF44063C7F88430D0
:101608000223C7F888300023C7F88C300323C7F8B3
:1016180090300823C7F8943007F1840319465448DA
:1016280002F0BEFE9BE07B681B68524A934240F082
:1016380096800223FB6100233B6407F11C031846D4
:1016480002F040FB0346002B01D0FFF77BFC474B21
:101658009B6D464A43F400339365444B9B6D03F4FA
:1016680000333B613B69414BDB6C404A43F001036B
:10167800D3643E4BDB6C03F00103FB60FB680C2377
:10168800C7F884300223C7F888300023C7F88C30A5
:101698000323C7F890300723C7F8943007F1840371
:1016A80019464FF0904002F07BFE334B334A1A60E4
:1016B800314B02225A60304B00229A602E4B002296
:1016C800DA602D4B80221A612B4B00225A612A4B7B
:1016D80000229A61284B2022DA61274B00221A62E5
:1016E800254803F045F80346002B01D0FFF72AFCF4
:1016F8007B68214A1A67204A7B689362204B214AFB
:101708001A601F4B02225A601D4B10229A601C4B14
:101718000022DA601A4B80221A61194B00225A61A2
:10172800174B00229A61164B2022DA61144B0022D3
:101738001A62134803F01CF80346002B01D0FFF788
:1017480001FC7B680E4ADA660D4A7B6893620022C8
:101758000021262003F0D1FB262003F0EAFB00BF7E
:101768009837BD4680BD00BF004C004000100240C5
:101778000008004800440040900200206C0002402D
:10178800D80200208000024080B400AF00BFBD46F0
:101798005DF8047B704780B400AFFEE780B400AF0B
:1017A800FEE780B400AFFEE780B400AFFEE780B488
:1017B80000AF00BFBD465DF8047B704780B400AF42
:1017C80000BFBD465DF8047B704780B400AF00BF22
:1017D800BD465DF8047B704780B500AF01F0D2FAD2
:1017E80007F05CF900BF80BD80B500AF024803F088
:1017F80056F900BF80BD00BFFC01002080B500AFD6
:10180800024803F04CF900BF80BD00BF90020020E1
:1018180080B500AF024803F042F900BF80BD00BFA9
:10182800D802002080B500AF07F0C2FA024803F0E2
:10183800D3FC00BF80BD00BFA403002080B500AF6B
:1018480007F0B6FD4FF4005002F06EFF00BF80BDF8
:1018580080B483B000AF0F4B1B6E0E4A43F00103F8
:1018680013660C4B1B6E03F001037B607B68094B0E
:101878009B6D084A43F080539365064B9B6D03F0BC
:1018880080533B603B6800BF0C37BD465DF8047B66
:10189800704700BF0010024080B582B000AF78608A
:1018A8007B68002B01D1012349E07B6893F83D3028
:1018B800DBB2002B06D17B68002283F83C207868D5
:1018C800FFF714FD7B68022283F83D207B681A68C5
:1018D8007B6804331946104600F0DEFD7B68012260
:1018E80083F848207B68012283F83E207B68012228
:1018F80083F83F207B68012283F840207B6801221F
:1019080083F841207B68012283F842207B6801220A
:1019180083F843207B68012283F844207B680122F6
:1019280083F845207B68012283F846207B680122E2
:1019380083F847207B68012283F83D20002318465E
:101948000837BD4680BD80B582B000AF78607B683F
:10195800002B01D1012349E07B6893F83D30DBB2CD
:10196800002B06D17B68002283F83C207868FFF7BB
:101978009FFC7B68022283F83D207B681A687B689D
:1019880004331946104600F087FD7B68012283F86E
:1019980048207B68012283F83E207B68012283F877
:1019A8003F207B68012283F840207B68012283F86E
:1019B80041207B68012283F842207B68012283F85A
:1019C80043207B68012283F844207B68012283F846
:1019D80045207B68012283F846207B68012283F832
:1019E80047207B68012283F83D20002318460837EA
:1019F800BD4680BD80B582B000AF786039607B6835
:101A08001B6800223968184601F0CCF87B681B680F
:101A1800394A934209D07B681B68384A934204D0FC
:101A28007B681B68364A934201D1012300E00023FA
:101A3800002B17D07B681B681A6A41F211131340F8
:101A4800002B0FD17B681B681A6A40F2444313408D
:101A5800002B07D17B681B685A6C7B681B6822F4D3
:101A680000425A647B681B681A6A41F211131340DA
:101A7800002B0FD17B681B681A6A40F2444313405D
:101A8800002B07D17B681B681A687B681B6822F0EB
:101A980001021A603B68002B04D17B68012283F89D
:101AA8003E2023E03B68042B04D17B68012283F8A5
:101AB8003F201BE03B68082B04D17B68012283F898
:101AC800402013E03B680C2B04D17B68012283F88B
:101AD80041200BE03B68102B04D17B68012283F87E
:101AE800422003E07B68012283F843200023184644
:101AF8000837BD4680BD00BF002C014000400140B2
:101B08000044014080B586B000AFF860B9607A60E3
:101B18007B800023FB75BB68002B09D1FB6893F819
:101B28003E30DBB2022B0CBF01230023DBB23CE0CA
:101B3800BB68042B09D1FB6893F83F30DBB2022B5A
:101B48000CBF01230023DBB22FE0BB68082B09D1AF
:101B5800FB6893F84030DBB2022B0CBF0123002353
:101B6800DBB222E0BB680C2B09D1FB6893F841304B
:101B7800DBB2022B0CBF01230023DBB215E0BB68EC
:101B8800102B09D1FB6893F84230DBB2022B0CBF53
:101B980001230023DBB208E0FB6893F84330DBB293
:101BA800022B0CBF01230023DBB2002B01D0022340
:101BB80092E1BB68002B09D1FB6893F83E30DBB299
:101BC800012B0CBF01230023DBB23CE0BB68042BD4
:101BD80009D1FB6893F83F30DBB2012B0CBF01231E
:101BE8000023DBB22FE0BB68082B09D1FB6893F810
:101BF8004030DBB2012B0CBF01230023DBB222E013
:101C0800BB680C2B09D1FB6893F84130DBB2012B80
:101C18000CBF01230023DBB215E0BB68102B09D1F0
:101C2800FB6893F84230DBB2012B0CBF0123002381
:101C3800DBB208E0FB6893F84330DBB2012B0CBF42
:101C480001230023DBB2002B34D07B68002B02D0A9
:101C58007B88002B01D101233EE1BB68002B04D116
:101C6800FB68022283F83E2026E0BB68042B04D1DF
:101C7800FB68022283F83F201EE0BB68082B04D1D2
:101C8800FB68022283F8402016E0BB680C2B04D1C5
:101C9800FB68022283F841200EE0BB68102B04D1B8
:101CA800FB68022283F8422006E0FB68022283F8E0
:101CB800432001E001230FE1BB680C2B00F2AE804A
:101CC80001A252F823F000BF051D0008251E0008D8
:101CD800251E0008251E00084D1D0008251E0008A9
:101CE800251E0008251E0008951D0008251E000851
:101CF800251E0008251E0008DD1D0008FB685B6A1C
:101D0800774ADA62FB685B6A764A1A63FB685B6A41
:101D1800754A5A63FB68586A7968FB681B683433EC
:101D28001A467B8802F0DCFD0346002B01D0012314
:101D3800D2E0FB681B68DA68FB681B6842F4007233
:101D4800DA606EE0FB689B6A654ADA62FB689B6A48
:101D5800644A1A63FB689B6A634A5A63FB68986A19
:101D68007968FB681B6838331A467B8802F0B8FD2F
:101D78000346002B01D00123AEE0FB681B68DA683C
:101D8800FB681B6842F48062DA604AE0FB68DB6A41
:101D9800534ADA62FB68DB6A524A1A63FB68DB6AF9
:101DA800514A5A63FB68D86A7968FB681B683C33F8
:101DB8001A467B8802F094FD0346002B01D00123CC
:101DC8008AE0FB681B68DA68FB681B6842F40062FB
:101DD800DA6026E0FB681B6B414ADA62FB681B6B22
:101DE800404A1A63FB681B6B3F4A5A63FB68186BCF
:101DF8007968FB681B6840331A467B8802F070FDDF
:101E08000346002B01D0012366E0FB681B68DA68F3
:101E1800FB681B6842F48052DA6002E00123FB751C
:101E280000BFFB7D002B56D1FB681B680122B968F7
:101E3800184600F0B7FEFB681B682C4A934209D08D
:101E4800FB681B682A4A934204D0FB681B68294A2E
:101E5800934201D1012300E00023002B07D0FB6847
:101E68001B685A6CFB681B6842F400425A64FB68A2
:101E78001B681E4A93420ED0FB681B68B3F1804F63
:101E880009D0FB681B681C4A934204D0FB681B6896
:101E9800174A934215D1FB681B689A68174B134081
:101EA8003B613B69062B15D03B69B3F5803F11D0E8
:101EB800FB681B681A68FB681B6842F001021A601D
:101EC80008E0FB681B681A68FB681B6842F001029F
:101ED8001A6000E000BFFB7D18461837BD4680BD7C
:101EE8009123000839240008FF220008002C014033
:101EF8000040014000440140000400400700010088
:101F080080B586B000AFF860B9607A600023FB75D1
:101F1800FB6893F83C30012B01D10223FFE0FB68FA
:101F2800012283F83C207B68142B00F2F08001A288
:101F380052F823F0911F0008172100081721000804
:101F480017210008D11F00081721000817210008D1
:101F5800172100081320000817210008172100087E
:101F6800172100085320000817210008172100082E
:101F780017210008952000081721000817210008DC
:101F880017210008D5200008FB681B68B9681846A7
:101F980000F0F0FAFB681B689A69FB681B6842F05E
:101FA80008029A61FB681B689A69FB681B6822F043
:101FB80004029A61FB681B689969BB681A69FB6827
:101FC8001B680A439A61A5E0FB681B68B968184654
:101FD80000F04CFBFB681B689A69FB681B6842F4BD
:101FE80000629A61FB681B689A69FB681B6822F4A7
:101FF80080629A61FB681B689969BB681B691A0251
:10200800FB681B680A439A6184E0FB681B68B9682F
:10201800184600F0A5FBFB681B68DA69FB681B68BB
:1020280042F00802DA61FB681B68DA69FB681B6822
:1020380022F00402DA61FB681B68D969BB681A6977
:10204800FB681B680A43DA6164E0FB681B68B968CF
:10205800184600F0FDFBFB681B68DA69FB681B6823
:1020680042F40062DA61FB681B68DA69FB681B6886
:1020780022F48062DA61FB681B68D969BB681B6956
:102088001A02FB681B680A43DA6143E0FB681B68B5
:10209800B968184600F03AFCFB681B685A6DFB6883
:1020A8001B6842F008025A65FB681B685A6DFB689A
:1020B8001B6822F004025A65FB681B68596DBB68EF
:1020C8001A69FB681B680A435A6523E0FB681B68AA
:1020D800B968184600F072FCFB681B685A6DFB680B
:1020E8001B6842F400625A65FB681B685A6DFB68FE
:1020F8001B6822F480625A65FB681B68596DBB68CF
:102108001B691A02FB681B680A435A6502E001232F
:10211800FB7500BFFB68002283F83C20FB7D184656
:102128001837BD4680BD00BF80B584B000AF786069
:1021380039600023FB737B6893F83C30012B01D195
:102148000223B6E07B68012283F83C207B680222E8
:1021580083F83D207B681B689B68BB60BB6823F4E1
:10216800803323F07703BB60BB6823F47F43BB60F5
:102178007B681B68BA689A603B681B68B3F5005FA8
:102188003ED0B3F5005F00F28780B3F5805F00F0C2
:102198008680B3F5805F7FD8702B1AD0702B7BD8E0
:1021A800602B50D0602B77D8502B3CD0502B73D855
:1021B800402B58D0402B6FD8302B64D0302B6BD8A5
:1021C800202B60D0202B67D8002B5CD0102B5AD046
:1021D80062E07B6818683B6899683B685A683B68A6
:1021E800DB6800F0BFFC7B681B689B68BB60BB6852
:1021F80043F07703BB607B681B68BA689A604FE05E
:102208007B6818683B6899683B685A683B68DB6874
:1022180000F0A8FC7B681B689A687B681B6842F41E
:1022280080429A603CE07B6818683B6859683B6864
:10223800DB681A4600F01CFC7B681B6850211846B6
:1022480000F075FC2CE07B6818683B6859683B68AF
:10225800DB681A4600F03BFC7B681B686021184667
:1022680000F065FC1CE07B6818683B6859683B68AF
:10227800DB681A4600F0FCFB7B681B6840211846A7
:1022880000F055FC0CE07B681A683B681B6819462F
:10229800104600F04CFC03E00123FB7300E000BF94
:1022A8007B68012283F83D207B68002283F83C206C
:1022B800FB7B18461037BD4680BD80B483B000AFA5
:1022C800786000BF0C37BD465DF8047B704780B46A
:1022D80083B000AF786000BF0C37BD465DF8047B63
:1022E800704780B483B000AF786000BF0C37BD463C
:1022F8005DF8047B704780B584B000AF78607B6878
:102308009B6AFB60FB685B6A7A689A4207D1FB6844
:1023180001221A77FB68012283F83E202AE0FB6835
:102328009B6A7A689A4207D1FB6802221A77FB688F
:10233800012283F83F201DE0FB68DB6A7A689A4235
:1023480007D1FB6804221A77FB68012283F8402032
:1023580010E0FB681B6B7A689A4207D1FB68082279
:102368001A77FB68012283F8412003E0FB68012209
:1023780083F83D20F868FFF7B4FFFB6800221A775E
:1023880000BF1037BD4680BD80B584B000AF78600F
:102398007B689B6AFB60FB685B6A7A689A420BD130
:1023A800FB6801221A777B68DB69002B36D1FB6852
:1023B800012283F83E2031E0FB689B6A7A689A42E2
:1023C8000BD1FB6802221A777B68DB69002B25D1C9
:1023D800FB68012283F83F2020E0FB68DB6A7A680B
:1023E8009A420BD1FB6804221A777B68DB69002BC1
:1023F80014D1FB68012283F840200FE0FB681B6BB7
:102408007A689A420AD1FB6808221A777B68DB69E6
:10241800002B03D1FB68012283F84120F868FFF7FD
:102428004CFFFB6800221A7700BF1037BD4680BDFD
:1024380080B584B000AF78607B689B6AFB60FB68FE
:102448005B6A7A689A4203D1FB6801221A7719E01D
:10245800FB689B6A7A689A4203D1FB6802221A7762
:1024680010E0FB68DB6A7A689A4203D1FB680422B1
:102478001A7707E0FB681B6B7A689A4202D1FB68FF
:1024880008221A77F868FFF722FFFB6800221A77FC
:1024980000BF1037BD4680BD80B485B000AF7860FE
:1024A80039607B681B68FB607B682E4A934207D0C3
:1024B8007B68B3F1804F03D07B682B4A934208D1E5
:1024C800FB6823F07003FB603B685B68FA681343A2
:1024D800FB607B68234A93420FD07B68B3F1804F3F
:1024E8000BD07B68204A934207D07B681F4A9342EF
:1024F80003D07B681E4A934208D1FB6823F44073DB
:10250800FB603B68DB68FA681343FB60FB6823F0F9
:1025180080023B685B691343FB607B68FA681A605A
:102528003B689A687B68DA623B681A687B689A62DB
:102538007B680C4A934207D07B680C4A934203D0CD
:102548007B680B4A934203D13B681A697B681A631C
:102558007B6801225A6100BF1437BD465DF8047BD1
:10256800704700BF002C01400004004000400140BB
:102578000044014080B487B000AF786039607B6860
:102588001B6A23F001027B681A627B681B6A7B6105
:102598007B685B683B617B689B69FB60FB6823F435
:1025A800803323F07003FB60FB6823F00303FB60B8
:1025B8003B681B68FA681343FB607B6923F00203DE
:1025C8007B613B689B687A6913437B617B68244A1B
:1025D800934207D07B68234A934203D07B68224A00
:1025E80093420CD17B6923F008037B613B68DB686D
:1025F8007A6913437B617B6923F004037B617B6801
:10260800174A934207D07B68164A934203D07B68E7
:10261800154A934211D13B6923F480733B613B69AE
:1026280023F400733B613B685B693A6913433B6180
:102638003B689B693A6913433B617B683A695A6016
:102648007B68FA689A613B685A687B685A637B685A
:102658007A691A6200BF1C37BD465DF8047B704773
:10266800002C0140004001400044014080B487B084
:1026780000AF786039607B681B6A23F010027B68C2
:102688001A627B681B6A7B617B685B683B617B685D
:102698009B69FB60FB6823F0807323F4E043FB60D5
:1026A800FB6823F44073FB603B681B681B02FA68F5
:1026B8001343FB607B6923F020037B613B689B68C5
:1026C8001B017A6913437B617B68224A93420DD1CF
:1026D8007B6923F080037B613B68DB681B017A69B7
:1026E80013437B617B6923F040037B617B68194A54
:1026F800934207D07B68184A934203D07B68174AF5
:10270800934213D13B6923F480633B613B6923F413
:1027180000633B613B685B699B003A6913433B611B
:102728003B689B699B003A6913433B617B683A6944
:102738005A607B68FA689A613B685A687B689A6352
:102748007B687A691A6200BF1C37BD465DF8047B56
:10275800704700BF002C0140004001400044014088
:1027680080B487B000AF786039607B681B6A23F457
:1027780080727B681A627B681B6A7B617B685B6816
:102788003B617B68DB69FB60FB6823F4803323F0E3
:102798007003FB60FB6823F00303FB603B681B6866
:1027A800FA681343FB607B6923F400737B613B6821
:1027B8009B681B027A6913437B617B68214A9342B9
:1027C8000DD17B6923F400637B613B68DB681B02E6
:1027D8007A6913437B617B6923F480637B617B683F
:1027E800184A934207D07B68174A934203D07B6804
:1027F800164A934213D13B6923F480533B613B69EA
:1028080023F400533B613B685B691B013A6913433E
:102818003B613B689B691B013A6913433B617B68D9
:102828003A695A607B68FA68DA613B685A687B687B
:10283800DA637B687A691A6200BF1C37BD465DF8A7
:10284800047B7047002C01400040014000440140D7
:1028580080B487B000AF786039607B681B6A23F466
:1028680080527B681A627B681B6A3B617B685B6885
:102878007B617B68DB69FB60FB6823F0807323F472
:10288800E043FB60FB6823F44073FB603B681B6814
:102898001B02FA681343FB603B6923F400533B6156
:1028A8003B689B681B033A6913433B617B68144A86
:1028B800934207D07B68134A934203D07B68124A3D
:1028C800934209D17B6923F480437B613B685B6950
:1028D8009B017A6913437B617B687A695A607B68DC
:1028E800FA68DA613B685A687B681A647B683A69F7
:1028F8001A6200BF1C37BD465DF8047B704700BFF5
:10290800002C0140004001400044014080B487B0E1
:1029180000AF786039607B681B6A23F480327B687B
:102928001A627B681B6A3B617B685B687B617B68BA
:102938005B6DFB60FB6823F4803323F07003FB605E
:102948003B681B68FA681343FB603B6923F4003358
:102958003B613B689B681B043A6913433B617B6896
:10296800134A934207D07B68124A934203D07B688C
:10297800114A934209D17B6923F480337B613B6818
:102988005B691B027A6913437B617B687A695A60C9
:102998007B68FA685A653B685A687B689A657B6801
:1029A8003A691A6200BF1C37BD465DF8047B704760
:1029B800002C0140004001400044014080B487B031
:1029C80000AF786039607B681B6A23F480127B68EB
:1029D8001A627B681B6A3B617B685B687B617B680A
:1029E8005B6DFB60FB6823F0807323F4E043FB60BE
:1029F8003B681B681B02FA681343FB603B6923F4BE
:102A080000133B613B689B681B053A6913433B61B4
:102A18007B68144A934207D07B68134A934203D0D9
:102A28007B68124A934209D17B6923F480237B6136
:102A38003B685B699B027A6913437B617B687A69AF
:102A48005A607B68FA685A653B685A687B68DA6539
:102A58007B683A691A6200BF1C37BD465DF8047B83
:102A6800704700BF002C0140004001400044014075
:102A780080B487B000AFF860B9607A60FB681B6A01
:102A88007B61FB681B6A23F00102FB681A62FB6822
:102A98009B693B613B6923F0F0033B617B681B0149
:102AA8003A6913433B617B6923F00A037B617A69C6
:102AB800BB6813437B61FB683A699A61FB687A6972
:102AC8001A6200BF1C37BD465DF8047B704780B4AE
:102AD80087B000AFF860B9607A60FB681B6A23F0C2
:102AE8001002FB681A62FB689B697B61FB681B6AC2
:102AF8003B617B6923F470437B617B681B037A69C4
:102B080013437B613B6923F0A0033B61BB681B0156
:102B18003A6913433B61FB687A699A61FB683A69D1
:102B28001A6200BF1C37BD465DF8047B704780B44D
:102B380085B000AF786039607B689B68FB60FB6894
:102B480023F07003FB603A68FB68134343F0070304
:102B5800FB607B68FA689A6000BF1437BD465DF871
:102B6800047B704780B487B000AFF860B9607A60C2
:102B78003B60FB689B687B617B6923F47F437B61D7
:102B88003B681A027B681A43BB6813437A6913438C
:102B98007B61FB687A699A6000BF1C37BD465DF8A7
:102BA800047B704780B487B000AFF860B9607A6082
:102BB800BB6803F01F03012202FA03F37B61FB6881
:102BC8001A6A7B69DB431A40FB681A62FB681A6A57
:102BD800BB6803F01F03796801FA03F31A43FB6823
:102BE8001A6200BF1C37BD465DF8047B70470000C1
:102BF80080B485B000AF786039607B6893F83C306A
:102C0800012B01D1022354E07B68012283F83C2088
:102C18007B68022283F83D207B681B685B68FB6049
:102C28007B681B689B68BB607B681B68244A93426F
:102C380008D1FB6823F47003FB603B685B68FA68A3
:102C48001343FB60FB6823F07003FB603B681B6861
:102C5800FA681343FB607B681B68FA685A607B68F4
:102C68001B68174A93420ED07B681B68B3F1804FEC
:102C780009D07B681B68134A934204D07B681B68A1
:102C8800114A93420CD1BB6823F08003BB603B68B8
:102C98009B68BA681343BB607B681B68BA689A6014
:102CA8007B68012283F83D207B68002283F83C2062
:102CB800002318461437BD465DF8047B704700BFF3
:102CC800002C0140000400400040014080B582B063
:102CD80000AF0023FB710C4B1B680B4A43F4807355
:102CE8001360032002F0FEF8002000F00FF80346FE
:102CF800002B02D00123FB7101E0FEF7A9FDFB794F
:102D080018460837BD4680BD0020024080B584B013
:102D180000AF78600023FB73174B1B78002B23D080
:102D2800164B1A68144B1B7819464FF47A73B3FB89
:102D3800F1F3B2FBF3F3184602F009F90346002B4E
:102D48000FD17B680F2B09D8002279684FF0FF302C
:102D580002F0D3F80A4A7B68136007E00123FB738B
:102D680004E00123FB7301E00123FB73FB7B18469E
:102D78001037BD4680BD00BF0400002008000020B9
:102D88000000002080B400AF064B1B781A46064BA3
:102D98001B681344044A136000BFBD465DF8047BFA
:102DA800704700BF040000202804002080B400AF52
:102DB800034B1B681846BD465DF8047B704700BF8F
:102DC8002804002080B584B000AF7860FFF7EEFFDC
:102DD800B8607B68FB60FB68B3F1FF3F05D00A4B26
:102DE8001B781A46FB681344FB6000BFFFF7DEFF41
:102DF8000246BB68D31AFA689A42F7D800BF00BFE8
:102E08001037BD4680BD00BF0400002080B582B0E9
:102E180000AF78607B68002B01D1012381E07B68DB
:102E280093F84130DBB2002B06D17B68002283F88F
:102E38004020786806F02AF97B68242283F841202C
:102E48007B681B681A687B681B6822F001021A609D
:102E58007B685A687B681B6822F070621A617B681D
:102E68001B689A687B681B6822F400429A607B683A
:102E7800DB68012B07D17B689A687B681B6842F482
:102E880000429A6006E07B689A687B681B6842F497
:102E980004429A607B68DB68022B04D17B681B685C
:102EA8004FF400625A607B681B685B687A68126836
:102EB80043F0007343F4004353607B681B68DA688F
:102EC8007B681B6822F40042DA607B681A697B68B9
:102ED8005B6942EA03017B689B691A027B681B688D
:102EE8000A43DA607B68D9697B681A6A7B681B6861
:102EF8000A431A607B681B681A687B681B6842F083
:102F080001021A607B6800225A647B68202283F8D9
:102F180041207B6800221A637B68002283F84220E4
:102F2800002318460837BD4680BD80B483B000AF83
:102F3800786039607B6893F84130DBB2202B38D158
:102F48007B6893F84030012B01D1022332E07B6883
:102F5800012283F840207B68242283F841207B6883
:102F68001B681A687B681B6822F001021A607B687C
:102F78001B681A687B681B6822F480521A607B6899
:102F88001B6819687B681B683A680A431A607B6883
:102F98001B681A687B681B6842F001021A607B682C
:102FA800202283F841207B68002283F840200023F8
:102FB80000E0022318460C37BD465DF8047B7047D5
:102FC80080B485B000AF786039607B6893F8413091
:102FD800DBB2202B39D17B6893F84030012B01D12B
:102FE800022333E07B68012283F840207B68242297
:102FF80083F841207B681B681A687B681B6822F08D
:1030080001021A607B681B681B68FB60FB6823F47D
:103018007063FB603B681B02FA681343FB607B68C4
:103028001B68FA681A607B681B681A687B681B68EB
:1030380042F001021A607B68202283F841207B68F5
:10304800002283F84020002300E0022318461437AA
:10305800BD465DF8047B704780B588B000AF7860E6
:103068007B68002B01D10123FEE3A14B9B6803F091
:103078000C03BB619E4BDB6803F003037B617B6839
:103088001B6803F01003002B00F0E480BB69002BE1
:1030980007D0BB690C2B40F08B807B69012B40F07B
:1030A8008780934B1B6803F00203002B05D07B68D5
:1030B8009B69002B01D10123D6E37B681A6A8C4BEC
:1030C8001B6803F00803002B04D0894B1B6803F02E
:1030D800F00305E0864BD3F894301B0903F0F003A6
:1030E800934223D27B681B6A184600F08BFD034687
:1030F800002B01D00123B7E37D4B1B687C4A43F0CA
:10310800080313607A4B1B6823F0F0027B681B6A84
:10311800774913430B60764B5B6823F47F427B68E7
:10312800DB691B02724913434B6025E0704B1B6837
:103138006F4A43F0080313606D4B1B6823F0F002DD
:103148007B681B6A6A4913430B60694B5B6823F40D
:103158007F427B68DB691B02654913434B60BB698F
:10316800002B09D17B681B6A184600F04BFD03460B
:10317800002B01D0012377E300F080FC02465C4B72
:103188009B681B0903F00F035A49CB5C03F01F032C
:1031980022FA03F3584A1360584B1B681846FFF786
:1031A800B5FD0346FB73FB7B002B52D0FB7B5BE337
:1031B8007B689B69002B32D04D4B1B684C4A43F00F
:1031C80001031360FFF7F2FD386108E0FFF7EEFD39
:1031D80002463B69D31A022B01D9032344E3444B2B
:1031E8001B6803F00203002BF0D0414B1B68404AD8
:1031F80043F0080313603E4B1B6823F0F0027B6822
:103208001B6A3B4913430B60394B5B6823F47F42CD
:103218007B68DB691B02364913434B601AE0344B69
:103228001B68334A23F001031360FFF7BFFD3861C1
:1032380008E0FFF7BBFD02463B69D31A022B01D910
:10324800032311E32A4B1B6803F00203002BF0D180
:1032580000E000BF7B681B6803F00103002B74D0FB
:10326800BB69082B05D0BB690C2B0ED17B69032BDE
:103278000BD11F4B1B6803F40033002B64D07B6811
:103288005B68002B60D10123EEE27B685B68B3F5D5
:10329800803F06D1164B1B68154A43F480331360F0
:1032A8001DE07B685B68B3F5A02F0CD1104B1B6841
:1032B8000F4A43F4802313600D4B1B680C4A43F4F8
:1032C800803313600BE00A4B1B68094A23F48033F0
:1032D8001360074B1B68064A23F4802313607B683E
:1032E8005B68002B1CD0FFF761FD386111E000BF5F
:1032F80000100240549A0008080000200000002036
:10330800FFF754FD02463B69D31A642B01D9032306
:10331800AAE2AF4B1B6803F40033002BF0D014E093
:10332800FFF744FD386108E0FFF740FD02463B69BE
:10333800D31A642B01D9032396E2A54B1B6803F427
:103348000033002BF0D100E000BF7B681B6803F05E
:103358000203002B60D0BB69042B05D0BB690C2B82
:1033680019D17B69022B16D1994B1B6803F4806332
:10337800002B05D07B68DB68002B01D1012373E2A9
:10338800934B5B6823F0FE427B681B691B069049E0
:1033980013434B6040E07B68DB68002B23D08C4BE9
:1033A8001B688B4A43F480731360FFF7FFFC386196
:1033B80008E0FFF7FBFC02463B69D31A022B01D950
:1033C800032351E2824B1B6803F48063002BF0D087
:1033D8007F4B5B6823F0FE427B681B691B067C49B8
:1033E80013434B6018E07A4B1B68794A23F48073C7
:1033F8001360FFF7DBFC386108E0FFF7D7FC0246F3
:103408003B69D31A022B01D903232DE2704B1B68A9
:1034180003F48063002BF0D17B681B6803F008037A
:10342800002B3CD07B685B69002B1CD0684BD3F821
:103438009430674A43F00103C2F89430FFF7B6FCB2
:10344800386108E0FFF7B2FC02463B69D31A022B49
:1034580001D9032308E25E4BD3F8943003F002034A
:10346800002BEFD01BE05A4BD3F89430584A23F086
:103478000103C2F89430FFF799FC386108E0FFF7C0
:1034880095FC02463B69D31A022B01D90323EBE1D1
:103498004F4BD3F8943003F00203002BEFD17B6835
:1034A8001B6803F00403002B00F0A6800023FB77C1
:1034B800474B9B6D03F08053002B0DD1444B9B6D04
:1034C800434A43F080539365414B9B6D03F080530F
:1034D800BB60BB680123FB773E4B1B6803F480731A
:1034E800002B18D13B4B1B683A4A43F48073136096
:1034F800FFF75CFC386108E0FFF758FC02463B69BF
:10350800D31A022B01D90323AEE1324B1B6803F413
:103518008073002BF0D07B689B68012B08D12C4B63
:10352800D3F890302A4A43F00103C2F8903024E0DF
:103538007B689B68052B10D1254BD3F89030244A23
:1035480043F00403C2F89030214BD3F89030204A5E
:1035580043F00103C2F890300FE01D4BD3F89030D0
:103568001B4A23F00103C2F89030194BD3F890306E
:10357800174A23F00403C2F890307B689B68002B3D
:1035880016D0FFF713FC38610AE0FFF70FFC02467C
:103598003B69D31A41F28832934201D9032363E18C
:1035A8000B4BD3F8903003F00203002BEDD01AE058
:1035B800FFF7FCFB38610FE0FFF7F8FB02463B69B9
:1035C800D31A41F28832934206D903234CE100BF53
:1035D8000010024000700040A54BD3F8903003F073
:1035E8000203002BE8D1FB7F012B05D1A04B9B6D7B
:1035F8009F4A23F0805393657B681B6803F0200380
:10360800002B3CD07B685B6A002B1CD0984BD3F80E
:103618009830974A43F00103C2F89830FFF7C6FB89
:10362800386108E0FFF7C2FB02463B69D31A022B58
:1036380001D9032318E18E4BD3F8983003F0020325
:10364800002BEFD01BE08A4BD3F89830884A23F040
:103658000103C2F89830FFF7A9FB386108E0FFF7CB
:10366800A5FB02463B69D31A022B01D90323FBE0D1
:103678007F4BD3F8983003F00203002BEFD17B681F
:103688009B6A002B00F0EF807B689B6A022B40F05E
:10369800C580774BDB687B617B6903F003027B683D
:1036A800DB6A9A422CD17B6903F070027B681B6B42
:1036B800013B1B019A4223D17B6903F4FE427B68DC
:1036C8005B6B1B029A421BD17B6903F078427B68D3
:1036D8009B6BDB069A4213D17B6903F4C0027B68BB
:1036E800DB6B5B08013B5B059A4209D17B6903F000
:1036F800C0627B681B6C5B08013B5B069A4267D023
:10370800BB690C2B62D05A4B1B6803F08063002BFB
:1037180001D00123A8E0564B1B68554A23F080735B
:103728001360FFF743FB386108E0FFF73FFB0246F1
:103738003B69D31A022B01D9032395E04C4B1B6834
:1037480003F00073002BF0D1494BDA68494B134062
:103758007A68D16A7A68126B013A120111437A6861
:10376800526B120211437A68D26B5208013A520521
:1037780011437A68126C5208013A520611437A686A
:10378800926BD2060A433A491343CB60384B1B6805
:10379800374A43F080731360354BDB68344A43F093
:1037A8008073D360FFF702FB386108E0FFF7FEFA89
:1037B80002463B69D31A022B01D9032354E02C4B50
:1037C8001B6803F00073002BF0D04CE001234BE0A2
:1037D800274B1B6803F00073002B44D1244B1B6854
:1037E800234A43F080731360214BDB68204A43F07F
:1037F8008073D360FFF7DAFA386108E0FFF7D6FA8A
:1038080002463B69D31A022B01D903232CE0184B3B
:103818001B6803F00073002BF0D024E0BB690C2B6D
:103828001FD0134B1B68124A23F080731360FFF7F5
:10383800BDFA386108E0FFF7B9FA02463B69D31AC6
:10384800022B01D903230FE0094B1B6803F0007317
:10385800002BF0D1064BDA680549074B1340CB60C3
:1038680001E0012300E0002318462037BD4680BD53
:10387800001002408C809D01FCFFEEFE80B584B0F4
:1038880000AF786039607B68002B01D10123E7E045
:10389800754B1B6803F007033A689A4210D9724BBC
:1038A8001B6823F0070270493B6813430B606E4B9B
:1038B8001B6803F007033A689A4201D00123CFE05E
:1038C8007B681B6803F00203002B10D07B689A68A2
:1038D800664B9B6803F0F0039A4208D9634B9B68D8
:1038E80023F0F0027B689B68604913438B607B6818
:1038F8001B6803F00103002B4CD07B685B68032B2B
:1039080007D15A4B1B6803F00073002B21D1012308
:10391800A6E07B685B68022B07D1544B1B6803F455
:103928000033002B15D101239AE07B685B68002BDC
:1039380007D14E4B1B6803F00203002B09D101236A
:103948008EE04A4B1B6803F48063002B01D10123EE
:1039580086E0464B9B6823F003027B685B6843491B
:1039680013438B60FFF722FAF8600AE0FFF71EFAAC
:103978000246FB68D31A41F28832934201D90323E5
:103988006EE03A4B9B6803F00C027B685B689B0017
:103998009A42EBD17B681B6803F00203002B10D01E
:1039A8007B689A68314B9B6803F0F0039A4208D20F
:1039B8002E4B9B6823F0F0027B689B682B491343CE
:1039C8008B60294B1B6803F007033A689A4210D2B0
:1039D800254B1B6823F0070223493B6813430B6000
:1039E800214B1B6803F007033A689A4201D0012370
:1039F80036E07B681B6803F00403002B08D01B4BE0
:103A08009B6823F4E0627B68DB68184913438B608A
:103A18007B681B6803F00803002B09D0134B9B68D5
:103A280023F460527B681B69DB00104913438B60E9
:103A380000F024F802460D4B9B681B0903F00F03A6
:103A48000B49CB5C03F01F0322FA03F3094A136006
:103A5800094B1B681846FFF759F90346FB72FB7AB6
:103A680018461037BD4680BD0020024000100240B5
:103A7800549A0008080000200000002080B489B093
:103A880000AF0023FB610023BB613E4B9B6803F042
:103A98000C033B613B4BDB6803F00303FB603B69B2
:103AA800002B05D03B690C2B21D1FB68012B1ED1C3
:103AB800344B1B6803F00803002B07D1314BD3F8B4
:103AC80094301B0A03F00F03FB6105E02D4B1B68C4
:103AD8001B0903F00F03FB612B4AFB6952F82330E3
:103AE800FB613B69002B0DD1FB69BB610AE03B69B7
:103AF800042B02D1254BBB6104E03B69082B01D1A3
:103B0800234BBB613B690C2B34D11E4BDB6803F0A4
:103B18000303BB60BB68022B03D0BB68032B03D035
:103B280005E01A4B7B6105E0194B7B6102E0FB69FC
:103B38007B6100BF134BDB681B0903F007030133EC
:103B48007B60104BDB681B0A03F07F037A6902FB7A
:103B580003F27B68B2FBF3F37B610A4BDB685B0E15
:103B680003F0030301335B003B607A693B68B2FBF7
:103B7800F3F3BB61BB6918462437BD465DF8047B87
:103B8800704700BF001002406C9A00080024F4003F
:103B980000127A0080B400AF034B1B681846BD467C
:103BA8005DF8047B704700BF0800002080B500AFB7
:103BB800FFF7F0FF0246064B9B681B0A03F007035A
:103BC8000449CB5C03F01F0322FA03F3184680BDB7
:103BD80000100240649A000880B500AFFFF7DAFFD2
:103BE8000246064B9B68DB0A03F007030449CB5CDB
:103BF80003F01F0322FA03F3184680BD00100240A9
:103C0800649A000880B586B000AF786000233B61F5
:103C18002A4B9B6D03F08053002B03D001F02EF844
:103C2800786114E0254B9B6D244A43F080539365DB
:103C3800224B9B6D03F08053FB60FB6801F01EF87C
:103C480078611E4B9B6D1D4A23F0805393657B69F9
:103C5800B3F5007F0BD17B68802B19D97B68A02B2B
:103C680002D902233B6113E001233B6110E07B682A
:103C7800802B02D903233B610AE07B68802B02D1A9
:103C880002233B6104E07B68702B01D101233B6177
:103C98000B4B1B6823F0070209493B6913430B6070
:103CA800074B1B6803F007033A699A4201D00123C6
:103CB80000E0002318461837BD4680BD00100240BA
:103CC8000020024080B586B000AF78600023FB7406
:103CD8000023BB747B681B6803F40063002B31D09E
:103CE8007B68DB6CB3F5400F1AD0B3F5400F14D8DE
:103CF800002B09D0B3F5000F0FD15D4BDB685C4A90
:103D080043F48033D3600CE07B6804330021184609
:103D180000F054FA0346FB7403E00123FB7400E04F
:103D280000BFFB7C002B0BD1514BD3F8883023F418
:103D380040027B68DB6C4E491343C1F8883001E0D0
:103D4800FB7CBB747B681B6803F40033002B00F01A
:103D58009E8000237B74464B9B6D03F08053002BA1
:103D680001D1012300E00023002B0DD0404B9B6DB7
:103D78003F4A43F0805393653D4B9B6D03F080535E
:103D8800BB60BB6801237B743A4B1B68394A43F418
:103D980080731360FFF70AF8F86009E0FFF706F888
:103DA8000246FB68D31A022B02D90323FB7405E0F1
:103DB800304B1B6803F48073002BEFD0FB7C002B87
:103DC8005AD12B4BD3F8903003F440737B617B6955
:103DD800002B1ED07B685B6E7A699A4219D0244BFF
:103DE800D3F8903023F440737B61214BD3F89030A3
:103DF8001F4A43F48033C2F890301D4BD3F89030FB
:103E08001B4A23F48033C2F89030194A7B69C2F800
:103E180090307B6903F00103002B16D0FEF7C6FF34
:103E2800F8600BE0FEF7C2FF0246FB68D31A41F2C6
:103E38008832934202D90323FB7406E00C4BD3F873
:103E4800903003F00203002BECD0FB7C002B0BD14D
:103E5800074BD3F8903023F440727B685B6E0449BB
:103E68001343C1F8903009E0FB7CBB7406E000BF47
:103E78000010024000700040FB7CBB747B7C012B6F
:103E880005D19E4B9B6D9D4A23F0805393657B68BB
:103E98001B6803F00103002B0AD0984BD3F8883035
:103EA80023F003027B681B6A94491343C1F88830E6
:103EB8007B681B6803F00203002B0AD08F4BD3F8F2
:103EC800883023F00C027B685B6A8C491343C1F885
:103ED80088307B681B6803F00403002B0AD0874BEB
:103EE800D3F8883023F030027B689B6A83491343F8
:103EF800C1F888307B681B6803F00803002B0AD0E0
:103F08007E4BD3F8883023F0C0027B68DB6A7B499C
:103F18001343C1F888307B681B6803F02003002B2B
:103F28000AD0764BD3F8883023F440627B681B6B49
:103F380072491343C1F888307B681B6803F4007327
:103F4800002B0AD06D4BD3F8883023F440227B68CD
:103F58005B6C6A491343C1F888307B681B6803F4BB
:103F68008063002B0AD0654BD3F8883023F44012C5
:103F78007B689B6C61491343C1F888307B681B6878
:103F880003F04003002B0AD05C4BD3F8883023F4AD
:103F980040527B685B6B59491343C1F888307B6892
:103FA8001B6803F08003002B0AD0544BD3F88830E9
:103FB80023F440427B689B6B50491343C1F8883017
:103FC8007B681B6803F48073002B0AD04B4BD3F833
:103FD800883023F440327B68DB6B48491343C1F8CF
:103FE80088307B681B6803F48013002B0AD0434B8E
:103FF800D3F89C3023F003027B681B6C3F491343C2
:10400800C1F89C307B681B6803F40053002B28D050
:104018003A4BD3F8883023F040627B681B6D3749F0
:104028001343C1F888307B681B6DB3F1006F06D16C
:10403800324BDB68314A43F48013D36011E07B686C
:104048001B6DB3F1806F0CD17B68043301211846D6
:1040580000F0B4F80346FB74FB7C002B01D0FB7C1A
:10406800BB747B681B6803F40023002B28D0234B08
:10407800D3F8883023F040627B685B6D1F49134397
:10408800C1F888307B685B6DB3F1006F06D11B4BBC
:10409800DB681A4A43F48013D36011E07B685B6DD8
:1040A800B3F1806F0CD17B6804330121184600F00E
:1040B80085F80346FB74FB7C002B01D0FB7CBB74AA
:1040C8007B681B6803F48023002B2BD00B4BD3F8A1
:1040D800883023F040627B689B6D08491343C1F820
:1040E80088307B689B6DB3F1006F09D1034BDB68A7
:1040F800024A43F48013D36014E000BF001002406A
:104108007B689B6DB3F1806F0CD17B680433012110
:10411800184600F053F80346FB74FB7C002B01D0D3
:10412800FB7CBB747B681B6803F48043002B1CD0AA
:10413800194BD3F8883023F040527B68DB6D164961
:104148001343C1F888307B68DB6DB3F1805F0CD115
:104158007B6804330221184600F030F80346FB74EC
:10416800FB7C002B01D0FB7CBB747B681B6803F4D1
:104178008033002B0AD0084BD3F8883023F0004254
:104188007B681B6E04491343C1F88830BB7C184612
:104198001837BD4680BD00BF0010024080B400AF94
:1041A800054B1B68044A43F00403136000BFBD4677
:1041B8005DF8047B704700BF0010024080B584B0F2
:1041C80000AF786039600023FB73744BDB6803F041
:1041D8000303002B18D0714BDB6803F003027B68E4
:1041E8001B689A420DD17B681B68002B09D06B4B6A
:1041F800DB681B0903F007035A1C7B685B689A425B
:1042080047D00123FB7344E07B681B68032B18D05D
:10421800032B25D8012B02D0022B09D020E05F4BBD
:104228001B6803F00203002B1DD10123FB731AE066
:104238005A4B1B6803F48063002B16D10123FB73D0
:1042480013E0564B1B6803F40033002B0FD1534B7C
:104258001B6803F48023002B09D10123FB7306E0BC
:104268000123FB7304E000BF02E000BF00E000BFD1
:10427800FB7B002B0DD1494BDB6823F073027B6875
:1042880019687B685B68013B1B010B434349134377
:10429800CB60FB7B002B7CD1404B1B683F4A23F053
:1042A80080631360FEF782FDB86009E0FEF77EFDCB
:1042B8000246BB68D31A022B02D90323FB7305E01D
:1042C800364B1B6803F00063002BEFD1FB7B002B00
:1042D8005FD13B68002B10D1304B1B6923F078432A
:1042E80023F4FE437A68926811027A68D268D2068B
:1042F8000A432A4913430B6127E03B68012B12D17B
:10430800264B1B6923F4C00323F4FE437A689268A2
:1043180011027A6812695208013A52050A431F4984
:1043280013430B6111E01D4B1B6923F0C06323F499
:10433800FE437A68926811027A6852695208013A13
:1043480052060A43154913430B61144B1B68134A61
:1043580043F080631360FEF729FDB86009E0FEF7BB
:1043680025FD0246BB68D31A022B02D90323FB732F
:1043780005E00A4B1B6803F00063002BEFD0FB7BC2
:10438800002B06D1054B1A697B689B6903491343C7
:104398000B61FB7B18461037BD4680BD00100240FC
:1043A80080B487B000AF7860396000237B6154E146
:1043B8003B681A6801217B6901FA03F31340FB602B
:1043C800FB68002B00F046813B685B6803F0030341
:1043D800012B05D03B685B6803F00303022B30D147
:1043E8007B689B683B617B695B00032202FA03F3ED
:1043F800DB433A6913403B613B68DA687B695B00E1
:1044080002FA03F33A6913433B617B683A699A609D
:104418007B685B683B6101227B6902FA03F3DB433B
:104428003A6913403B613B685B681B0903F0010272
:104438007B6902FA03F33A6913433B617B683A6983
:104448005A603B685B6803F00303032B17D07B6853
:10445800DB683B617B695B00032202FA03F3DB4301
:104468003A6913403B613B689A687B695B0002FAD2
:1044780003F33A6913433B617B683A69DA603B6846
:104488005B6803F00303022B23D17B69DA087B689E
:10449800083253F822303B617B6903F007039B0025
:1044A8000F2202FA03F3DB433A6913403B613B688E
:1044B8001A697B6903F007039B0002FA03F33A6960
:1044C80013433B617B69DA087B680832396943F832
:1044D80022107B681B683B617B695B00032202FA40
:1044E80003F3DB433A6913403B613B685B6803F0C5
:1044F80003027B695B0002FA03F33A6913433B61E9
:104508007B683A691A603B685B6803F44033002BA8
:1045180000F0A080584B1B6E574A43F00103136606
:10452800554B1B6E03F00103BB60BB68534A7B69A4
:104538009B08023352F823303B617B6903F0030385
:104548009B000F2202FA03F3DB433A6913403B61F5
:104558007B68B3F1904F19D07B68494A934213D0D6
:104568007B68484A93420DD07B68474A934207D0FC
:104578007B68464A934201D1042308E0072306E0FA
:10458800032304E0022302E0012300E000237A6908
:1045980002F00302920093403A6913433B613749A2
:1045A8007B699B0802333A6941F82320384B9B68A2
:1045B8003B61FB68DB433A6913403B613B685B68DE
:1045C80003F48013002B03D03A69FB6813433B6163
:1045D8002F4A3B6993602E4BDB683B61FB68DB43EA
:1045E8003A6913403B613B685B6803F40013002B96
:1045F80003D03A69FB6813433B61254A3B69D360A2
:10460800234B5B683B61FB68DB433A6913403B61C2
:104618003B685B6803F40033002B03D03A69FB68FE
:1046280013433B611A4A3B695360194B1B683B6152
:10463800FB68DB433A6913403B613B685B6803F402
:104648008033002B03D03A69FB6813433B61104A5F
:104658003B6913607B6901337B613B681A687B693E
:1046680022FA03F3002B7FF4A3AE00BF00BF1C3770
:10467800BD465DF8047B7047001002400000014011
:104688000004004800080048000C004800100048DA
:104698000004014080B485B000AF78600B467B8091
:1046A8007B681A697B881340002B02D00123FB73B7
:1046B80001E00023FB73FB7B18461437BD465DF809
:1046C800047B704780B483B000AF78600B467B8072
:1046D80013467B707B78002B03D07A887B689A61BD
:1046E80002E07A887B689A6200BF0C37BD465DF8A5
:1046F800047B704780B485B000AF78600B467B8040
:104708007B685B69FB607A88FB6813401A04FB6866
:10471800D9437B880B401A437B689A6100BF1437E2
:10472800BD465DF8047B704780B582B000AF034694
:10473800FB80084B5A69FB881340002B06D0054ABA
:10474800FB885361FB88184600F006F800BF08375D
:10475800BD4680BD0004014080B483B000AF03466D
:10476800FB8000BF0C37BD465DF8047B7047000036
:1047780080B485B000AF78607B68002B01D101233D
:1047880098E07B681B681A464D4B9A420FD87B68A5
:104798001B681A464B4B13444B4AA2FB03231B09C5
:1047A8009A007B685A647B68484A1A640EE07B6802
:1047B8001B681A46464B1344434AA2FB03231B09B2
:1047C8009A007B685A647B68424A1A647B680222B2
:1047D80083F825207B681B681B68FB60FB6823F453
:1047E800FF4323F07003FB607B689A687B68DB6893
:1047F8001A437B681B691A437B685B691A437B68A9
:104808009B691A437B68DB691A437B681B6A1343FD
:10481800FA681343FB607B681B68FA681A607B6858
:104828009B68B3F5804F39D07B681B6C274A93424D
:104838001AD1294B1A687B685B6C03F01C030F21A3
:1048480001FA03F3DB43244913400B60224B1A6837
:104858007B6859687B685B6C03F01C0301FA03F3FF
:104868001D4913430B6019E01C4B1A687B685B6C8D
:1048780003F01C030F2101FA03F3DB43174913402C
:104888000B60164B1A687B6859687B685B6C03F091
:104898001C0301FA03F3114913430B607B680022E0
:1048A800DA637B68012283F825207B68002283F87D
:1048B8002420002318461437BD465DF8047B704752
:1048C80007040240F8FFFDBFCDCCCCCC000002406D
:1048D800F8FBFDBF00040240A8000240A804024003
:1048E80080B586B000AFF860B9607A603B6000239D
:1048F800FB75FB6893F82430012B01D102234BE0B0
:10490800FB68012283F82420FB6893F82530DBB28A
:10491800012B3AD1FB68022283F82520FB6800228C
:10492800DA63FB681B681A68FB681B6822F00102DF
:104938001A603B687A68B968F86800F05FF9FB6844
:104948001B6B002B08D0FB681B681A68FB681B6888
:1049580042F00E021A600FE0FB681B681A68FB68D9
:104968001B6822F004021A60FB681B681A68FB685F
:104978001B6842F00A021A60FB681B681A68FB6829
:104988001B6842F001021A6005E0FB68002283F808
:1049980024200223FB75FB7D18461837BD4680BDD1
:1049A80080B485B000AF78600023FB737B6893F810
:1049B8002530DBB2022B08D07B680422DA637B68DF
:1049C800002283F82420012322E07B681B681A68F0
:1049D8007B681B6822F00E021A607B681B681A68E5
:1049E8007B681B6822F001021A607B685B6C03F02D
:1049F8001C027B681B6C012101FA02F25A607B6879
:104A0800012283F825207B68002283F82420FB7B81
:104A180018461437BD465DF8047B704780B584B0EE
:104A280000AF78600023FB737B6893F82530DBB216
:104A3800022B05D07B680422DA630123FB7329E08B
:104A48007B681B681A687B681B6822F00E021A6074
:104A58007B681B681A687B681B6822F001021A6071
:104A68007B685B6C03F01C027B681B6C012101FAFC
:104A780002F25A607B68012283F825207B680022B5
:104A880083F824207B689B6B002B03D07B689B6B8F
:104A980078689847FB7B18461037BD4680BD80B5BF
:104AA80084B000AF78607B681B6C1B68FB607B6818
:104AB8001B681B68BB607B685B6C03F01C030422EB
:104AC8009A40FB681340002B26D0BB6803F0040310
:104AD800002B21D07B681B681B6803F02003002B88
:104AE80007D17B681B681A687B681B6822F0040280
:104AF8001A607B685B6C03F01C027B681B6C0421EA
:104B080001FA02F25A607B681B6B002B71D07B683C
:104B18001B6B786898476CE07B685B6C03F01C0340
:104B280002229A40FB681340002B2ED0BB6803F08A
:104B38000203002B29D07B681B681B6803F0200345
:104B4800002B0BD17B681B681A687B681B6822F0F6
:104B58000A021A607B68012283F825207B685B6C57
:104B680003F01C027B681B6C022101FA02F25A60F6
:104B78007B68002283F824207B68DB6A002B38D00E
:104B88007B68DB6A7868984733E07B685B6C03F086
:104B98001C0308229A40FB681340002B2AD0BB68EC
:104BA80003F00803002B25D07B681B681A687B6814
:104BB8001B6822F00E021A607B685B6C03F01C0213
:104BC8007B681B6C012101FA02F25A607B680122A2
:104BD800DA637B68012283F825207B68002283F84A
:104BE80024207B685B6B002B04D07B685B6B786848
:104BF800984700BF00BF1037BD4680BD80B485B060
:104C080000AFF860B9607A603B60FB685B6C03F0EA
:104C18001C02FB681B6C012101FA02F25A60FB6856
:104C28001B683A685A60FB689B68102B08D1FB68C0
:104C38001B687A689A60FB681B68BA68DA6007E0E4
:104C4800FB681B68BA689A60FB681B687A68DA6058
:104C580000BF1437BD465DF8047B704780B400AFD1
:104C6800054B1B68044A43F48073136000BFBD46BC
:104C78005DF8047B704700BF0070004080B400AF4F
:104C8800044B1B6803F4C0631846BD465DF8047BFB
:104C9800704700BF0070004080B485B000AF7860F6
:104CA8007B68B3F5007F30D1234B1B6803F4C063E6
:104CB800B3F5007F38D0204B1B6823F4C0631E4A2D
:104CC80043F4007313601D4B1B68322202FB03F38D
:104CD8001B4AA2FB03239B0C0133FB6002E0FB6829
:104CE800013BFB60144B5B6903F48063B3F5806F91
:104CF80002D1FB68002BF2D10F4B5B6903F4806390
:104D0800B3F5806F10D103230FE00B4B1B6803F43E
:104D1800C063B3F5806F07D0074B1B6823F4C063EB
:104D2800054A43F480631360002318461437BD46D0
:104D38005DF8047B704700BF007000400800002049
:104D480083DE1B4380B485B000AF78607B6803F0D6
:104D58000703FB600C4BDB68BB60BA684FF6FF03C8
:104D68001340BB60FB681A02BB68134343F0BF6380
:104D780043F40033BB60044ABB68D36000BF1437F8
:104D8800BD465DF8047B704700ED00E080B400AFDD
:104D9800044BDB681B0A03F007031846BD465DF8A1
:104DA800047B704700ED00E080B483B000AF034699
:104DB800FB7197F90730002B0BDBFB7903F01F021F
:104DC800074997F907305B09012000FA02F241F818
:104DD800232000BF0C37BD465DF8047B704700BF39
:104DE80000E100E080B483B000AF03463960FB7196
:104DF80097F90730002B0ADB3B68DAB20C4997F9C0
:104E080007301201D2B20B4483F800230AE03B6852
:104E1800DAB20849FB7903F00F03043B1201D2B25E
:104E28000B441A7600BF0C37BD465DF8047B70470B
:104E380000E100E000ED00E080B489B000AFF86068
:104E4800B9607A60FB6803F00703FB61FB69C3F193
:104E58000703042B28BF0423BB61FB690433062B1B
:104E680002D9FB69033B00E000237B614FF0FF326E
:104E7800BB6902FA03F3DA43BB681A407B699A40BC
:104E88004FF0FF317B6901FA03F3D9437B680B408C
:104E9800134318462437BD465DF8047B704700006D
:104EA80080B582B000AF78607B68013BB3F1807F4A
:104EB80001D301230FE00A4A7B68013B53600F21AD
:104EC8004FF0FF30FFF78EFF054B00229A60044B2E
:104ED80007221A60002318460837BD4680BD00BF68
:104EE80010E000E080B582B000AF78607868FFF726
:104EF80029FF00BF0837BD4680BD80B586B000AF2A
:104F08000346B9607A60FB7300237B61FFF73EFFBD
:104F180078617A68B9687869FFF78EFF024697F971
:104F28000F3011461846FFF75DFF00BF1837BD4622
:104F380080BD80B582B000AF0346FB7197F907309A
:104F48001846FFF731FF00BF0837BD4680BD80B562
:104F580082B000AF78607868FFF7A2FF0346184672
:104F68000837BD4680BD80B582B000AF78607B68E9
:104F7800002B01D1012340E07B689B6F002B06D1F9
:104F88007B68002283F874207868FCF7F7FA7B685E
:104F980024229A677B681B681A687B681B6822F062
:104FA80001021A60786800F023FC0346012B01D146
:104FB800012322E07B685B6A002B02D0786800F04E
:104FC80073FE7B681B685A687B681B6822F49042F2
:104FD8005A607B681B689A687B681B6822F02A0203
:104FE8009A607B681B681A687B681B6842F001023C
:104FF8001A60786800F0FAFE034618460837BD467E
:1050080080BD80B58AB002AFF860B9603B601346D6
:10501800FB80FB689B6F202B40F08280BB68002BD5
:1050280002D0FB88002B01D101237AE0FB6893F8BA
:105038007430012B01D1022373E0FB68012283F84D
:105048007420FB680022C3F88020FB6821229A673D
:10505800FDF7ACFE7861FB68FA88A3F85020FB687E
:10506800FA88A3F85220FB689B68B3F5805F08D1E3
:10507800FB681B69002B04D10023FB61BB68BB6183
:1050880003E0BB68FB610023BB61FB68002283F877
:1050980074202DE03B6800937B6900228021F8682A
:1050A80000F0EDFE0346002B01D0032339E0FB6935
:1050B800002B0BD1BB691A88FB681B68C2F3080276
:1050C80092B21A85BB690233BB6108E0FB691A78A2
:1050D800FB681B6892B21A85FB690133FB61FB68A8
:1050E800B3F852309BB2013B9AB2FB68A3F8522046
:1050F800FB68B3F852309BB2002BCBD13B680093CE
:105108007B6900224021F86800F0B9FE0346002BB5
:1051180001D0032305E0FB6820229A67002300E002
:10512800022318462037BD4680BD000080B58AB0EE
:1051380000AFF860B9601346FB80FB68DB6F202B7B
:1051480042D1BB68002B02D0FB88002B01D1012380
:105158003BE0FB6893F87430012B01D1022334E063
:10516800FB68012283F87420FB6800221A66FB683A
:105178001B68184A93421FD0FB681B685B6803F4DE
:105188000003002B18D0FB681B687B617B6953E820
:10519800003F3B613B6943F080637B62FB681B68AF
:1051A8001A467B6A3B62FA61F9693A6A41E8002368
:1051B800BB61BB69002BE6D1FB881A46B968F86861
:1051C80000F022FF034600E0022318462837BD46B8
:1051D80080BD00BF0080004080B5BAB000AF7860E5
:1051E8007B681B68DB69C7F8E4307B681B681B6851
:1051F800C7F8E0307B681B689B68C7F8DC30D7F8D5
:10520800E42040F60F031340C7F8D830D7F8D83059
:10521800002B15D1D7F8E43003F02003002B0FD072
:10522800D7F8E03003F02003002B09D07B685B6ED1
:10523800002B00F0A6827B685B6E78689847A0E236
:10524800D7F8D830002B00F01781D7F8DC3003F0FE
:105258000103002B06D1D7F8E020854B1340002B23
:1052680000F00A81D7F8E43003F00103002B11D0D5
:10527800D7F8E03003F48073002B0BD07B681B68F1
:1052880001221A627B68D3F8803043F001027B6800
:10529800C3F88020D7F8E43003F00203002B11D0C4
:1052A800D7F8DC3003F00103002B0BD07B681B68B8
:1052B80002221A627B68D3F8803043F004027B68CC
:1052C800C3F88020D7F8E43003F00403002B11D092
:1052D800D7F8DC3003F00103002B0BD07B681B6888
:1052E80004221A627B68D3F8803043F002027B689C
:1052F800C3F88020D7F8E43003F00803002B17D058
:10530800D7F8E03003F02003002B05D1D7F8DC30C4
:1053180003F00103002B0BD07B681B6808221A627C
:105328007B68D3F8803043F008027B68C3F880209C
:10533800D7F8E43003F40063002B12D0D7F8E0303C
:1053480003F08063002B0CD07B681B684FF400626D
:105358001A627B68D3F8803043F020027B68C3F878
:1053680080207B68D3F88030002B00F00C82D7F8BF
:10537800E43003F02003002B0DD0D7F8E03003F021
:105388002003002B07D07B685B6E002B03D07B6863
:105398005B6E786898477B68D3F88030C7F8D4305C
:1053A8007B681B689B6803F04003402B05D0D7F847
:1053B800D43003F02803002B4FD0786800F0EEFEBD
:1053C8007B681B689B6803F04003402B41D17B68D6
:1053D8001B680833C7F89C30D7F89C3053E8003F67
:1053E800C7F89830D7F8983023F04003C7F8D03082
:1053F8007B681B680833D7F8D020C7F8A820C7F8FF
:10540800A430D7F8A410D7F8A82041E80023C7F89B
:10541800A030D7F8A030002BD9D17B681B6F002BA8
:1054280013D07B681B6F134A9A637B681B6F1846FF
:10543800FFF7F4FA0346002B17D07B681B6F9B6BB2
:105448007A68126F104698470FE0786800F0BAF94A
:105458000BE0786800F0B6F907E0786800F0B2F978
:105468007B680022C3F880208DE100BF8BE100BF7C
:10547800200100046B6200087B681B6E012B40F062
:105488004681D7F8E43003F01003002B00F03F8189
:10549800D7F8E03003F01003002B00F038817B6868
:1054A8001B6810221A627B681B689B6803F0400324
:1054B800402B40F0B4807B681B6F1B685B68A7F8C3
:1054C800BE30B7F8BE30002B00F05F817B68B3F8C0
:1054D8005830B7F8BE209A4280F057817B68B7F8F9
:1054E800BE20A3F85A207B681B6F1B681B6803F05B
:1054F8002003002B40F085807B681B68C7F8883044
:10550800D7F8883053E8003FC7F88430D7F884309C
:1055180023F48073C7F8B8307B681B681A46D7F83D
:10552800B830C7F89430C7F89020D7F89010D7F85B
:10553800942041E80023C7F88C30D7F88C30002B32
:10554800DAD17B681B6808337B677B6F53E8003FC1
:105558003B673B6F23F00103C7F8B4307B681B68D7
:105568000833D7F8B420C7F88020FB67F96FD7F85D
:10557800802041E80023BB67BB6F002BE1D17B682B
:105588001B6808333B663B6E53E8003FFB65FB6DC9
:1055980023F04003C7F8B0307B681B680833D7F89E
:1055A800B020FA66BB66B96EFA6E41E800237B66E6
:1055B8007B6E002BE3D17B682022DA677B680022B0
:1055C8001A667B681B68FB64FB6C53E8003FBB648E
:1055D800BB6C23F01003C7F8AC307B681B681A4615
:1055E800D7F8AC30BB657A65796DBA6D41E80023B0
:1055F8003B653B6D002BE4D17B681B6F1846FFF7BA
:10560800CFF97B68B3F858207B68B3F85A309BB25F
:10561800D31A9BB21946786800F0DEF8B5E07B68CB
:10562800B3F858207B68B3F85A309BB2D31AA7F85E
:10563800CE307B68B3F85A309BB2002B00F0A780BD
:10564800B7F8CE30002B00F0A2807B681B68BB63E4
:10565800BB6B53E8003F7B637B6B23F49073C7F805
:10566800C8307B681B681A46D7F8C8307B643A6430
:10567800396C7A6C41E80023FB63FB6B002BE4D1A7
:105688007B681B6808337B627B6A53E8003F3B6298
:105698003B6A23F00103C7F8C4307B681B680833F2
:1056A800D7F8C4203A63FB62F96A3A6B41E80023F1
:1056B800BB62BB6A002BE3D17B682022DA677B6878
:1056C80000221A667B6800225A667B681B683B6169
:1056D8003B6953E8003FFB60FB6823F01003C7F801
:1056E800C0307B681B681A46D7F8C030FB61BA61C6
:1056F800B969FA6941E800237B617B69002BE4D131
:10570800B7F8CE301946786800F066F83FE0D7F869
:10571800E43003F48013002B0ED0D7F8DC3003F408
:105728008003002B08D07B681B684FF480121A6234
:10573800786800F036FF2DE0D7F8E43003F08003F6
:10574800002B0ED0D7F8E03003F08003002B08D0F0
:105758007B689B6E002B1CD07B689B6E7868984793
:1057680017E0D7F8E43003F04003002B12D0D7F845
:10577800E03003F04003002B0CD0786800F087FD80
:1057880008E000BF06E000BF04E000BF02E000BF81
:1057980000E000BFE837BD4680BD00BF80B483B0DD
:1057A80000AF786000BF0C37BD465DF8047B7047DA
:1057B80080B483B000AF786000BF0C37BD465DF899
:1057C800047B704780B483B000AF786000BF0C37AB
:1057D800BD465DF8047B704780B483B000AF786045
:1057E8000B467B8000BF0C37BD465DF8047B7047D5
:1057F800B0B588B000AF78600023BB767B689A6844
:105808007B681B691A437B685B691A437B68DB69A1
:105818001343FB617B681B681A68A44B13407A68C2
:105828001268F9690B4313607B681B685B6823F493
:1058380040517B68DA687B681B680A435A607B685A
:105848009B69FB617B681B68994A934204D07B681B
:105858001B6AFA691343FB617B681B689B6823F426
:1058680030617B681B68FA690A439A607B681B6829
:10587800904A934221D1904BD3F8883003F0030328
:10588800032B17D801A252F823F000BFA55800082F
:10589800B1580008AB580008B75800080123FB7638
:1058A800BCE00223FB76B9E00423FB76B6E00823CC
:1058B800FB76B3E01023FB76B0E07B681B687F4A79
:1058C800934232D17C4BD3F8883003F00C030C2B75
:1058D80028D801A252F823F0155900082D590008BC
:1058E8002D5900082D590008215900082D59000884
:1058F8002D5900082D5900081B5900082D5900087A
:105908002D5900082D590008275900080023FB7657
:1059180084E00223FB7681E00423FB767EE0082303
:10592800FB767BE01023FB7678E07B681B68644A93
:10593800934220D1604BD3F8883003F03003302BEA
:1059480013D0302B14D8202B09D0202B10D8002BA3
:1059580002D0102B06D00BE00023FB765EE002237A
:10596800FB765BE00423FB7658E00823FB7655E0E2
:105978001023FB7652E07B681B68524A934220D181
:105988004D4BD3F8883003F0C003C02B13D0C02B85
:1059980014D8802B09D0802B10D8002B02D0402B94
:1059A80006D00BE00023FB7638E00223FB7635E0D7
:1059B8000423FB7632E00823FB762FE01023FB76E6
:1059C8002CE07B681B683A4A934225D13A4BD3F8BE
:1059D800883003F44063B3F5406F17D0B3F5406FD8
:1059E80017D8B3F5006F0BD0B3F5006F11D8002BA3
:1059F80003D0B3F5806F06D00BE00023FB760DE0F3
:105A08000223FB760AE00423FB7607E00823FB76F3
:105A180004E01023FB7601E01023FB767B681B680B
:105A2800234A934240F08480FB7E082B23D801A2AE
:105A380052F823F0615A00087F5A0008695A000892
:105A48007F5A00086F5A00087F5A00087F5A0008DA
:105A58007F5A0008775A0008FEF7A8F878610FE027
:105A6800194B7B610CE0FEF709F8786108E04FF408
:105A780000437B6104E000237B610123BB7600BF08
:105A88007B69002B00F002817B685A6813465B0033
:105A980013447A699A4205D37B685B681B037A6969
:105AA8009A4213D90123BB76F0E000BFF369FFEFF8
:105AB80000800040003801400010024000440040CF
:105AC80000480040004C00400024F4007B69184660
